:100000000C94E92B0C94AF480C9484480C945948F8
:100010000C942E480C9403480C94D8470C94AD478C
:100020000C9482470C941A2C0C941A2C0C941A2CB5
:100030000C941A2C0C9431490C941A2C0C941A2CF4
:100040000C941A2C0C94A99E0C941A2C0C941A2C17
:100050000C941A2C0C941A2C0C948B7A0C94704CD3
:100060000C941A2C0C9449F60C94EDF60C941A2C62
:100070000C941A2C0C941A2C0C941A2C0C941A2CE8
:100080000C941A2C0C941A2C0C941A2C0C941A2CD8
:100090000C941A2C0C941A2C0C941A2C0C941A2CC8
:1000A0000C941A2C0C941A2C0C941A2C0C941A2CB8
:1000B0000C941A2C0C941A2C0C941A2C0C941A2CA8
:1000C0000C941A2C0C941A2C0C941A2C0C941A2C98
:1000D0000C941A2C0C941A2C0C941A2C0C941A2C88
:1000E0000C941A2CCB41CE41BD41C141C7410542C0
:1000F000D241D641DC41E041E441EA41EE41F241E6
:100100000542F841FC410042324A374A3C4A464ADD
:10011000504AC94A5A4A624A6A4A744A7E4A884AD6
:10012000974AA14AC94AAB4AB54ABF4A54743A747D
:100130003D74407443744F7446745D7449744C74D8
:10014000868C918C988C9E8CA48CAA8CB08CB68C4E
:10015000328DBC8C328D328DC98CA08DB48DCF8DFB
:10016000D58DF08D008E1E8E358E378F528E378F47
:10017000688E378F6C8E728EC48EDA8EEF8EF48E10
:100180000B8F238F78F67EF68FF69AF6A2F6B7F6E7
:10019000A6F6B7F6AAF6AEF6B7F6B4F62C012C0121
:1001A0002001200120011C011C011C010E01120173
:1001B00012011201084AD73B3BCE016E84BCBFFD41
:1001C000C12F3D6C74319ABD56833DDA3D00C77F27
:1001D00011BED9E4BB4C3E916BAAAABE00000080C0
:1001E0003F05A84CCDB2D44EB93836A9020C50B94F
:1001F000918688083CA6AAAA2ABE000000803F007B
:100200000D94EC120D9415000D94DA120D94690FF3
:100210000D943B100D94A4100D9476110D94403C58
:100220000D94071C0D943A3C0D9467040D94E21252
:100230000D94DF110D9417030D94333C0D94A80613
:100240000D942C3C0D940D110D94EC010D94290F7F
:100250000D9448120D94B10E0D94253C0D94F00DA3
:100260000D94DE120D94D20F0D942B0D4E414E497C
:100270004E495459494E46CDCCCC3D0AD7233C1764
:10028000B7D13877CC2B329595E6241FB14F0A00B1
:100290000020410000C84200401C4620BCBE4CCAA1
:1002A0001B0E5AAEC59D74536C6565702E2E2E00C4
:1002B00050726F62696E67206661696C6564004D9B
:1002C00031313720426564206C6576656C696E67F4
:1002D000206661696C65642E0A4730205A31300A05
:1002E00047302045300A4D333030205032352053CE
:1002F0003838300A4D333030205035302053300AF2
:100300004D3330302050323520533838300A4D3399
:100310003030205035302053300A4D3330302050AB
:10032000323520533838300A4734205331004D31AC
:1003300031372050726F6265207375636365737324
:1003400066756C0A0050524F4245204641494C2088
:10035000434C45414E204E4F5A5A4C450A004D31B0
:10036000303420533137300A4D313137204C6576E7
:10037000656C696E67205820417869730A47323886
:100380000A473020583136302046393939390A4742
:1003900030205A352046363030300A4739310A4D40
:1003A0003231312053300A4D3430300A4D39303635
:1003B000205A3630300A4730205A2D313520463504
:1003C00030300A4730205A3520463530300A473918
:1003D000300A4D3430300A4D393036205A393630F3
:1003E0000A4D3231312053310A4D3430300A473210
:1003F000380A4D313137204C6576656C696E67205F
:10040000646F6E652E0A4D31303920523137300A13
:100410004D313137205265776970696E67206E6F94
:100420007A7A6C650A4731322050302053313220BD
:1004300054300A4D31303420533136300A4D313189
:10044000372050726F62696E672062656400205ABF
:100450003A200020593A200042656420583A200092
:10046000436C69636B20746F20726573756D652EC4
:100470002E2E004E6F206D6F76652E00456E642027
:1004800066696C65206C6973740A00426567696E01
:100490002066696C65206C6973740A004D313235D1
:1004A00000286E6F2066696C6529005344207072C5
:1004B000696E74696E67206279746520004E6F748E
:1004C000205344207072696E74696E670A00437528
:1004D0007272656E742066696C653A2000507269AC
:1004E0006E742074696D653A2000000125311D404D
:1004F000FFFFFF2924301CFF45FFFF27232F1B0A86
:1005000007FFFFFF43FFFF040806FF06222B1AFF29
:10051000FF42043803FF3650726F7465637465647C
:100520002050696E0A0046696C616D656E742075B5
:100530007365643A200053746174733A20002C2070
:100540004C6F6E67657374206A6F623A2000546F57
:1005500074616C2074696D653A2000537461747322
:100560003A20002C204661696C65643A20002C20FA
:1005700046696E69736865643A20005072696E74EA
:10058000733A200053746174733A20005448455202
:100590004D414C5F50524F54454354494F4E0041DA
:1005A00055544F5245504F52545F53445F5354413A
:1005B00054555300454D455247454E43595F5041B0
:1005C0005253455200434153455F4C494748545F9D
:1005D0004252494748544E45535300544F47474CA5
:1005E000455F4C494748545300534F465457415276
:1005F000455F504F574552004255494C445F504566
:100600005243454E54004C4556454C494E475F4475
:10061000415441005A5F50524F4245004155544F9A
:100620004C4556454C005052494E545F4A4F42008B
:1006300050524F4752455353004155544F52455025
:100640004F52545F54454D5000564F4C554D4554F4
:1006500052494300454550524F4D00534552494180
:100660004C5F584F4E5F584F4646004649524D57D3
:100670004152455F4E414D453A4D61726C696E2065
:10068000204649524D574152455F56455253494FB6
:100690004E3A312E312E392E33342045585452558E
:1006A0004445525F545950453A53696E676C6545ED
:1006B000787472756465724165726F563220534F5B
:1006C000555243455F434F44455F55524C3A687419
:1006D0007470733A2F2F636F64652E616C65706858
:1006E0006F626A656374732E636F6D2F64696666EB
:1006F0007573696F6E2F4D41524C494E2050524FC9
:10070000544F434F4C5F56455253494F4E3A312E4A
:1007100030204D414348494E455F545950453A4C6D
:10072000756C7A426F7420486962697363757320CF
:1007300045585452554445525F434F554E543A31F3
:1007400020555549443A65353530323431312D64C0
:100750003436642D343231642D626133612D61325F
:10076000303132366437393330660A002F2F20009B
:1007700020643A0020693A0020703A00496E7661A0
:100780006C69642065787472756465720A004265EC
:1007900064204C6576656C696E6720004661696C03
:1007A000656420746F20656E61626C6520426564CB
:1007B000204C6576656C696E670A00426564204C62
:1007C0006576656C20436F7272656374696F6E2025
:1007D0004D61747269783A0020202020202846312B
:1007E0002E30203D2066756C6C20636F72726563DD
:1007F00074696F6E2C2046302E30203D206E6F20A5
:10080000636F7272656374696F6E290A00202046F7
:100810006164653A202020202020202020202020F4
:10082000202020202046002020536D6F6F746869BF
:100830006E6720286D6D293A20202020202020532B
:1008400000202044697374616E636520286D6D29F2
:100850003A20202020202020205A004261636B6C27
:1008600061736820636F7272656374696F6E20696B
:1008700073206163746976653A0A004261636B6C48
:1008800061736820636F7272656374696F6E20694B
:100890007320696E6163746976653A0A0042616328
:1008A0006B6C617368206D6561737572656D656EE3
:1008B0007420286D6D293A202000496E736572748A
:1008C0002066696C616D656E7420616E6420707263
:1008D00065737320627574746F6E20286F72204D7B
:1008E000313038290A005072657373206275747450
:1008F0006F6E20286F72204D3130382920746F20A0
:1009000068656174206E6F7A7A6C650A00496E734F
:100910006572742066696C616D656E7420616E64C9
:1009200020707265737320627574746F6E20286F07
:1009300072204D313038290A003A200050726F621F
:1009400065205A204F6666736574003F5A206F75A4
:1009500074206F662072616E676520282D322074C6
:100960006F2035290A003F4B2076616C7565206F3A
:100970007574206F662072616E67652028302D3196
:1009800030292E0A00416476616E6365204B3D007C
:10099000617869733A70776D5F7363616C65207C11
:1009A0007374617475735F726573706F6E73657C59
:1009B0000A004472697665722072656769737465AE
:1009C00072733A006F7409006F74707709007332A4
:1009D000676109007332676209006F6C6109006F1B
:1009E0006C620900737473740900667361637469DF
:1009F0007665090073675F726573756C74090073BF
:100A000074616C6C6775617264090044525653548A
:100A100041545553005374616C6C67756172642066
:100A200074687273002D737461727409006879734D
:100A3000746572657369730A2D656E640900626C72
:100A4000616E6B2074696D65006F66662074696DF8
:100A50006509004F54207072657761726E2068617D
:100A6000730A6265656E2074726967676572656492
:100A7000004F54207072657761726E005B6D6D2F50
:100A8000735D090070776D0A7468726573686F6CC6
:100A9000640900747374657009006D737465707314
:100AA0000900737465616C746843686F70007673D5
:100AB000656E7365090050574D207363616C65095D
:100AC0000043532061637475616C0900486F6C6466
:100AD0002063757272656E740052756E2063757254
:100AE00072656E74004D41582063757272656E7444
:100AF00000524D532063757272656E7400536574B5
:100B00002063757272656E7400456E61626C656417
:100B1000090009004163746976652045787472752F
:100B20006465723A2000496E76616C69642065786C
:100B30007472756465720A000000220025002800A6
:100B40002B002E00310034000201000005010801D5
:100B50000B01000020002300260029002C002F009C
:100B6000320000010000030106010901022569733A
:100B70000025696D20256973002569682025696D48
:100B80002025697300256964202569682025696D21
:100B90002025697300256979202569642025696805
:100BA0002025696D20256973007A5F6D61783A2090
:100BB000007A5F6D696E3A2000795F6D61783A2046
:100BC00000785F6D696E3A20005265706F727469CB
:100BD0006E6720656E6473746F70207374617475D2
:100BE000730A000000007E006000600060F87ECCA8
:100BF00060CC60CC60F860CC00CC00CC00CC0000B5
:100C000000000000000000000000000000000000E4
:100C1000000000000000000000FE7FFE7F06600074
:100C200000000000000000F00FF81FF81FF81FF090
:100C30000FF00FF81FF81FF81FE007C00380010036
:100C40000000000000FE7F0E702664724E7A5E3255
:100C50004C8241324C7A5E724E26640E70FE7F00EA
:100C60000000000000FE7F0E70C663C24382411A7E
:100C700058BA5D1A588241C243C6630E70FE7F00A7
:100C8000000000000088088808101120222022108F
:100C90001188088808101100000000000000000002
:100CA0000000000000202210118808880810112080
:100CB000222022101188080000000000000000001F
:100CC0000000004D696E6920322072656164792EE2
:100CD000005072696E74696E672E2E2E0050726914
:100CE0006E7420706175736564004D313235004D4E
:100CF0003234005072696E742061626F7274656480
:100D0000005072696E742066726F6D2053440053F8
:100D1000746F70207072696E74004E6F205344209F
:100D20006361726400526573756D65207072696EDF
:100D300074005061757365207072696E7400416251
:100D40006F7574205072696E746572004368616ECD
:100D500067652066696C616D656E74004368616EDD
:100D600067652066696C616D656E74004D36303064
:100D700020423000436F6E66696775726174696FF7
:100D80006E0054656D7065726174757265004D6FAB
:100D900076656D656E740054756E6500496E666F9C
:100DA0002073637265656E004D6F766520617869AA
:100DB000730044697361626C65207374657070655B
:100DC0007273004D3834004C6576656C20582041B4
:100DD000786973004D313137204C6576656C696EEA
:100DE00067205820417869730A4732380A47302013
:100DF000583136302046393939390A4730205A358A
:100E00002046363030300A4739310A4D32313120F0
:100E100053300A4D3430300A4D393036205A36308E
:100E2000300A4730205A2D313520463530300A47B8
:100E300030205A3520463530300A4739300A4D3493
:100E400030300A4D393036205A3936300A4D323179
:100E5000312053310A4D3430300A4732380A4D318F
:100E60003137204C6576656C696E6720646F6E65FE
:100E70002E0A004175746F20686F6D650047323827
:100E8000004D61696E001FFFFFFFFFFFFF60000064
:100E9000000001FF400000000000FF800000000093
:100EA000007F83CF00000C303F87FF80000C301F95
:100EB000867980000C000F8C30C7838C30E78C3033
:100EC000CFC7CC31F38C30DCECEC33B98C30D86C40
:100ED0006C33198C30D06C0C33198C30D86C0C33CB
:100EE000198C30DC6C0E3B198C30CF7C079F198C31
:100EF00030C77C038F194000000000000260000032
:100F0000000000061FFFFFFFFFFFF82020506C616C
:100F10006E6E657242756666657242797465733A83
:100F200020002046726565204D656D6F72793A200C
:100F300000436F6D70696C65643A204A616E2031C0
:100F40003020323031390A00207C20417574686FBE
:100F5000723A2028416C657068204F626A6563743C
:100F60007320496E632E2C204C756C7A426F74206E
:100F7000476974205265706F7369746F7279290ABA
:100F8000004A616E203130203230313931333A3409
:100F9000323A313800204C617374205570646174AA
:100FA00065643A2000312E312E390A004D61726C91
:100FB000696E0020536F66747761726520526573A5
:100FC00065740A00205761746368646F6720526516
:100FD0007365740A002042726F776E206F757420FB
:100FE00052657365740A002045787465726E616C91
:100FF0002052657365740A00506F77657255700AE8
:101000000073746172740A006175746F25692E67CC
:10101000006572726F722077726974696E672074EE
:101020006F2066696C650A00456E6473746F707337
:1010300020256320256320256320256300205A3A5C
:101040000020593A0020583A00656E6473746F703E
:1010500073206869743A2000446F6E65207361766E
:10106000696E672066696C652E0A004D323900474B
:101070003238205A0A473020583830205931393018
:101080002046333030300A4D313137205072696E8E
:10109000742061626F727465642E0020746F6F201B
:1010A0006C6F6E6720657874727573696F6E2070EF
:1010B000726576656E7465640A0020636F6C6420E7
:1010C000657874727573696F6E2070726576656E7F
:1010D0007465640A004D3234004D323320257300AC
:1010E00053442063617264206F6B0A006F70656EF9
:1010F000526F6F74206661696C65640A00766F6C6C
:10110000756D652E696E6974206661696C65640A27
:1011100000534420696E6974206661696C0A002579
:10112000753A2530327500253032753A25303275E2
:101130000057726974696E6720746F2066696C6508
:101140003A20006F70656E206661696C65642C20C2
:1011500046696C653A20006F70656E206661696C47
:1011600065642C2046696C653A200046696C6520F0
:1011700073656C65637465640A002053697A653A27
:10118000200046696C65206F70656E65643A2000CA
:101190002066696C653A2000646F696E670066724C
:1011A000657368004E6F772000454E4420535542CA
:1011B000524F5554494E450A002220706F73002249
:1011C00020706172656E743A2200535542524F5539
:1011D00054494E452043414C4C20746172676574FC
:1011E0003A22004B494C4C45442E200074727969D8
:1011F0006E6720746F2063616C6C207375622D675D
:10120000636F64652066696C657320776974682014
:10121000746F6F206D616E79206C6576656C732ECE
:10122000204D4158206C6576656C2069733A004505
:1012300072726F723A006F70656E206661696C65DC
:10124000642C2046696C653A20001000C902100128
:101250002C014001220170011801B0010E01F001C2
:1012600004015002FA00B002F0003003E600D0039F
:10127000DC009004D2007005C800A006BE00000883
:10128000B400B009AA00D00BA000600E9600601157
:101290008C000015820020197800C01D6E00A0226D
:1012A0006400B0275A00902C500000314600E03412
:1012B0003C0010383200903A2800603C1E00A03DEF
:1012C0001400803E0A00203F00006265640A002C82
:1012D0002073797374656D2073746F707065642109
:1012E000204865617465725F49443A200042656434
:1012F0002068656174696E67206661696C65640069
:1013000048656174696E67206661696C6564004553
:10131000312048656174696E67206661696C656437
:101320000048656174696E67206661696C65640078
:101330004B494C4C45442E20001000AD0330016A4F
:101340000150022B0170030A019004F500B005E57D
:1013500000D006D800F007CE001009C500300ABE44
:1013600000500BB700700CB100900DAB00B00EA692
:1013700000D00FA200F0109D0010129900301395BC
:10138000005014920070158E0090168B00B01787D5
:1013900000D0188400F0198100101B7E00301C7BE7
:1013A00000501D7900701E7600901F7300B02070F1
:1013B00000D0216E00F0226B0010246900302566F9
:1013C00000502663007027610090285E00B0295C01
:1013D00000D02A5900F02B5600102D5400302E5109
:1013E00000502F4E0070304B0090314800B0324515
:1013F00000D0334200F0343E0010363B0030373727
:10140000005038330070392E00903A2900B03B2349
:1014100000D03C1B00F03D1100103F0100F03F00E8
:10142000004531204572723A204D415854454D5087
:10143000004572723A204D415854454D5020424566
:1014400044004D415854454D50207472696767659A
:10145000726564004531204572723A204D494E5400
:10146000454D50004572723A204D494E54454D50FD
:1014700020424544004D494E54454D5020747269F8
:1014800067676572656400202F002042403A0020A3
:10149000403A00434F4D4D554E49434154494F4EFC
:1014A0000044525952554E004552524F5253004932
:1014B0004E464F004543484F0046696C65206465C1
:1014C0006C657465643A0044656C6574696F6E2080
:1014D0006661696C65642C2046696C653A20006F12
:1014E0006B0020573A00457874727564657220432A
:1014F0006F6F6C696E672E2E2E004578747275645E
:1015000065722048656174696E672E2E2E00205723
:101510003A0042656420636F6F6C696E672E2E2EF1
:10152000004265642068656174696E672E2E2E0026
:10153000B414AF14A814A11493146F666600444544
:101540004255473A004D3131332053004D31343547
:1015500020533C696E6465783E206F7574206F6619
:101560002072616E67652028302D31290A004C7584
:101570006C7A426F74204869626973637573204F97
:1015800066662E00205A3A0020593A0020436F75B3
:101590006E7420583A0020453A00205A3A002059EB
:1015A0003A00583A003A004361703A004534004529
:1015B00033004532004531004530005A320059327F
:1015C000005832005A0059005800C815C615C415F5
:1015D000C115BE15BB15B815B515B215AF15AC15AF
:1015E000206472697665722063757272656E743AF2
:1015F0002000747275650066616C73650020746507
:101600006D70657261747572652070726577617254
:101610006E207472696767657265643A2000207095
:1016200072657761726E20666C616720636C6561BC
:101630007265640A0020686F6D696E672073656E5D
:1016400073697469766974793A20007472756500FB
:1016500066616C736500747275650066616C7365B4
:1016600000747275650066616C736500313D2E31E2
:101670003800303D2E333235002F3331002F3331D7
:10168000002F333100747275650066616C736500FC
:10169000203D2030780020540020520041636365D3
:1016A0006C65726174696F6E3A205000205A002098
:1016B0005900580020204D61783A2000205A00201F
:1016C0005900580020204D696E3A20004F6E2000CE
:1016D0004F666600536F667420656E6473746F7036
:1016E000733A200020466C6F773A200050726F6288
:1016F00065205A204F66667365743A200020643A6C
:101700000020693A0020703A0043290A0061626CA7
:10171000656420286D696E2074656D702000436FCC
:101720006C642065787472756465732061726520DD
:10173000004B64200023646566696E65204445465D
:1017400041554C545F004B69200023646566696E07
:10175000652044454641554C545F004B70200023A2
:10176000646566696E652044454641554C545F008A
:10177000504944204175746F74756E652066696EBA
:101780006973686564212050757420746865206CE5
:10179000617374204B702C204B6920616E64204B68
:1017A0006420636F6E7374616E74732066726F6D04
:1017B0002062656C6F7720696E746F20436F6E6670
:1017C000696775726174696F6E2E680A00504944CA
:1017D000204175746F74756E65206661696C65640F
:1017E000212074696D656F75740A00453120544875
:1017F00045524D414C2052554E41574159004245AA
:101800004420544845524D414C2052554E41574179
:101810005900546865726D616C2052756E61776114
:10182000790045312048656174696E672066616999
:101830006C6564004265642068656174696E672048
:101840006661696C65640048656174696E672066ED
:1018500061696C656400504944204175746F74750A
:101860006E65206661696C6564212054656D7065E4
:1018700072617475726520746F6F20686967680A99
:1018800000204B643A2000204B693A2000204B7026
:101890003A20000A20436C61737369632050494405
:1018A000200A002054753A2000204B753A20002071
:1018B0006D61783A2000206D696E3A200020643A0C
:1018C000200020626961733A20005049442041752C
:1018D000746F74756E65206661696C656421204261
:1018E0006164206578747275646572206E756D62CE
:1018F00065720A00504944204175746F74756E65B5
:101900002073746172740A004F6666736574732085
:101910006170706C696564004572723A20546F6F33
:10192000206661722100546F6F20666172206672BA
:101930006F6D207265666572656E636520706F6994
:101940006E740A00454550524F4D204F4B0A004ED1
:101950006F2063617365206C696768740A0024F402
:10196000D43050C38E20C2A24017828B7011127ADD
:10197000910D816CD90AA861E108C75866076151C9
:1019800043061E4B5D05C145A7041A411104093DDC
:101990009803713931034036DB0265339102D4304C
:1019A0005402802E1D02632CEE01752AC501B02859
:1019B000A001102781018F2564012B244B01E02217
:1019C0003401AC211F018D200D01801FFC00841EFD
:1019D000ED00971DDF00B81CD200E61BC600201BDF
:1019E000BC00641AB200B219A8000A19A0006A1853
:1019F0009900D117910040178B00B516840031165D
:101A00007E00B31579003A157300C7146F0058149F
:101A10006A00EE1366008813630025135E00C71288
:101A20005B006C12570015125400C1115100701167
:101A30004F0021114B00D61049008D104700461071
:101A4000440002104200C00F4000800F3E00420FD1
:101A50003C00060F3B00CB0E3800930E37005C0EA7
:101A60003500270E3400F30D3200C10D3100900D0A
:101A70003000600D2E00320D2D00050D2C00D90C0C
:101A80002B00AE0C2900850C29005C0C2700350CBE
:101A900027000E0C2600E80B2400C40B2400A00B2A
:101AA00023007D0B23005A0B2100390B2100180B5A
:101AB0002000F80A1F00D90A1E00BB0A1E009D0A5A
:101AC0001D00800A1D00630A1C00470A1B002C0A27
:101AD0001B00110A1A00F7091A00DD091900C409D0
:101AE0001900AB091900920917007B091800630956
:101AF00017004C09160036091600200916000A09BD
:101B00001500F5081500E0081400CC081400B8080A
:101B10001400A4081400900813007D0812006B083C
:101B20001300580812004608120034081100230858
:101B300011001208110001081100F0071000E00761
:101B40001000D0071000C0071000B0070F00A10759
:101B5000100091070E0083070F0074070F00650740
:101B60000E0057070E0049070E003B070D002E0719
:101B70000E0020070D0013070D0006070D00F906E3
:101B80000C00ED060D00E0060C00D4060C00C806A3
:101B90000C00BC060C00B0060C00A4060B00990655
:101BA0000C008D060B0082060B0077060B006C06FE
:101BB0000B0061060A0057060B004C060A0042069D
:101BC0000A0038060A002E060A0024060A001A0631
:101BD0000A001006090007060A00FD050900F405C1
:101BE0000900EB050900E2050900D9050900D00547
:101BF0000900C7050900BE050900B5050800AD05C7
:101C00000800A50509009C050800940508008C053E
:101C10000800840508007C050800740508006C05B0
:101C20000700650508005D050700560508004E051C
:101C30000700470507004005080038050700310583
:101C400007002A050700230507001C0506001605E6
:101C500007000F0507000805060002050700FB0442
:101C60000600F5040700EE040600E8040600E2049E
:101C70000700DB040600D5040600CF040600C904F3
:101C80000600C3040600BD040600B7040600B10444
:101C90000500AC040600A6040600A00405009B0491
:101CA000060095040500900406008A0405008504DA
:101CB0000500800406007A04050075040500700420
:101CC00005006B04050066040500610405005C0462
:101CD000050057040500520405004D0405004804A2
:101CE0000500430405003E0404003A0405003504E1
:101CF0000500300404002C0405002704040023041C
:101D000005001E0404001A04040016040500110452
:101D100004000D0404000904050004040400000488
:101D20000400FC030400F8030400F4030400F003BF
:101D30000400EC030400E8030400E4030400E003EF
:101D40000400DC030400D8030400D4030400D0031F
:101D50000400CC030400C8030300C503030024F4FB
:101D600004D9201BC40C5C0E9804C4095F026507EB
:101D70007101F405F900FB04B30048048700C103B6
:101D800069005803550003034500BE023A0084026F
:101D9000310053022A002902250004022000E40138
:101DA0001C00C8011900AF0117009801140084013C
:101DB0001300710110006101100051010E00430178
:101DC0000D0036010B002B010B0020010B0015014B
:101DD00009000C01090003010800FB000800F300E2
:101DE0000800EB000700E4000600DE000600D80053
:101DF0000600D2000600CC000500C7000500C200A6
:101E00000500BD000400B9000400B5000400B100E5
:101E10000400AD000400A9000400A5000300A20016
:101E200003009F0004009B0003009800030095003E
:101E3000020093000300900003008D0002008B005D
:101E40000300880002008600020084000300810075
:101E500002007F0002007D0002007B00020079008A
:101E60000200770001007600020074000200720098
:101E70000100710002006F0002006D0001006C00A3
:101E800002006A00010069000200670001006600AC
:101E900001006500010064000200620001006100B1
:101EA0000100600001005F0002005D0001005C00B5
:101EB00001005B0001005A000100590001005800B8
:101EC00001005700010056000100550001005400B8
:101ED00001005300000053000100520001005100B6
:101EE0000100500001004F0001004E0000004E00B4
:101EF00001004D0001004C0001004B0000004B00B0
:101F000001004A00010049000100480000004800AB
:101F100001004700010046000000460001004500A6
:101F200000004500010044000100430000004300A0
:101F30000100420000004200010041000000410099
:101F40000100400001003F0000003F0001003E0092
:101F500000003E0001003D0000003D0001003C008B
:101F600000003C0000003C0001003B0000003B0082
:101F700001003A0000003A00010039000000390079
:101F80000100380000003800000038000100370070
:101F90000000370001003600000036000000360067
:101FA000010035000000350000003500010034005C
:101FB0000000340000003400010033000000330052
:101FC0000000330001003200000032000000320047
:101FD000010031000000310000003100010030003C
:101FE000000030000000300001002F0000002F0032
:101FF00000002F0000002F0001002E0000002E0026
:1020000000002E0001002D0000002D0000002D001A
:1020100000002D0001002C0000002C0000002C000E
:1020200000002C0001002B0000002B0000002B0002
:1020300000002B0001002A0000002A0000002A00F6
:1020400000002A00010029000000290000002900EA
:1020500000002900000029000100280000002800DD
:1020600000002800000028000000280001002700D0
:1020700000002700000027000000270000002700C4
:1020800001002600000026000000260000002600B7
:1020900000002600010025000000250000002500AA
:1020A000000025000000250000002500010024009C
:1020B0000000240000002400000024000000240090
:1020C0000100230000002300000023000000230083
:1020D0000000230000002300000023000100220074
:1020E0000000220000002200000022000000220068
:1020F000000022000100210000002100000021005A
:10210000000021000000210000002100000021004B
:10211000010020000000200000002000000020003E
:10212000000020000000200000002000000020002F
:1021300001001F0000001F0000001F0000001F0022
:1021400000001F0000001F0000001F0001001E0013
:1021500000001E0000001E0000001E000000C23132
:1021600000001C260000F4190000D80F0000EB0846
:102170000000C0040000750200004001000062750C
:1021800073793A2070617573656420666F72206997
:102190006E7075740A00627573793A207061757398
:1021A000656420666F7220757365720A00627573CC
:1021B000793A2070726F63657373696E670A004BBA
:1021C000494C4C45442E20004B494C4C20636175D2
:1021D000736564206279204B494C4C20627574749D
:1021E0006F6E2F70696E0A004B494C4C45442E208F
:1021F000004B494C4C206361757365642062792003
:10220000746F6F206D75636820696E6163746976A1
:10221000652074696D65202D2063757272656E741A
:1022200020636F6D6D616E643A2000506C65617360
:1022300065207265736574005052494E54455220B2
:1022400048414C544544005072696E746572206870
:10225000616C7465642E206B696C6C282920636145
:102260006C6C6564210A0020737465616C7468434A
:10227000686F70206D61782073706565643A200026
:10228000656E7175657565696E6720220000004096
:10229000C0000040430000374300004842000048AF
:1022A0004200002042000000005761726E696E67B4
:1022B0003A20486F6D696E672042756D70204469E1
:1022C0007669736F72203C20310A0002020400001C
:1022D0000000000000000000004000002643000055
:1022E000454300003743FF0101496E736572742056
:1022F00066696C616D656E7420616E6420707265D4
:10230000737320627574746F6E20286F72204D3164
:102310003038290A002F2F616374696F6E3A726535
:1023200073756D650A004D3630303A20546F6F205A
:10233000636F6C6400486F74656E6420746F6F2007
:10234000636F6C640A002F2F616374696F6E3A705B
:10235000617573650A004D3530320A4D35303000F5
:102360004C6F61642073657474696E6773005265A5
:1023700073746F7265206661696C73616665005382
:10238000746F72652073657474696E67730041645D
:1023900076616E6365642053657474696E6773005B
:1023A0004D61696E005072696E746572205374617C
:1023B0007473004669726D77617265205665727339
:1023C000696F6E004D61696E000A003B2045455003
:1023D000524F4D20496E6465783A20005570646113
:1023E00074696E67207A6F666673657420696E2003
:1023F000454550524F4D3A20000E000E000E000E83
:10240000000E000E000E000E007FC03F801F000E69
:1024100000040004000E001F003F807FC00E000E6D
:10242000000E000E000E000E000E000E0003F8005D
:102430000FFE001E0F003807003803807003807005
:102440000FE07007C070038070010070000038005A
:10245000003807001E0F000FFE0003F80000FE000A
:1024600003FF800783C00E01C00E00E01C00E07F68
:1024700000E03E00E01C00E00800E00000E0000199
:10248000C00E01C00F078007FF0001FC00FFFFFF27
:102490007F80FFC0FFC0FFC07F807F80FFC0FFC084
:1024A000FFC03F001E000C0050726F6265205A2072
:1024B0004F66667365740050726F6265205A204FD4
:1024C000666673657400466C6F7700466C6F7700C4
:1024D00046616E2073706565640046616E2073709E
:1024E0006565640042656400426564004E6F7A7AF7
:1024F0006C65004E6F7A7A6C650053706565640098
:102500005370656564004D61696E004D6F7665209E
:1025100058004D6F76652059004D6F7665205A0042
:10252000457874727564657220004D6F7665203051
:102530002E316D6D004D6F766520316D6D004D6FE4
:1025400076652031306D6D004D6F7665206178695C
:102550007300457874727564657220004D6F7665FE
:10256000205A004D6F76652059004D6F76652058D2
:1025700000436172642072656D6F7665640043612B
:10258000726420696E736572746564000A0A42653C
:1025900064204C6576656C20436F72726563746964
:1025A0006F6E204D61747269783A00202B000A43E7
:1025B0006F72726563746564204265642048656962
:1025C0006768742076732E2042656420546F706FA4
:1025D0006C6F67793A0A00202B000A426564204834
:1025E000656967687420546F706F6772617068798D
:1025F0003A0A2020202B2D2D2D204241434B202D07
:102600002D2B0A2020207C2020202020202020206C
:1026100020207C0A204C207C20202020282B2920D0
:102620002020207C20520A2045207C2020202020B1
:102630002020202020207C20490A2046207C2028A1
:102640002D29204E20282B29207C20470A20542089
:102650007C20202020202020202020207C20480AB0
:102660002020207C20202020282D29202020207C94
:1026700020540A2020207C202020202020202020E0
:1026800020207C0A2020204F2D2D2046524F4E54D2
:10269000202D2D2B0A2028302C30290A004D656171
:1026A0006E206F662073616D706C656420706F6959
:1026B0006E74733A200020643A200020623A2000B1
:1026C00045716E20636F656666696369656E7473D4
:1026D0003A20613A20003474682070726F6265207D
:1026E000706F696E742C2064697374616E63652009
:1026F00066726F6D20706C616E653A200020284410
:10270000525952554E2900473239204175746F2075
:10271000426564204C6576656C696E67003F2028D1
:102720004C2C522C462C4229206F7574206F662049
:10273000626F756E64732E0A003F50726F6265207F
:10274000706F696E74732028592920697320696D30
:10275000706C61757369626C652028322D32292E88
:102760000A003F50726F626520706F696E7473204B
:1027700028582920697320696D706C6175736962CE
:102780006C652028322D32292E0A003F28562965F3
:1027900072626F7365206C6576656C206973206961
:1027A0006D706C61757369626C652028302D3429F9
:1027B0002E0A004E6F20436865636B73756D20773A
:1027C000697468206C696E65206E756D6265722C27
:1027D000204C617374204C696E653A200053544F4D
:1027E000505045442E20005072696E7465722073FB
:1027F000746F707065642064756520746F206572F5
:10280000726F72732E204669782074686520657235
:10281000726F7220616E6420757365204D3939398D
:1028200020746F20726573746172742E2028546551
:102830006D7065726174757265206973207265735D
:1028400065742E2053657420697420616674657206
:102850002072657374617274696E67290A004E6F25
:1028600020436865636B73756D2077697468206CAD
:10287000696E65206E756D6265722C204C61737493
:10288000204C696E653A2000636865636B73756DF3
:10289000206D69736D617463682C204C61737420C2
:1028A0004C696E653A20004C696E65204E756D620C
:1028B0006572206973206E6F74204C617374204CB4
:1028C000696E65204E756D6265722B312C204C61EE
:1028D0007374204C696E653A20004D313130004DE3
:1028E00033310053442072656164206572726F72E7
:1028F0000A00446F6E65207072696E74696E67209D
:1029000066696C650A0020496E76616C69642065B1
:10291000787472756465722000000040C00000A0E9
:10292000C0000000000000234300004043000037C7
:1029300043486F6D65202573257325732066697282
:102940007374002066697273740A005A0059005843
:1029500000486F6D652000486F6D696E6720666185
:10296000696C65640047322F4733206261642070D0
:102970006172616D65746572730A004572726F727F
:102980002077726974696E6720746F2045455052D4
:102990004F4D210A00454550524F4D2064617461EE
:1029A00073697A65206572726F722E0A00290A00B7
:1029B0002062797465733B206372632000536574F1
:1029C00074696E67732053746F7265642028007C8D
:1029D0003C3E5E2B3D3F2F5B5D3B2C2A225C00453D
:1029E0007874727564657220004175746F20686F29
:1029F0006D6500473238004D6F7665205A004D6F87
:102A000076652059004D6F76652058004D6F7665CC
:102A10006D656E7400436F6F6C646F776E00466116
:102A20006E2073706565640046616E207370656525
:102A3000640042656400426564004E6F7A7A6C659A
:102A4000004E6F7A7A6C65004D61696E0056547263
:102A50006176206D696E005654726176206D696EE4
:102A6000005654726176206D696E00566D696E0075
:102A7000566D696E00566D696E00566D6178204521
:102A800000566D6178204500566D617820450056EE
:102A90006D6178205A00566D6178205A00566D613C
:102AA00078205A00566D6178205900566D61782063
:102AB0005900566D6178205900566D617820580094
:102AC000566D6178205800566D61782058004D6F22
:102AD00074696F6E00416D6178204500416D6178C9
:102AE000204500416D6178205A00416D6178205A7F
:102AF00000416D6178205900416D61782059004195
:102B00006D6178205800416D6178205800412D7426
:102B1000726176656C00412D74726176656C00415E
:102B20002D7265747261637400412D7265747261F7
:102B3000637400416363656C00416363656C004DC1
:102B40006F74696F6E0056652D6A65726B0056650D
:102B50002D6A65726B0056652D6A65726B00567A38
:102B60002D6A65726B00567A2D6A65726B00567914
:102B70002D6A65726B0056792D6A65726B00567905
:102B80002D6A65726B0056782D6A65726B005678F7
:102B90002D6A65726B0056782D6A65726B004D6FF9
:102BA00074696F6E004573746570732F6D6D0045A9
:102BB00073746570732F6D6D005A73746570732F25
:102BC0006D6D005A73746570732F6D6D0059737459
:102BD0006570732F6D6D005973746570732F6D6D13
:102BE000005873746570732F6D6D00587374657041
:102BF000732F6D6D004D6F74696F6E004F666600C8
:102C00004F6E2000456E6473746F702061626F7246
:102C1000740053746570732F6D6D004A65726B009C
:102C2000416363656C65726174696F6E0056656CB3
:102C30006F636974790050726F6265205A204F6625
:102C40006673657400416476616E636564205365E4
:102C50007474696E67730043616E6E6F7420656E85
:102C6000746572207375626469723A2000022E2EB8
:102C7000004D61696E00004578747275646564206A
:102C8000746F74616C3A2000256C642E25696D00A8
:102C9000004C6F6E67657374206A6F622074696D93
:102CA000653A200000546F74616C207072696E7414
:102CB0002074696D653A2000436F6D706C657465B2
:102CC000643A20005072696E7420436F756E743AD6
:102CD00020004D36303020423020542564004D37DE
:102CE000303120542564004D373032203B256400BC
:102CF0004D373032205425640000060900FE0601DD
:102D00008902FE20FFFE07FE06FE00000006000707
:102D1000010606060200808080800080030303060F
:102D20000103A0A0A00507070600FF5050F850F8C7
:102D300050500509090600FE2070A8A07028A87050
:102D4000200608080600FF40A8481020485408053F
:102D500007070600FF6090906098906801030306E3
:102D600002038080800207070602FF408080808087
:102D700080400207070602FF804040404040800537
:102D800005050600008850F8508805050506000076
:102D90002020F820200204040602FEC040408005E6
:102DA0000101060002F8020202060200C0C0040689
:102DB000060601001010204080800406060601006F
:102DC00060909090906003060606010040C040406D
:102DD00040E00406060601006090102040F0040662
:102DE00006060100F020601010E00506060600004F
:102DF00010305090F810040606060100F080E01034
:102E000010E00406060601006080E0909060040671
:102E100006060100F01010204040040606060100DE
:102E200060906090906004060606010060909070CB
:102E30001060020505060200C0C000C0C0020707FE
:102E40000602FEC0C000C040408005050506000027
:102E50001860806018050303060001F800F80505F6
:102E600005060000C0300830C004070706010060F6
:102E70009010604000400506060600007090A8B063
:102E80008070050606060000205088F88888050630
:102E900006060000F088F08888F0040606060100A7
:102EA000609080809060040606060100E09090909B
:102EB00090E0040606060100F080E08080F0040641
:102EC00006060100F080E08080800406060601000E
:102ED000609080B090600406060601009090F0902B
:102EE0009090030606060100E040404040E00506E1
:102EF0000606000038101010906004060606010057
:102F000090A0C0A0909004060606010080808080FA
:102F100080F005060606000088D8A8A88888040660
:102F20000606010090D0B0909090050606060000BD
:102F3000708888888870040606060100E09090E09A
:102F400080800407070601FF609090D0B0601004F5
:102F50000606060100E09090E09090040606060147
:102F600000609040209060050606060000F82020D2
:102F700020202004060606010090909090906004A6
:102F80000606060100909090F060600506060600B7
:102F9000008888A8A8D88805060606000088502062
:102FA000205088050606060000888850202020044E
:102FB0000606060100F010204080F0030606060118
:102FC00000E080808080E0040606060100808040EA
:102FD000201010030606060100E020202020E00556
:102FE00003030600032050880501010600FEF802D5
:102FF000020206020480400404040601007090905E
:10300000700406060601008080E09090E00404044D
:103010000601007080807004060606010010107022
:1030200090907004040406010060B0C070040606AD
:10303000060100205040E040400406060601FE6004
:1030400090907010600406060601008080E0909069
:10305000900306060601004000C04040E003080857
:103060000601FE200060202020A040040606060184
:10307000008080A0C0A090030606060100C040406A
:103080004040E0050404060000D0A8A88804040419
:10309000060100E090909004040406010060909006
:1030A000600406060601FEE09090E08080040606BB
:1030B0000601FE709090701010040404060100A038
:1030C000D0808004040406010070C030E0040606CD
:1030D0000601004040E04050200404040601009036
:1030E0009090700404040601009090606005040450
:1030F00006000088A8A8500404040601009060603F
:10310000900406060601FE909090709060040404FE
:10311000060100F02040F0030707060100204040B0
:10312000804040200107070602FF80808080808069
:1031300080030707060100804040204040800402D1
:103140000206010350A0FFFFFFFFFFFFFFFFFFFF8D
:10315000FFFFFFFFFFFFFFFFFFFFFFFFFFFFFFFF7F
:10316000FFFFFFFFFFFFFF0000000600070106064C
:103170000602008000808080800406060601FF2091
:1031800070A0A070200507070600FF304840F040FF
:1031900040F8050505060000A8508850A805060659
:1031A0000600008850F820F8200107070602FF807B
:1031B0008080008080800407070601FF7080609097
:1031C0006010E0030101060105A0060707060000E4
:1031D000788494A494847803050506010160A060B6
:1031E00000E00505050600002850A0502804030350
:1031F000060100F01010040101060102F0060707A5
:103200000600007884B4A4A48478040101060105B2
:10321000F00403030601026090600507070600FF43
:103220002020F8202000F803050506010140A02019
:1032300040E0030505060101C0204020C002020253
:1032400006020440800405050601FF9090B0D0807E
:1032500005060606000078E8E8682828010101064E
:103260000202800202020602FE40800305050601FA
:103270000140C04040E003050506010140A04000B8
:10328000E0050505060000A0502850A00508080626
:1032900000FF40C04050703078100508080600FF5D
:1032A00040C04050680810380508080600FFC020DC
:1032B0004030F0307810040707060100200020603D
:1032C0008090600507070600004020205070888825
:1032D00005070706000010202050708888050707A2
:1032E000060000205020507088880507070600005F
:1032F00028502050708888050707060000500020DD
:1033000050708888050707060000205020507088FC
:103310008805060606000078A0F0A0A0B8040808FA
:103320000601FE609080809060204004070706013F
:10333000004020F080E080F00407070601002040F4
:10334000F080E080F00407070601002050F080E0E4
:1033500080F00407070601005000F080E080F003D1
:1033600007070601008040E0404040E003070706F1
:1033700001002040E0404040E00307070601004014
:10338000A0E0404040E0030707060100A000E04045
:103390004040E00506060600007048E84848700412
:1033A000070706010050A090D0B0909004070706D0
:1033B0000100402060909090600407070601002003
:1033C00040609090906004070706010020506090D4
:1033D00090906004070706010050A06090909060F4
:1033E00004070706010050006090909060050505F5
:1033F00006000088502050880408080601FF10705D
:10340000B0B0D0D0E08004070706010040209090C3
:103410009090600407070601002040909090906013
:103420000407070601002050909090906004070761
:10343000060100500090909090600507070600007C
:103440001020885020202004060606010080E0900D
:1034500090E0800406060601006090A0A090A00401
:1034600007070601004020007090907004070706CF
:1034700001002040007090907004070706010020B2
:1034800050007090907004070706010050A0007073
:103490009090700406060601005000709090700431
:1034A0000707060100205020709090700504040664
:1034B000000070A8B0780406060601FE70808070D7
:1034C000204004070706010040200060B0C07004DF
:1034D000070706010020400060B0C070040707061F
:1034E000010020500060B0C07004060606010050C4
:1034F0000060B0C070030707060100804000C040B4
:1035000040E0030707060100204000C04040E00300
:10351000070706010040A000C04040E00306060681
:103520000100A000C04040E0040707060100306031
:10353000107090906004070706010050A000E09012
:1035400090900407070601004020006090906004FE
:1035500007070601002040006090906004070706FE
:1035600001002050006090906004070706010050A1
:10357000A000609090600406060601005000609074
:1035800090600505050600002000F80020040404F2
:1035900006010070B0D0E0040707060100402000DB
:1035A00090909070040707060100204000909090D2
:1035B00070040707060100205000909090700406E8
:1035C000060601005000909090700409090601FE63
:1035D0002040009090907090600408080601FE80E2
:1035E00080E09090E080800408080601FE50009082
:1035F000909070906000060900FE0000000000013D
:10360000090008FE000005080806000040F0C88810
:1036100088987810050808060000C0F8888888880F
:1036200088F80505050600012030F8302005080857
:103630000600002070F820202020E005090906007F
:10364000FF2070A8A8B8888870200509090600FF27
:10365000E080C0B0A8283028280509090600FFF836
:10366000A88888888888A8F8050A0A0600FE2050DD
:1036700050505088A8A8887003030306000340A098
:103680004000060900FE0701920321207FFF07FF8B
:1036900007FF000000060000010707060200808007
:1036A0008080800080030202060105A0A0050707B4
:1036B0000600005050F850F850500507070600006B
:1036C0002078A07028F020050707060000C0C81069
:1036D000204098180507070600006090A040A890B9
:1036E00068020303060104C04080030707060100C7
:1036F0002040808080402003070706010080402092
:103700002020408005050506000120A870A820059E
:1037100005050600012020F820200203030602FF11
:10372000C04080050101060003F802020206020003
:10373000C0C00505050600010810204080050707E8
:1037400006000070888888888870030707060100D3
:1037500040C040404040E005070706000070880870
:10376000708080F8050707060000F8102010080890
:10377000F005070706000010305090F810100507FC
:1037800007060000F880F0080888700507070600A3
:1037900000708080F0888870050707060000F80830
:1037A00010202020200507070600007088887088F8
:1037B000887005070706000070888878080870027E
:1037C0000505060200C0C000C0C00206060602FFD2
:1037D000C0C000C0408004070706000010204080E1
:1037E000402010050303060002F800F8040707064E
:1037F000010080402010204080050707060000706F
:103800008808102000200507070600007088086857
:10381000A8A870050707060000708888F8888888BF
:10382000050707060000F08888F08888F00507077C
:1038300006000070888080808870050707060000F9
:10384000F08888888888F0050707060000F88080DF
:10385000F08080F8050707060000F88080F080807F
:1038600080050707060000708880B8888870050703
:1038700007060000888888F88888880107070602FC
:103880000080808080808080050707060000381057
:1038900010101090600507070600008890A0C0A0D7
:1038A0009088050707060000808080808080F805EA
:1038B000070706000088D8A88888888805070706B3
:1038C00000008888C8A89888880507070600007047
:1038D000888888888870050707060000F08888F0C7
:1038E00080808005070706000070888888A8906897
:1038F000050707060000F08888F0A09088050707F4
:10390000060000788080700808F0050707060000B0
:10391000F82020202020200507070600008888883E
:10392000888888700507070600008888888888507E
:10393000200507070600008888888888A8500507A2
:103940000706000088885020508888050707060071
:103950000088888850202020050707060000F80806
:1039600010204080F8030707060100E08080808077
:1039700080E00505050600018040201008030707C8
:10398000060100E02020202020E0050303060004BB
:10399000205088050101060000F802020206020517
:1039A000804005050506000070087888780507073F
:1039B0000600008080B0C88888F005050506000074
:1039C00070808088700507070600000808689888DE
:1039D00088780505050600007088F88070050707DF
:1039E0000600003048E0404040400506060600FF63
:1039F0007088887808700507070600008080B0C8C6
:103A00008888880107070602008000808080808007
:103A10000308080601FF200020202020A040040702
:103A200007060000808090A0C0A090030707060151
:103A300000C04040404040E0050505060000D0A819
:103A4000A8A8A8050505060000B0C888888805054F
:103A50000506000070888888700506060600FFF0DD
:103A60008888F080800506060600FF788888780838
:103A700008050505060000B0C8808080050505061C
:103A8000000070807008F00407070600004040E066
:103A90004040403005050506000088888898680584
:103AA00005050600008888885020050505060000E9
:103AB0008888A8A850050505060000885020508871
:103AC0000506060600FF8888887808700505050643
:103AD0000000F8102040F8030707060100204040CE
:103AE000804040200107070602008080808080809F
:103AF0008003070706010080404020404080050207
:103B0000020600026890000000060000010508009F
:103B1000FF060121023520FFFF07FF06FF090050C5
:103B2000221656808080800080153353A0A0A0020A
:103B300057575050F850F850500257572070A07007
:103B400028702013355580A040A02002475740A080
:103B5000A040A0A05025135380808012265640809C
:103B6000808080401226568040404040800245556B
:103B70009060F060900255552020F82020113353BA
:103B8000604080044151F011335340E040024656FA
:103B900010102040808012365640A0A0A0A04012F5
:103BA000365640C0404040E002465660901060806B
:103BB000F0024656F020601090600246562060A049
:103BC000F02020024656F080E010906002465660D9
:103BD00080E0909060024656F0102020404002465F
:103BE00056609060909060024656609090701060B1
:103BF000122555C0C000C0C011365660600060403C
:103C000080123656204080804020034353F000F05D
:103C100012365680402020408012365640A0204068
:103C20000040015858304898A8A8904030024656A5
:103C3000609090F09090024656E090E09090E00204
:103C40004656609080809060024656E0909090903A
:103C5000E0024656F080E08080F0024656F080E0B8
:103C6000808080024656609080B0906002465690F8
:103C700090F0909090123656E040404040E002466E
:103C80005670202020A04002465690A0C0A0A090D0
:103C90000246568080808080F002465690F0F09078
:103CA000909002465690D0F0B0B090024656609088
:103CB00090909060024656E09090E08080014757D7
:103CC000609090D0B06010024656E09090E09090E6
:103CD000024656609040209060123656E0404040C8
:103CE00040400246569090909090600246569090C8
:103CF00090906060024656909090F0F09002465688
:103D00009090606090900256568888502020200243
:103D10004656F010204080F0123656E080808080B9
:103D2000E0024656808040201010123656E02020D7
:103D30002020E016325240A0014151F0162252805C
:103D400040024454709090700246568080E09090FB
:103D5000E0123454608080600246561010709090DB
:103D60007002445460B0C060024656205040E040AB
:103D70004001455560907010600246568080E0908A
:103D800090901236564000C04040E0113757200056
:103D9000202020A040024656808090E0909012366D
:103DA00056C040404040E0025454D0A8A8A8024465
:103DB00054E090909002445460909060014555E02A
:103DC00090E080800145557090701010024454A01E
:103DD000D0808012345460C020C00246564040E07B
:103DE00040502002445490909070123454A0A0A0EF
:103DF0004002545488A8A850024454906060900136
:103E000045559090709060024454F02040F0024775
:103E100057304020C020403022165680808080805D
:103E200080024757C02040304020C006425250A078
:103E3000FFFFFFFFFFFFFFFFFFFFFFFFFFFFFFFF92
:103E4000FFFFFFFFFFFFFFFFFFFFFFFFFFFFFFFF82
:103E5000FF0900502216568000808080800146565F
:103E60002070A0A070200246562050E04050A002D2
:103E7000555588705070880256568850F820F820A2
:103E8000221757808080008080800247577080E032
:103E9000907010E0173151A002565670A8C8C8A8FB
:103EA0007014355560A06000E003435350A05012D9
:103EB0003353E02020143151E002565670E8D8E820
:103EC000D870173151E015335340A040123555409A
:103ED000E04000E014355540A02040E0143555C0C6
:103EE00020C020C01622524080014555909090E09D
:103EF0008002565678E8E86828282411518011225B
:103F000052408014355540C04040E014355540A023
:103F10004000E0034353A050A0024757808080A098
:103F200060F0200247578080A0D0102070024757D1
:103F300080408060A0F02012365640004080A040B3
:103F400002475740206090F0909002475720406011
:103F500090F0909002475760906090F090900247E8
:103F60005750A06090F0909002475790006090F0FA
:103F7000909002475760906090F090900246567083
:103F8000A0A0F0A0B00147576090808090604002F0
:103F900047574020F080E080F00247572040F080F3
:103FA000E080F00247576090F080E080F0024757D1
:103FB0009000F080E080F01237578040E0404040B1
:103FC000E01237572040E0404040E012375740A011
:103FD000E0404040E0123757A000E0404040E0029F
:103FE00056567048E848487002475750A090D0B0E5
:103FF0009090024757402060909090600247572071
:104000004060909090600247576090609090906000
:1040100002475750A0609090906002475790006010
:1040200090909060123353A040A002465670B0B0FA
:10403000D0D0E002475740209090909060024757C0
:1040400020409090909060024757609090909090A0
:104050006002475790009090909060025757102050
:10406000885020202002465680E09090E080024652
:10407000566090A0A090A0024757402000709090FA
:1040800070024757204000709090700247572050B0
:10409000007090907002475750A00070909070028E
:1040A0004656500070909070024757609060709034
:1040B0009070025454F068B078113555608080607B
:1040C0004002475740200060B0C060024757204080
:1040D0000060B0C06002475760900060B0C06002EE
:1040E0004656500060B0C060123757804000C04054
:1040F00040E0123757204000C04040E012375740A0
:10410000A000C04040E0123656A000C04040E0028F
:104110004757A040A01070906002475750A000E0A1
:10412000909090024757402000609090600247575F
:10413000204000609090600247576090006090902F
:104140006002475750A00060909060024656900071
:10415000609090601235554000E000400244547079
:10416000B0D0E0024757402000909090700247572F
:10417000204000909090700247576090009090907F
:104180007002465690009090907001485820400070
:1041900090907090600147578080E090E0808001AF
:1041A00047579000909070906001050700FE050051
:1041B000FB01F220FFFE05FE05FE02004002152570
:1041C0008080800080053242A0A002556550F850E2
:1041D000F8500146562070C030E02002556590101E
:1041E00020404802556560806890680512228080F2
:1041F0000225354080808040022535804040408047
:10420000043343A040A003334340E0400122324046
:1042100080043141E00211218002556508102040E0
:10422000800245556090909060022535C040404026
:1042300040024555E0106080F0024555E0106010E6
:10424000E00245552060A0F020024555F080E010C6
:10425000E00245556080E09060024555F010204036
:104260004002455560906090600245556090701026
:1042700060031323800080021424800080800235B4
:10428000452040804020033343E000E00235458074
:1042900040204080024555E01060004002556570A6
:1042A00088B8A870024555609090F090024555E09E
:1042B00090E090E00235456080808060024555E0E6
:1042C000909090E0023545E080E080E0023545E0E6
:1042D00080E080800245557080B090700245559016
:1042E00090F09090023545E0404040E00245553066
:1042F0001010906002455590A0C0A09002354580F6
:10430000808080E002556588D8A88888024555904D
:10431000D0B090900245556090909060024555E075
:104320009090E08001465660909090601002455554
:10433000E09090E09002455570806010E0023545B5
:10434000E0404040400245559090909060024555B5
:104350009090A0A04002556588A8A8A85002455595
:104360009090609090024555909070106002354595
:10437000E0204080E0022535C0808080C002556585
:104380008040201008022535C0404040C005324220
:1043900040A0024151F00522328040024454709006
:1043A000907002455580E09090E002344460808037
:1043B00060024555107090907002445460B0C06027
:1043C0000235452040E04040004656709090701005
:1043D0006002455580E09090900215258000808015
:1043E0008000273740004040404080024555809083
:1043F000A0E0900215258080808080025464F0A89F
:10440000A8A8024454E090909002445460909060B8
:10441000004656E09090E080800046567090907084
:104420001010023444A0C0808002445470C030E0B8
:1044300002354540E0404020024454909090700284
:1044400044549090A040025464A8A85050023444B0
:10445000A04040A0004656909090701060024454D6
:10446000F02040F002354560408040600215258014
:1044700080808080023545C0402040C005425250B7
:10448000A0FFFFFFFFFFFFFFFFFFFFFFFFFFFFFF9B
:10449000FFFFFFFFFFFFFFFFFFFFFFFFFFFFFFFF2C
:1044A000FFFF020040FFFFFFFFFFFFFFFFFFFFFFD7
:1044B000FFFFFFFFFFFFFFFFFFFFFFFFFFFFFFFF0C
:1044C000FFFFFFFFFFFFFFFFFFFFFFFFFFFFFFFFFC
:1044D000FFFFFFFFFFFFFFFFFFFFFFFFFFFFFFFFEC
:1044E000FFFFFFFFFFFFFFFFFFFFFFFFFFFFFFFFDC
:1044F000FFFFFFFFFFFFFFFFFFFFFFFFFFFFFFFFCC
:10450000FFFFFFFF01060D00FE09016602D620FF36
:10451000FE0BFE0AFE0D00602219698080808080FB
:1045200080800080183363A0A0A00357675050F824
:1045300050F850500259692078A0A0702828F02027
:1045400002596948A85010204050A890025868406D
:10455000A0A040A0989068281363808080113B6BD6
:104560002040408080808080404020113B6B804014
:1045700040202020202040408006556520A870A8BB
:10458000200455652020F820201133636040800608
:104590005161F811336340E0400259690808101076
:1045A000204040808002596920508888888888503F
:1045B000200259692060A02020202020F80259699B
:1045C0007088880810204080F8025969F808102087
:1045D0007008088870025969101030505090F81017
:1045E00010025969F88080B0C808088870025969BB
:1045F00070888080F088888870025969F8081010E7
:1046000020204040400259697088888870888888D6
:10461000700259697088888878080888701138682D
:1046200040E040000040E04011386840E0400000B9
:104630006040800259690810204080402010080422
:104640005464F80000F802596980402010081020D6
:104650004080025969708888081020200020025983
:104660006970888898A8A8B0807802596920508815
:104670008888F8888888025969F04848487048480E
:1046800048F0025969708880808080808870025963
:1046900069F048484848484848F0025969F880801D
:1046A00080F0808080F8025969F8808080F08080F6
:1046B000808002596970888080809888887002594B
:1046C0006988888888F888888888123969E0404035
:1046D0004040404040E0025969381010101010105E
:1046E0009060025969888890A0C0A090888802597B
:1046F000698080808080808080F80259698888D8AD
:10470000A8A88888888802596988C8C8A8A89898DD
:1047100088880259697088888888888888700259D2
:1047200069F0888888F080808080015A6A70888863
:1047300088888888A87008025969F0888888F0A05D
:104740009088880259697088808070080888700293
:104750005969F820202020202020200259698888CB
:104760008888888888887002596988888888505025
:1047700050202002596988888888A8A8A8A85002D3
:104780005969888850502050508888025969888813
:1047900050502020202020025969F8081010204095
:1047A0004080F8113B6BE08080808080808080803A
:1047B000E0025969808040402010100808113B6BCE
:1047C000E0202020202020202020E00853632050DB
:1047D00088015161F82A226280400256667008788A
:1047E000889868025969808080F088888888F002FB
:1047F0005666708880808870025969080808788831
:10480000888888780256667088F8808870025969AE
:1048100030484040F04040404000586870888888E8
:1048200078088870025969808080B0C88888888834
:104830001238684000C040404040E0004A6A100022
:10484000301010101090906002596980808090A004
:10485000C0A09088123969C040404040404040E0CC
:10486000025666D0A8A8A8A888025666B0C888884C
:104870008888025666708888888870005868F08832
:104880008888F08080800058687888888878080850
:1048900008025666B0C880808080025666708860C4
:1048A0001088700258684040F0404040483002563E
:1048B000668888888898680256668888885050205C
:1048C0000256668888A8A8A85002566688502020FC
:1048D00050880058688888889868088870025666EA
:1048E000F810204080F8015B6B1820202020C020A9
:1048F000202020182219698080808080808080801C
:10490000015B6BC0202020201820202020C00853ED
:104910006348A890FFFFFFFFFFFFFFFFFFFFFFFFC0
:10492000FFFFFFFFFFFFFFFFFFFFFFFFFFFFFFFF97
:10493000FFFFFFFFFF0D006022196980008080806B
:10494000808080800358682070A8A0A0A8702002F2
:10495000596930484040E0404048B003566688708E
:104960005050708802596988885050F820F82020EB
:10497000221969808080800080808080124A6A606D
:104980009080609090601090601A3262A0A00359ED
:10499000697088A8D8C8D8A8887004576770087844
:1049A000887800F80356662850A0A0502804536366
:1049B000F80808163161E00359697088E8D8D8E82A
:1049C000D888700A5161F81744646090906003576A
:1049D000672020F8202000F807356540A02040E03F
:1049E00007356540A04020C02A22624080005868F8
:1049F0008888888898E8808002596978E8E8E8E83B
:104A000068282828262161C0202262408007356559
:104A100040C04040E0045767708888887000F80301
:104A20005666A050282850A0025A6A40C04040E074
:104A30000818283808025A6A40C04040E010280888
:104A40001038025A6A40A04020A0481828380802AE
:104A50005969200020204080888870025A6A4020CE
:104A60000020508888F88888025A6A102000205058
:104A70008888F88888025A6A30480020508888F868
:104A80008888025A6A28500020508888F88888024E
:104A90005A6A50500020508888F88888025A6A2044
:104AA000502020508888F8888802596958A0A0A012
:104AB000B0E0A0A0B8005B6B7088808080808088A8
:104AC000702040025A6A402000F88080F08080F810
:104AD000025A6A102000F88080F08080F8025A6A3A
:104AE000304800F88080F08080F8025A6A50500008
:104AF000F88080F08080F8123A6A804000E0404000
:104B0000404040E0123A6A204000E04040404040CF
:104B1000E0124A6A609000E04040404040E0123AB3
:104B20006AA0A000E04040404040E0025969F048DF
:104B30004848E8484848F0025A6A2850008888C81F
:104B4000A8988888025A6A402000708888888888D7
:104B500070025A6A10200070888888888870025A0B
:104B60006A30480070888888888870025A6A28509D
:104B70000070888888888870025A6A50500070884F
:104B800088888888700355658850205088015B6B41
:104B900008709898A8A8A8C8C87080025A6A4020CF
:104BA0000088888888888870025A6A10200088885F
:104BB0008888888870025A6A30480088888888887F
:104BC0008870025A6A5050008888888888887002E5
:104BD0005A6A1020008888502020202002596980BD
:104BE000F0888888F0808080025969609090A0A049
:104BF000908888B0025969402000700878889868C9
:104C00000259691020007008788898680259693044
:104C10004800700878889868025969285000700820
:104C200078889868025969505000700878889868A8
:104C3000025A6A30483000700878889868025666D0
:104C4000702870A0A85000586870888080887020F4
:104C5000400259694020007088F8808870025969C4
:104C60001020007088F88088700259693048007000
:104C700088F88088700259695050007088F88088E0
:104C800070123969804000C040404040E0123969EC
:104C9000204000C040404040E0124969609000C0A0
:104CA00040404040E0123969A0A000C04040404070
:104CB000E0025A6A50206010708888888870025913
:104CC00069285000B0C88888888802596940200047
:104CD00070888888887002596910200070888888D8
:104CE0008870025969304800708888888870025935
:104CF000692850007088888888700259695050006F
:104D0000708888888870035767202000F80020206A
:104D1000015868087098A8A8C87080025969402096
:104D200000888888889868025969102000888888D7
:104D3000889868025969304800888888889868028D
:104D40005969505000888888889868005B6B1020EB
:104D5000008888889868088870005A6A8080B0C87F
:104D60008888C8B08080005B6B5050008888889825
:104D700068088870000000000000000000000000CB
:104D80000000000000000000000000000000000023
:104D9000000000000000000C000000000000000CFB
:104DA00000000000000000120000000000000023CE
:104DB0000000000000000021000000000000004C86
:104DC000800000000000005E8000000000000092F3
:104DD00040000000000000A1400000000000012190
:104DE000200000000000027F900000000000020090
:104DF00010000000000007FFF800000000000400A1
:104E00000800000000000800040000000000080086
:104E10000600000000001000020000000000301E2C
:104E2000010000000000207F81000000000041FF21
:104E3000E0800000000043FCF08000000000873BA1
:104E40007840000000018EDBFC60000000010FEBE9
:104E5000CC20000000021FEDB610000000021FDE93
:104E6000B6100000000439CD7F080000000436E0D1
:104E7000FF08000000087EC0BB84000000187F000F
:104E80005D86000000107FC0ED82000000203CC065
:104E90007301000000203B337F01000000701BE71E
:104EA0007E03800000C81DEEDE04C00000880FDE17
:104EB000DC04400001240FDF3C092000012607DB51
:104EC000F8192000027203E7F0139000025101FF6D
:104ED000E02290000489007F802448000904801E9D
:104EE000004824000BFE400000DFF40010004000EA
:104EF000008002001FFFFFFFFFFFFE000000000018
:104F000000000000000000000000000000000000A1
:104F1000000000001022103C3C0E1F001022100464
:104F2000221104001022100822110400102210087F
:104F30003C11040010221010221104001022102035
:104F4000221104001E1C1E3C3C0E04000000000048
:104F50000000000000000000000000000000000051
:104F60000000000000000000000000000000000041
:104F70000000000000000000000000000000000031
:104F80000000000000000000000000000000000021
:104F90000000000000000000000000000000000011
:104FA0000000000000000000000000000000000001
:104FB0000000253164002532640025336400253467
:104FC00064002535640025366400304848302020D0
:104FD0002020001A00252020002520004368616E53
:104FE00067652066696C616D656E740050726568F6
:104FF00065617420437573746F6D005072656865E8
:10500000617420437573746F6D00507265686561DB
:105010007420414253005072656865617420504CA1
:1050200041004D61696E005052494E542050415527
:1050300053454400554E4C4F41442046494C414D48
:10504000454E54004C4F41442046494C414D454E3D
:1050500054005075726765206D6F726500456E640F
:105060002066696C616D656E74206368616E67654A
:10507000000020204E6F7A7A6C653A2000636861E8
:105080006E6765006F66207468652066696C616D87
:10509000656E74005761697420666F722073746165
:1050A00072740020204E6F7A7A6C653A20002000DE
:1050B00066696C616D656E7420756E6C6F616400FD
:1050C0005761697420666F720020204E6F7A7A6C87
:1050D000653A20002000506C656173652077616936
:1050E000742E2E2E0048656174696E67206E6F7A8B
:1050F0007A6C650020204E6F7A7A6C653A20002029
:105100000068656174206E6F7A7A6C652E0050724B
:1051100065737320627574746F6E20746F00202045
:105120004E6F7A7A6C653A2000746F20636F6E74EC
:10513000696E75652E2E2E00616E64207072657327
:105140007320627574746F6E00496E73657274209B
:1051500066696C616D656E740020204E6F7A7A6CA2
:10516000653A2000200066696C616D656E74206C84
:105170006F6164005761697420666F720020204E71
:105180006F7A7A6C653A2000200066696C616D6503
:105190006E74207075726765005761697420666F60
:1051A0007200506C6561736520776169742E000030
:1051B00048617264636F6465642044656661756C00
:1051C000742053657474696E6773204C6F616465F5
:1051D000640A002823000028230000C8000000E81B
:1051E0000300000000964300009643000096430031
:1051F0000020420000C8420000C8420000484300AE
:1052000000D2433A0A0020286D6D290020204D3934
:1052100030360020204D3931330020204D393134D3
:105220000020204D36303320002055004C004669C8
:105230006C616D656E74206C6F61642F756E6C6F40
:105240006164206C656E677468733A0A0020204DB3
:10525000393030204B004C696E65617220416476B4
:10526000616E63653A0A0020590020580053656E4C
:10527000736F726C65737320686F6D696E672074ED
:1052800068726573686F6C643A0A00205A0020598E
:10529000002058004879627269642054687265730E
:1052A000686F6C643A0A00205A00205900205800A8
:1052B00053746570706572206472697665722063DC
:1052C000757272656E743A0A0020204D38353120AF
:1052D0005A005A2D50726F6265204F66667365746E
:1052E0000020440020490020204D3330342050005D
:1052F00020440020490020204D3330312050005000
:1053000049442073657474696E67733A0A002046D5
:105310000020420020480020204D31343520530029
:105320004D6174657269616C206865617475702087
:10533000706172616D65746572733A0A0020204D68
:105340003432302053004175746F20426564204C24
:105350006576656C696E673A0A00205A002059002C
:1053600020204D323036205800486F6D65206F6622
:10537000667365743A0A00204500205A00205900DF
:1053800020580020540020530020204D323035207A
:10539000420020453C6D61785F655F6A65726B3ED7
:1053A0000020583C6D61785F785F6A65726B3E20C3
:1053B000593C6D61785F795F6A65726B3E205A3C3B
:1053C0006D61785F7A5F6A65726B3E0041647661F9
:1053D0006E6365643A20423C6D696E5F7365676D0C
:1053E000656E745F74696D655F75733E20533C6DC7
:1053F000696E5F66656564726174653E20543C6DDC
:10540000696E5F74726176656C5F66656564726112
:1054100074653E0020540020520020204D3230346C
:10542000205000416363656C65726174696F6E2022
:1054300028756E6974732F7332293A20503C70724C
:10544000696E745F616363656C3E20523C72657483
:10545000726163745F616363656C3E20543C747277
:105460006176656C5F616363656C3E0A0020450090
:10547000205A0020590020204D3230312058004D54
:105480006178696D756D20416363656C65726174E7
:10549000696F6E2028756E6974732F7332293A0A0A
:1054A00000204500205A0020590020204D32303382
:1054B0002058004D6178696D756D20666565647270
:1054C000617465732028756E6974732F73293A0AA5
:1054D00000204500205A0020590020204D3932205C
:1054E000580053746570732070657220756E69740E
:1054F0003A0A0020204D3230302044300A0020206B
:105500004D3230302044002044697361626C656420
:105510000A0046696C616D656E7420736574746908
:105520006E67733A0020204D3134392043203B20F0
:10553000556E69747320696E2043656C7369757369
:105540000A002020473231202020203B0043616E9A
:105550006E6F74206F70656E20737562646972205F
:10556000006563686F3A00453120544845524D410B
:105570004C2052554E415741590042454420544811
:1055800045524D414C2052554E41574159005468A7
:1055900065726D616C2052756E61776179000000F3
:1055A0002100240027002A002D00300033000101D3
:1055B0000000040107010A01010210202008081060
:1055C0002040102040800201020108040201010273
:1055D000040810204080804020100804020180044C
:1055E00002018040201008040201080402010102A7
:1055F00004081020408001020408102040800505A6
:105600000505070508080808020202020A0A080838
:105610000404040401010101010101010303030366
:1056200003030303040707070C0C0C0C0C0C0C0CF5
:105630000202020206060606060606060B0B0B0B06
:105640000B0B0B0B290A002062797465733B2063F6
:10565000726320002073746F7265642073657474C4
:10566000696E677320726574726965766564202857
:1056700000202863616C63756C6174656429210A7C
:105680000020213D2000454550524F4D20435243BC
:10569000206D69736D61746368202D202873746FA9
:1056A0007265642920002053697A653A2000496EAA
:1056B0006465783A2000204D61726C696E3D563504
:1056C00035290A0028454550524F4D3D004545506B
:1056D000524F4D2076657273696F6E206D69736DE0
:1056E000617463682000556E6B6E6F776E20636F18
:1056F0006D6D616E643A202200486F74656E64209F
:10570000746F6F20636F6C640A0000000A0B02095B
:105710000C0D0E080703040100000000000000004B
:105720000000000000000000000000000000000079
:105730000000000000001211100000000000000036
:105740000000000000000000000000000000000059
:1057500050726F62696E67206661696C65640A00E9
:1057600050726F62696E67206661696C65640020C3
:105770005A3A200020593A200042656420583A20C5
:1057800000526573656E643A20002042002050008C
:105790006F6B0020746F6F206C6F6E67206578747C
:1057A000727573696F6E2070726576656E7465646C
:1057B0000A0020636F6C6420657874727573696F7A
:1057C0006E2070726576656E7465640A0000100163
:1057D0006EAB11241FBECFEFD1E2DEBFCDBF00E024
:1057E0000CBF13E0A0E0B2E0E2E0F7E902E00BBF9B
:1057F00002C007900D92A038B107D9F728E1A0E8C0
:10580000B3E001C01D92A535B207E1F71BE2C8EE77
:10581000DBE200E006C021970109802FFE010F9412
:10582000F24AC73ED10780E00807A9F70E941F543B
:105830000D94704B0C9400003F924F925F926F92C8
:105840007F928F929F92AF92BF92CF92DF92EF9210
:10585000FF920F931F93CF93DF93CDB7DEB7C15461
:10586000D1090FB6F894DEBF0FBECDBF382E81E050
:1058700080933F0F9091E80E9D3409F49CC39435BA
:1058800011F40C94BA3F973411F00C94FE3F209120
:10589000E60E3091E70E2A31310509F4C6C19CF4B9
:1058A000243031053CF4223031050CF04CC037FF78
:1058B00026C07DC32430310509F44EC02C3031059B
:1058C00009F489C074C32E31310509F42EC23CF4A9
:1058D0002C31310509F4E2C10CF4ADC1E4C12B3522
:1058E000310509F4F5C22C35310509F4F5C22A3524
:1058F000310509F05CC3109288030C94004080913C
:105900002002882311F40C9400408AE50E9486BE90
:10591000482F89E522964FAF22970E9486BE682FB6
:1059200088E521966FAF21970E9486BE22964FADE3
:10593000229721966FAD21970E9414D881110C9463
:1059400000400C94084081E02230310509F080E0ED
:105950000E94C6D80C94004080E50E94CDBE8823EA
:1059600029F00E940FBE6B017C0103C0C12CD12C19
:10597000760183E50E94CDBE882361F00E944FBE70
:1059800020E030E04AE754E40F94FE430F944C4982
:105990006B017C010E94C16C80911C06811105C0C5
:1059A00060E087EA92E00E94CCBF0E940C4BC60EDA
:1059B000D71EE81EF91E0E940C4BDC01CB018C198E
:1059C0009D09AE09BF09B7FD02C00C94004080E0FC
:1059D0000E9417ADF0CF41E061E081E00E9414D851
:1059E00081110C94004080E50E94CDBE882321F0F7
:1059F0000E941FBE162F01C010E083E50E94CDBE9D
:105A0000882321F00E941FBE4B0103C0BCE08B2EF7
:105A1000912C84E50E94CDBE81110E941FBE82E5BB
:105A20000E94CDBE882329F00E944FBE2B013C016D
:105A300006C0412C512CA0ED6A2EA0E47A2E113024
:105A400011F40C940040123009F08DC080E090E019
:105A5000A4E3B2E489839A83AB83BC8380E090E0C3
:105A6000A0E3B3E48D839E83AF83B88780E090E0AA
:105A7000A0E8BFE389879A87AB87BC87882011F4A9
:105A80000C94004018A219A21AA21BA2CE01809663
:105A90006C01E12CF12C00E81FE320E030E040E352
:105AA00053E460E070E084E392E40E94BFDEF12CF6
:105AB00000E010E018A219A21AA21BA2B801012E40
:105AC000000C880B990B0F949F432CE739ED40E2B3
:105AD0005FE30F94FE435B016C010F94DC48A3016C
:105AE00092010F94FE4320E030E040E353E40F9432
:105AF00003486CA77DA78EA79FA7C601B5010F9489
:105B0000644AA30192010F94FE4320E030E044E395
:105B100052E40F94034868AB79AB8AAB9BABAE0100
:105B2000405E5F4FBE01645D7F4FCE01C0960E9414
:105B3000E5DF0F5F1F4F0A30110509F0BBCFF3946B
:105B4000F81408F4B5CF18A219A21AA21BA2AE012C
:105B5000405E5F4FBE016B5F7F4FCE0101960E949A
:105B6000E5DF0C94004080E090E0A6EEB2E489838B
:105B70009A83AB83BC8340E050E060E373E44D83E1
:105B80005E836F83788780E090E0A0E8BFE3898739
:105B90009A87AB87BC8700E010E024E332E408A3D7
:105BA00019A32AA33BA34CA35DA36EA37FA388A73D
:105BB00099A7AAA7BBA71CA61DA61EA61FA6FE01E5
:105BC000BC966F017C018D019A01AB0160E070E031
:105BD00084E392E40E94BFDE99249594879410E0B8
:105BE000812F90E08815990514F00C9400401CA6B4
:105BF0001DA61EA61FA6AE01445D5F4FBE016B5FD2
:105C00007F4FCE0101960E94E5DF1CA61DA61EA6B1
:105C10001FA6AE01445D5F4FBE016C5D7F4FCE019C
:105C200080960E94E5DF1F5FDBCF809320021092F9
:105C300033060C94004041E061E081E00E9414D8FA
:105C400081110C94004080E090E0A0E2B1E48983EF
:105C50009A83AB83BC8380E090E0A6E3B3E48D83BA
:105C60009E83AF83B88780E090E0A0EAB1E48987A3
:105C70009A87AB87BC8780E50E94CDBE882319F048
:105C80000E941FBE01C060E068A3BE016F5F7F4F2E
:105C9000CE0180960E945BF40C94004080E00E944C
:105CA00054D40C94004080E00E94CFD713E001E070
:105CB0001092FE171092FF17109200181092011800
:105CC0000093E60324982C9A149A0E94A7C4109279
:105CD000E603249A2C9814988091EC11882351F0B3
:105CE0008091EC11882369F08EE293E00E9431AC40
:105CF0000C9400408EE593E00E9431AC1150C1F647
:105D0000EFCFE5E4F3E084918F010F5F1F4F88230D
:105D100021F00E94F1F4F801F6CF8FEB92E00E949F
:105D200031AC80EB92E00E94AAACC0901B18D090DE
:105D30001C18E0901D18F0901E1888E50E94CDBE3A
:105D4000811108C020E030E0A901C701B6010F941D
:105D5000034802C00E944FBE68A379A38AA39BA3F5
:105D6000C0901F18D0902018E0902118F0902218B1
:105D700089E50E94CDBE811108C020E030E0A90174
:105D8000C701B6010F94034802C00E944FBE9B0199
:105D9000AC0169837A838B839C8368A179A18AA1F2
:105DA0009BA10E941AAB882311F40C94004080E060
:105DB0000E94CFD70E94A0DE85E40E94CDBE88233A
:105DC00021F00E9440BE182F04C085E40E9486BEC8
:105DD00011E086E50E94CDBE882321F00E941FBEFF
:105DE000262F01C021E0412FBE016F5F7F4FCE0102
:105DF00080960F94AB396B017C019B01AC010F9431
:105E0000AF4A81115FC048A059A06AA07BA020E0E2
:105E100030E0A901C301B2010F94994387FD05C089
:105E200027E137EB41E558E304C027E137EB41E5D3
:105E300058EBC301B2010F940348AB01BC0188E5E4
:105E400094E00E94CE7F49805A806B807C8020E065
:105E500030E0A901C301B2010F94994387FD05C049
:105E600027E137EB41E558E304C027E137EB41E593
:105E700058EBC301B2010F940348AB01BC0183E5A9
:105E800094E00E94CE7F20E030E0A901C701B60176
:105E90000F94994387FD05C027E137EB41E558E3AF
:105EA00004C027E137EB41E558EBC701B6010F9479
:105EB0000348AB01BC018EE494E00E94CE7F8AE0EF
:105EC0000E94F1F40E9487DE0E94EA820C94004056
:105ED000809388030C94004081EC92E09FAF8EAFDA
:105EE0000BE118E1E2E0F8E1FDAFECAF812C912C81
:105EF000A12CEEADFFAD8191FFAFEEAF0E94CDBE04
:105F00008823D9F10E944FBE2B013C01F3E0AF166C
:105F100051F0ECADFDAD20813181428153810F9470
:105F200002482B013C01F8012081318142815381DB
:105F3000C301B2010F9402486B017C012DEB37E3E2
:105F400046E855EB0F94294A87FD0AC02DEB37E34D
:105F500046E855E3C701B6010F94994318166CF44F
:105F6000F3E0AF1619F09924939402C08824839427
:105F7000F8014082518262827382A3940C5F1F4FAA
:105F80008CAD9DAD04969DAF8CAF94E0A912B1CFBE
:105F9000992019F00E94C8BD06C0882021F087E230
:105FA00098E10F94DF380E94EA820C9400400F942D
:105FB000C03C0C9400408091E60E9091E70E8D3726
:105FC000910509F481C50CF024C18E34910509F4C2
:105FD00042C40CF092C08A31910509F42BC3ECF550
:105FE0008431910509F4C5C27CF48131910509F42D
:105FF000B5C22CF4029708F437C20C94B73F42970D
:1060000009F46FC50C94B73F8731910509F4F8C2C4
:1060100074F48531910509F4EFC2469711F00C94A0
:10602000B73F10920415109205150C94004088316A
:10603000910509F4FBC2499711F00C94B73F1092F7
:1060400004150E94A04B8CE994E090930406809381
:1060500003060E9469BD0C9400408032910509F44A
:1060600073C37CF58D31910511F40C94004064F4F8
:106070008B31910509F4ECC24C9711F00C94B73FA9
:106080000E942A8B0C9400408E31910509F458C36C
:106090004F9711F00C94B73F0E946D4B68A379A302
:1060A0008AA39BA3BE016F5F7F4FCE0180960E94A3
:1060B000B54360E0CE0101960E9406C0E1E6F5E539
:1060C0004BC38B34910509F4BEC354F48A32910555
:1060D00009F458C38934910509F4A8C30C94B73F57
:1060E0008C34910509F4B3C38D34910511F00C94EF
:1060F000B73F0E94B44B0C9400408D36910509F4D3
:10610000BDC4E4F58535910509F4EFC4C4F48235C6
:10611000910509F4DDC44CF48135910511F00C941E
:10612000B73F0E94E6840C9400408335910509F442
:10613000D3C48435910509F4D4C40C94B73F89368F
:10614000910509F491C46CF48C35910509F4D1C41E
:106150008836910511F00C94B73F0E94138A0C9475
:1061600000408A36910509F4ABC48B36910511F0D5
:106170000C94B73F0E949D890C940040853791058F
:1061800009F41DC5F4F48137910509F469C46CF470
:106190008E36910509F460C48F36910511F00C9488
:1061A000B73F0E9499850C9400408237910509F40D
:1061B000A4C48337910511F00C94B73FEBE6F6E0E9
:1061C000A2C48837910509F457C5C4F486379105F0
:1061D00009F406C58737910511F00C94B73F81E0AB
:1061E0008093E60324982C9A149A0E9417431092E5
:1061F000E603249A2C9814980C9400408937910552
:1062000009F441C58A37910511F40C94853B0C942F
:10621000B73F8139E1E09E0709F427C60CF090C032
:10622000833D910509F462C50CF042C0883C91059C
:1062300009F433C5C4F48139910509F42AC534F44D
:106240008C38910509F41EC40C94B73F8B39910525
:1062500009F410C48E3B910511F00C94B73F0E94D5
:1062600020860C9400408C3C910509F41EC56CF40A
:10627000893C910509F415C58B3C910511F00C94EE
:10628000B73F0E944F9B0C9400408D3C910509F450
:1062900010C58E3C910511F00C94B73F61ECC62EF1
:1062A00062E0D62E77EEE72E73E0F72E10E00CC5F5
:1062B0008D3221E0920709F429C504F5823E91054B
:1062C00009F41CC56CF48C3D910509F413C58D3D92
:1062D000910511F00C94B73F0E940F990C94004067
:1062E0008232F1E09F0709F40DC58C32914011F024
:1062F0000C94B73F0E94FA970C9400408033E1E081
:106300009E0709F4AAC574F48E3221E0920709F4BD
:10631000A0C58F32914011F00C94B73F0E94DA91E2
:106320000C9400408336F1E09F0709F49AC5803948
:10633000914011F00C94B73F0E94C16C0C94004046
:106340008835E2E09E0709F4C0C60CF045C0843FE2
:1063500021E0920709F499C604F5843AF1E09F0719
:1063600009F48AC564F48239914011F00C94B73F66
:1063700080E00E949FDF0E94EA820C940040893AEC
:10638000F1E09F0709F403C68C3A914011F00C9498
:10639000B73F0E949A900C940040873FE1E09E072F
:1063A00009F479C674F4853F21E0920709F470C6B8
:1063B000863F914011F00C94B73F0F946E1A0C94E5
:1063C0000040883FF1E09F0709F471C68C3192408C
:1063D00009F470C60C94B73F8F38E3E09E0711F4C0
:1063E0000C94FA3D0CF5843823E0920711F40C94D8
:1063F0002E3B6CF48B35F2E09F0711F40C943F3A7E
:106400008335934011F40C94C83A0C94B73F8A3802
:10641000E3E09E0711F40C94A03D8B38934011F4F7
:106420000C9400400C94B73F823923E0920711F49A
:106430000C94513F6CF48039F3E09F0711F40C94F5
:106440000F3E8139934011F40C94843E0C94B73F75
:10645000803AE3E09E0709F47BC1873E934011F444
:106460000C94A23F0C94B73F8090E40E9090E50E00
:1064700080E50E94CDBE882359F00E940FBE6B01BB
:106480007C0111E0672B682B692B31F410E004C00C
:1064900010E0C12CD12C760183E50E94CDBE88236B
:1064A00011F40C940D400E944FBE20E030E04AE70A
:1064B00054E40F94FE430F944C496B017C0111117D
:1064C0000BC0672B682B692B39F48114910421F0E0
:1064D000F4018081811102C010E001C011E00E942E
:1064E000C16C112329F061E0C4010E9406C005C0FF
:1064F00060E080E694E00E94CCBF83E080933F0F91
:1065000081E080930A10C114D104E104F104F1F098
:106510000E940C4BC60ED71EE81EF91E0E940C4BA3
:10652000DC01CB018C199D09AE09BF09B7FD06C07E
:106530000E94D24C10920A100C94004080910A10D4
:106540008823B1F380E00E9417ADE8CF80910A1054
:10655000882371F380E00E9417ADF8CF60E083E7F5
:1065600094E00E94CCBF17981698159814980C9434
:106570000040EBE8F4E084918F010F5F1F4F882308
:1065800021F00E94F1F4F801F6CF1092A81740E034
:1065900050E0BA018BE595E10F94F52E8BE1EBE528
:1065A000F5E1DE01159601900D928A95E1F7809153
:1065B000591590915A159C838B8382E693E09A83B8
:1065C000898340E050E0BE016F5F7F4F80E090E044
:1065D0000F949020CE0101960E948BABECE7F4E083
:1065E00084918F010F5F1F4F882311F40C9400409A
:1065F0000E94F1F4F801F4CF0E949C720C940040C8
:10660000E091E40EF091E50E8081882329F080323C
:1066100009F410823196F8CF40E061E08091E40EF9
:106620009091E50E0E945E700C9400400E94328BA7
:106630000C94004080910515882311F40C940040BF
:1066400083E50E94CDBE81110C9412400C94004051
:1066500083E40E9486BE882399F1EEECF4E08491F5
:106660008F010F5F1F4F882321F00E94F1F4F80182
:10667000F6CF8091F616882391F0BE016F5F7F4FB1
:1066800083EF96E10E940AF08E010F5F1F4FF80121
:1066900081918F01882379F00E94F1F4F8CFE1EA2B
:1066A000F4E084918F010F5F1F4F882321F00E9437
:1066B000F1F4F801F6CF8AE00E94F1F40C94004066
:1066C00080910515882371F180910415882351F17B
:1066D000EBEAF4E084918F010F5F1F4F882321F0D4
:1066E0000E94F1F4F801F6CF6091A4177091A517FC
:1066F0008091A6179091A7174AE00E9444F58FE277
:106700000E94F1F46091A0177091A1178091A217D7
:106710009091A3174AE00E9444F58AE00E94F1F4A8
:106720000C940040EDEBF4E084918F010F5F1F4F5C
:10673000882311F40C9400400E94F1F4F801F4CF86
:106740000E947A8A0C9400400E94398A0C9400407E
:106750000E942E8A0C94004084918F010F5F1F4F7E
:10676000882321F00E94F1F4F801F6CFBE016F5F9B
:106770007F4F8DED94E00E94BE808AE00E94F1F48C
:106780000C94004083E50E94CDBE882311F40C9444
:1067900000400E942FBEE82E80E50E94CDBE8111F0
:1067A00012C081E0E11001C080E08093E6038823FD
:1067B00029F024982C9A149A0C940040249A2C982E
:1067C00014980C94004080E50E94CDBE882339F0D7
:1067D0000E942FBE182F87FF03C00C9400401DE0BD
:1067E000EAEEF4E08DE28E0F9491191729F03196BC
:1067F0008E13FACF0C942340EFE2F2E184918F01E3
:106800000F5F1F4F882321F00E94F1F4F801F6CFAB
:10681000E7E1F5E084918F010F5F1F4F882311F4AA
:106820000C9400400E94F1F4F801F4CF809104151B
:1068300081110C94004080E50E9486BE81110C9469
:1068400037400C9400400E94214C0C9400400E9460
:10685000A04B0C94004083E50E94CDBE811103C083
:10686000E4E8F5E009C00E941FBE6E347105C1F76F
:106870000E94A5430C94004084918F010F5F1F4F2D
:10688000882321F00E94F1F4F801F6CFEBE7F5E060
:1068900084918F010F5F1F4F882321F00E94F1F434
:1068A000F801F6CF6091D3037091D40380E090E0BB
:1068B0004AE00E9444F5EEE6F5E084918F010F5F17
:1068C0001F4F882321F00E94F1F4F801F6CF609168
:1068D000D5037091D60380E090E04AE00E9444F531
:1068E000E3E6F5E084918F010F5F1F4F882321F0CD
:1068F0000E94F1F4F801F6CF6091D3037091D403B4
:106900008091D5039091D603681B790B8091D103B8
:10691000815021E030E0823010F020E030E0621B56
:10692000730B80E090E04AE00E9444F58AE00E9408
:10693000F1F4EBE5F5E084918F010F5F1F4F8823A1
:1069400021F00E94F1F4F801F6CF8091D7039091E5
:10695000D803A091D903B091DA0388A399A3AAA37D
:10696000BBA3BE016F5F7F4FCE0180960E94B543EF
:10697000EEE4F5E084918F010F5F1F4F811105C098
:10698000CE0101967C018C0104C00E94F1F4F80153
:10699000F1CFF80181918F01882319F00E94F1F461
:1069A000F8CF8091DB039091DC03A091DD03B091DF
:1069B000DE0388A399A3AAA3BBA3BE016F5F7F4F89
:1069C000CE0180960E94B543EEE3F5E084918F01FD
:1069D0000F5F1F4F882321F00E94F1F4F801F6CFDA
:1069E000F70181917F01882319F00E94F1F4F8CF1B
:1069F0008AE00E94F1F4E6E3F5E084918F010F5FF5
:106A00001F4F882321F00E94F1F4F801F6CFE6E24F
:106A1000F5E084918F010F5F1F4F882321F00E94C2
:106A2000F1F4F801F6CF20E030E04AE754E4609159
:106A3000DF037091E0038091E1039091E2030F94F2
:106A4000DF4842E00E94C4F58DE60E94F1F48AE03E
:106A50000E94F1F40C9400400E9410860C940040B7
:106A60000E9470850C9400400E94F68910923F0F9E
:106A70000C94DF400E94C8890C9400400E94DE877D
:106A80000C9400408091FD1783FF02C00C940040DD
:106A900083E50E94CDBE882311F40C9400400E942F
:106AA0004FBE0F9447496639710514F066E970E0EE
:106AB0007093B5086093B4080E94C27A0C940040A9
:106AC0000E94AC890C9400400E94DF9B0C94004013
:106AD000109287030C94004081E0809387030C940C
:106AE00000400E948D840C9400400E9475840C9498
:106AF00000400E94D7830C9400400E94C16C0E9409
:106B0000EA820C94004084918F010F5F1F4F88230D
:106B100021F00E94F1F4F801F6CF60E08BE596E0F9
:106B20000E94A68261E084E596E00E94A68261E070
:106B300089E496E00E94A68261E089E396E00E94E3
:106B4000A68260E080E396E00E94A68261E086E291
:106B500096E00E94A68261E08CE196E00E94A68207
:106B600061E084E196E00E94A68261E086E096E022
:106B70000E94A68261E088EF95E00E94A68260E014
:106B800089EE95E00E94A68260E08BED95E00E9480
:106B9000A68260E085EC95E00E94A68261E084EB2D
:106BA00095E00E94A68260E08FE995E00E94A682AF
:106BB00061E08CE895E00E94A6820C9400408091F0
:106BC000E40E9091E50EFC012081222329F060E083
:106BD0000E9406C00C9400400E94D24C0C940040CD
:106BE0000091E40E1091E50E83E0D12C40E081503D
:106BF000E1F0F8019081292F2B7F2134C1F7218109
:106C00002133A9F7913421F0953421F441E002C0F9
:106C1000DD24D39498012E5F3F4F89012F5F3F4FB2
:106C2000F80190819032C9F3E2CF442369F0E1E6A4
:106C3000F5E584917F012FEFE21AF20A882321F013
:106C40000E94F1F4F701F5CFDD2069F0ECE6F7E002
:106C500084917F019FEFE91AF90A882321F00E94AD
:106C6000F1F4F701F5CFF80181918F01882309F440
:106C700022CD0E94F1F4F7CF81E08093E40380936A
:106C8000E3030C9400401092E4031092E3030C948D
:106C900000400E94F9840C9400400E94969B0C9442
:106CA00000400E94719B0C9400400E94D89A0C9462
:106CB00000400E946E9A0C9400401F5FF4E0EF0EBB
:106CC000F11C133009F46FC9F60181916F010E9424
:106CD00086BE882391F30E944FBEF70160837183C3
:106CE00082839383812F0E9424E0E7CF0E949099B2
:106CF0000C9400400E9484990C9400400E94C49817
:106D00000C9400400E942F980C94004085E40E944F
:106D1000CDBE811110C080E50E9486BE882391F00F
:106D20000E944FBE6093DC117093DD118093DE11E1
:106D30009093DF1107C00E942FBE882361F3EFE21A
:106D4000F2E16FC089E40E9486BE882381F00E9430
:106D50004FBE2CEA35EC47E25EE30F94FE436093AE
:106D6000D8117093D9118093DA119093DB1184E4D8
:106D70000E9486BE882381F00E944FBE2CEA35EC2B
:106D800047E25EE30F94DF486093D4117093D5110E
:106D90008093D6119093D711E1E6F5E584918F01A8
:106DA0000F5F1F4F882321F00E94F1F4F801F6CF06
:106DB0004091DC115091DD116091DE117091DF1175
:106DC00088E797E00E94CE7F2CEA35EC47E25EE34D
:106DD0006091D8117091D9118091DA119091DB11E5
:106DE0000F94DF48AB01BC0184E797E00E94CE7F9F
:106DF0002CEA35EC47E25EE36091D4117091D51135
:106E00008091D6119091D7110F94FE43AB01BC0134
:106E100080E797E00E94CE7F8AE00E94F1F40C9414
:106E2000004084918F010F5F1F4F882321F00E9443
:106E3000F1F4F801F6CFECE7F7E084918F010F5FF2
:106E40001F4F882311F40C9400400E94F1F4F801C4
:106E5000F4CF0E9425970C9400400E947B970C94DD
:106E600000400E945B900C94004081E00E949FDFF4
:106E70000E94EA820C94004083E50E9486BE88232B
:106E800049F00E9440BE182F811106C080E00E9488
:106E9000CFD702C01091EC1180911B1890911C1853
:106EA000A0911D18B0911E1889839A83AB83BC836F
:106EB00080911F1890912018A0912118B09122184C
:106EC0008D839E83AF83B887809123189091241877
:106ED000A0912518B091261889879A87AB87BC871F
:106EE00086E50E9486BE882321F08BEB97E00F9405
:106EF000CD3B812F0E94CFD7111103C0E1E6F5E50C
:106F00001CC08091EC118111F9CFEFE2F2E1849184
:106F10008F010F5F1F4F882321F00E94F1F4F801C9
:106F2000F6CFECE9F7E084918F010F5F1F4F8823C4
:106F300029F30E94F1F4F801F6CF84918F010F5FDD
:106F40001F4F882321F00E94F1F4F801F6CF8091C1
:106F5000EC11811103C06DEB72E002C069EB72E0CD
:106F60008EE897E00E94BE808AE00E94F1F44CE037
:106F700050E06BE178E1CE0101960F94024B892B32
:106F800011F40C9400400E94EA820C9400408AE5BF
:106F90000E9486BE882329F180918103909182030B
:106FA000892B19F00E944FBE08C06091FE177091A6
:106FB000FF1780910018909101186093E505709378
:106FC000E6058093E7059093E80580E090E0A0E86F
:106FD000BFE38093E9059093EA05A093EB05B09396
:106FE000EC0586E40E9486BE882381F10E944FBE94
:106FF00020E030E040E85FE30F94294A18166CF473
:107000000E944FBE20E030E040E85FE30F94294A41
:10701000181684F00E944FBE11C00E944FBE20E09F
:1070200030E0A9010F94994387FFEACF60E070E058
:10703000CB0104C060E070E080E89FE36093E90565
:107040007093EA058093EB059093EC0583E50E942D
:1070500086BE882351F00E944FBE60931702709342
:1070600018028093190290931A028AE50E9486BE44
:107070008111C6C786E40E9486BE8111C1C783E51F
:107080000E9486BE8111BCC7FDC70E9414E4B8C728
:107090000F94D31BB5C783E50E9486BE882321F0D9
:1070A0000E9440BE91E089270F94EE13A9C70E9469
:1070B0007690A6C783E50E9486BE882309F4A0C700
:1070C0000E9440BE8093F9039BC780E090E0A0E25D
:1070D000B1E489839A83AB83BC8380E090E0A6E32C
:1070E000B3E48D839E83AF83B88780E090E0A0EA0D
:1070F000B1E489879A87AB87BC8788E592E00E94D4
:1071000064E081117DC76091AF080E942B7441E05B
:1071100061E081E00E9414D8882319F081E00E9488
:1071200054D485E40E9486BE882381F00E944FBE1D
:107130006B017C0120E030E0A9010F94294A87FF10
:107140000AC0F7FAF094F7F8F09405C0C12CD12CDE
:10715000E12C50E4F52EF7FAF094F7F8F094C8AE6D
:10716000D9AEEAAEFBAE8AE50E94CDBE882379F0A7
:107170008AE50E94CDBE882319F00E944FBE03C04D
:1071800060E070E0CB0169877A878B879C8788E510
:107190000E94CDBE882379F088E50E94CDBE882369
:1071A00019F00E944FBE03C060E070E0CB0169831C
:1071B0007A838B839C8389E50E94CDBE882379F0F6
:1071C00089E50E94CDBE882319F00E944FBE03C0FE
:1071D00060E070E0CB016D837E838F83988785E5C7
:1071E0000E9486BE882329F00E944FBE6B017C015D
:1071F0000CC0E091F91724E0E29FF0011124E4545F
:10720000FE4EC080D180E280F38020E030E0A90112
:10721000C701B6010F94294A87FF04C0F7FAF0941A
:10722000F7F8F094F7FAF094F7F8F094CCAADDAA06
:10723000EEAAFFAA18AA19AA1AAA1BAA8CE40E94ED
:1072400086BE882329F00E944FBE6B017C010CC0D2
:10725000E091F91784E0E89FF0011124E054FE4E1C
:10726000C080D180E280F38020E030E0A901C70136
:10727000B6010F94294A87FF04C0F7FAF094F7F893
:10728000F094CCA6DDA6EEA6FFA682E40E94CDBEB9
:10729000882321F00E941FBE162F01C01AE0009122
:1072A000D103809145088111E4C021E0AE014C5C1E
:1072B0005F4FBE016F5F7F4FCE01C8960E9436A818
:1072C000882309F4D6C06091F91782E00E942B74DC
:1072D000E1E6F5E584917F019FEFE91AF90A882339
:1072E00021F00E94F1F4F701F5CFEDE0F9E084918F
:1072F0007F012FEFE21AF20A882321F00E94F1F4B5
:10730000F701F5CF61E0812F0E94698B0E940C4B41
:10731000DC01CB0180529C46AB4FBF4F809382086B
:1073200090938308A0938408B09385081092451227
:1073300083E080933F0F81E080930A10DD24D39493
:1073400080910A10882309F47AC060E0812F0E949E
:10735000698B80914512882309F46DC06091F917FB
:1073600088E00E942B74E1E6F5E584917F019FEFB0
:10737000E91AF90A882321F00E94F1F4F701F5CF08
:10738000E6EEF8E084917F012FEFE21AF20A8823FB
:1073900021F00E94F1F4F701F5CF80910A108823C3
:1073A00021F081E00E9417ADF8CF10928208109270
:1073B00083081092840810928508109245120E944A
:1073C0000D7B0F94413C6091F91782E00E942B7471
:1073D000E1E6F5E584917F019FEFE91AF90A882338
:1073E00021F00E94F1F4F701F5CFEAEBF8E0849187
:1073F0007F012FEFE21AF20A811119C00E940C4B93
:10740000DC01CB0180529C46AB4FBF4F809382087A
:1074100090938308A0938408B09385081092451236
:10742000D0920A1061E0812F0E94698B04C00E94F3
:10743000F1F4F701DCCF81E00E9417AD81CF81E04C
:1074400080933F0F80E090E0A0EAB1E488A399A385
:10745000AAA3BBA380914508882359F0212FAE0130
:10746000405E5F4FBE01645D7F4FCE01C0960E94BB
:107470001DB0013009F0C4C50E94214CC1C58BE587
:1074800092E00E9464E08111BBC585E50E9486BE42
:107490008823D9F10091AF0810E00E944FBE6B0124
:1074A0007C0120E030E0A9010F94294A87FF04C045
:1074B000F7FAF094F7F8F094000F111F000F111F66
:1074C000F801E454FE4EC082D182E282F382009140
:1074D000AF0884E0089F8001112404541E4E20E070
:1074E00030E048E453E4F801608171818281938146
:1074F0000F94294A18164CF480E090E0A8E4B3E415
:10750000F80180839183A283B3838CE40E9486BEBA
:10751000882309F475C50091AF0810E00E944FBEA2
:107520006B017C0120E030E0A9010F94294A87FF1C
:1075300004C0F7FAF094F7F8F094000F111F000F51
:10754000111FF801E054FE4EC082D182E282F38224
:107550000091AF08F4E00F9F8001112400541E4EEB
:1075600020E030E048E453E4F801608171818281D9
:1075700093810F94294A18160CF042C580E090E0E0
:10758000A8E4B3E4F80180839183A283B38338C570
:107590008AE50E94CDBE882309F438C00E944FBE00
:1075A0006B017C0120E030E040E050EC0F94294A70
:1075B00087FD13C020E030E040EA50E4C701B60187
:1075C0000F94994318164CF0C0922B18D0922C1897
:1075D000E0922D18F0922E1813C5EFE2F2E184919B
:1075E0008F010F5F1F4F81110DC0EBE4F9E0849113
:1075F0008F010F5F1F4F882309F402C50E94F1F429
:10760000F801F5CF0E94F1F4F801E9CFE1E6F5E5E4
:1076100084918F010F5F1F4F882321F00E94F1F4A6
:10762000F801F6CFECE3F9E084918F010F5F1F4F73
:10763000882321F00E94F1F4F801F6CF40912B1835
:1076400050912C1860912D1870912E1889E399E0B3
:107650000E94CE7F8AE00E94F1F4D2C48BE40E94A3
:10766000CDBE8823B1F18BE40E94CDBE8823B1F05A
:107670000E944FBE6B017C0120E030E0A9010F9415
:10768000294A87FD19C020E030E040E251E4C701FB
:10769000B6010F94994318167CF003C0C12CD12C6D
:1076A00076010E94C16CC092C411D092C511E092C3
:1076B000C611F092C711A4C4E6E6F9E084918F01E7
:1076C0000F5F1F4F882309F49BC40E94F1F4F80157
:1076D000F5CFE1E6F5E584918F010F5F1F4F882319
:1076E00021F00E94F1F4F801F6CF4091C4115091BD
:1076F000C5116091C6117091C71185E899E00E948B
:10770000CE7F8AE00E94F1F47BC483E50E9486BEAE
:107710008823A1F00E9440BE80938303882309F44C
:107720006FC4E0E9F9E084918F010F5F1F4F882358
:1077300009F466C40E94F1F4F801F5CFE2E1FBE040
:1077400084918F010F5F1F4F882321F00E94F1F475
:10775000F801F6CF80E00E94BE8FE9E0FBE0849163
:107760008F010F5F1F4F882321F00E94F1F4F80171
:10777000F6CF81E00E94BE8FEDEFFAE084918F0199
:107780000F5F1F4F882321F00E94F1F4F801F6CF1C
:1077900082E00E94BE8FE1EFFAE084918F010F5FDB
:1077A0001F4F882321F00E94F1F4F801F6CF83E007
:1077B0000E94BE8FE5EEFAE084918F010F5F1F4FAC
:1077C000882321F00E94F1F4F801F6CF84E00E94B2
:1077D000BE8FE9EDFAE084918F010F5F1F4F882380
:1077E00021F00E94F1F4F801F6CF85E00E94BE8FEF
:1077F000ECECFAE084918F010F5F1F4F882321F09A
:107800000E94F1F4F801F6CF86E00E94BE8FE1EC11
:10781000FAE084918F010F5F1F4F882321F00E94AF
:10782000F1F4F801F6CF87E00E94BE8FE6EBFAE0B4
:1078300084918F010F5F1F4F882321F00E94F1F484
:10784000F801F6CF88E00E94BE8FEEEAFAE084915C
:107850008F010F5F1F4F882321F00E94F1F4F80180
:10786000F6CF89E00E94BE8FE2EAFAE084918F01B0
:107870000F5F1F4F882321F00E94F1F4F801F6CF2B
:107880008AE00E94BE8FEAE9FAE084918F010F5FDF
:107890001F4F882321F00E94F1F4F801F6CF8BE00E
:1078A0000E94BE8FE3E9FAE084918F010F5F1F4FC2
:1078B000882321F00E94F1F4F801F6CF8CE00E94B9
:1078C000BE8FE4E8FAE084918F010F5F1F4F882399
:1078D00021F00E94F1F4F801F6CF8DE00E94BE8FF6
:1078E000ECE7FAE084918F010F5F1F4F882321F0AE
:1078F0000E94F1F4F801F6CF8EE00E94BE8FE1E71E
:10790000FAE084918F010F5F1F4F882321F00E94BE
:10791000F1F4F801F6CF8FE00E94BE8FE3E5FAE0C4
:1079200084918F010F5F1F4F882321F00E94F1F493
:10793000F801F6CF80E10E94BE8FE9E4FAE084917D
:107940008F010F5F1F4F882321F00E94F1F4F8018F
:10795000F6CF81E10E94BE8FEEE3FAE084918F01C1
:107960000F5F1F4F882321F00E94F1F4F801F6CF3A
:1079700082E10E94BE8FEDE2FAE084918F010F5FF9
:107980001F4F882321F00E94F1F4F801F6CF83E124
:107990000E94BE8FE5E2FAE084918F010F5F1F4FD6
:1079A000882321F00E94F1F4F801F6CF84E10E94CF
:1079B000BE8FE5E1FAE084918F010F5F1F4F8823AE
:1079C00021F00E94F1F4F801F6CF85E10E94BE8F0C
:1079D000EBE0FAE084918F010F5F1F4F882321F0C5
:1079E0000E94F1F4F801F6CF80E00E945F8DEFEF86
:1079F000F9E084918F010F5F1F4F882321F00E94CF
:107A0000F1F4F801F6CF88E00E945F8DE4EFF9E031
:107A100084918F010F5F1F4F882321F00E94F1F4A2
:107A2000F801F6CF8BE00E945F8DEAEEF9E08491D9
:107A30008F010F5F1F4F882321F00E94F1F4F8019E
:107A4000F6CF8AE00E945F8DE4EEF9E084918F0129
:107A50000F5F1F4F882321F00E94F1F4F801F6CF49
:107A600081E00E945F8DEFEDF9E084918F010F5F5F
:107A70001F4F882321F00E94F1F4F801F6CF82E035
:107A80000E945F8DEAEDF9E084918F010F5F1F4F37
:107A9000882321F00E94F1F4F801F6CF83E00E94E0
:107AA0005F8DE4EDF9E084918F010F5F1F4F882314
:107AB00021F00E94F1F4F801F6CF84E00E945F8D7E
:107AC000EEECF9E084918F010F5F1F4F882321F0C6
:107AD0000E94F1F4F801F6CF85E00E945F8DE8EC9A
:107AE000F9E084918F010F5F1F4F882321F00E94DE
:107AF000F1F4F801F6CF86E00E945F8DE4ECF9E046
:107B000084918F010F5F1F4F882321F00E94F1F4B1
:107B1000F801F6CF87E00E945F8DE2EBF9E08491F7
:107B20008F010F5F1F4F882321F00E94F1F4F801AD
:107B3000F6CF8CE00E945F8D8AE00E94F1F460C273
:107B400089E40E94CDBE882321F00E942FBEF82E2A
:107B500001C0F12C21ECC22E22E0D22E01E010E077
:107B6000F60181916F010E94CDBE882339F10E94F8
:107B70001FBE6115710511F1123099F01330B9F083
:107B8000113031F0F1E0FF1550F082E394E105C0CF
:107B900021E02F1520F080EB93E10F94093800E0ED
:107BA0000DC0E1E0EF15D8F38EE293E1F6CF8AE85D
:107BB00093E00E9464E0882391F322C21F5F143097
:107BC00079F6002309F41CC26091B1147091B214CB
:107BD00080E00E94459060912F147091301481E0F4
:107BE0000E9445906091AD137091AE1382E00E94A7
:107BF000459006C26091381480E00E941F90609109
:107C0000B61381E00E941F906091341382E00E94BD
:107C10001F906091B21286E00E941F90F1C188E52A
:107C20000E9486BED82E89E50E9486BEE82E8AE58F
:107C30000E9486BEF82E85E40E9486BE082FD110D1
:107C400007C0E11005C0F11003C011E0182701C002
:107C500010E088E50E94CDBE882309F498C20E94F6
:107C60002FBE112331F01092381480E00E940E9044
:107C700006C08130C1F3DD2011F08A30A1F389E51F
:107C80000E94CDBE882309F485C20E942FBE112315
:107C900031F01092B61381E00E940E9006C0813040
:107CA000C1F3EE2011F08A30A1F38AE50E94CDBE27
:107CB000882309F472C20E942FBE112331F0109262
:107CC000341382E00E940E9006C08130C1F3FF2081
:107CD00011F08A30A1F385E40E94CDBE882309F417
:107CE0005FC20E942FBE112331F01092B21286E0C3
:107CF0000E940E9085C18823C1F3002309F480C13E
:107D00008A3009F07DC1F1CF89E40E94CDBE88237D
:107D100021F00E942FBEE82E01C0E12C91ECC92E6B
:107D200092E0D92E11E0F12CF60181916F010E94B1
:107D3000CDBE882309F46DC00E941FBE2B013C01FB
:107D4000672B682B692B09F464C0F2E0FF1681F100
:107D500023E0F21609F440C081E0F816A1F08E1578
:107D600008F456C060913F187091401880914118F6
:107D7000909142180F944C498B019C01B301A201D0
:107D800082E394E143C091E09E1508F441C0609104
:107D900043187091441880914518909146180F949B
:107DA0004C498B019C01B301A20180EB93E12EC0F1
:107DB000E1E0EE1568F160914718709148188091E4
:107DC000491890914A180F944C498B019C01B301BA
:107DD000A2018EE293E11AC081E993E00E9464E07F
:107DE00081110EC18091AF08811112C060914B18B2
:107DF00070914C1880914D1890914E180F944C49E9
:107E00008B019C01B301A2018CEA92E10E94E8ABD4
:107E100010E0F394F4E0FF1287CF112309F4F0C0CF
:107E200060913F18709140188091411890914218CC
:107E30000F944C49AB0160E082E394E10E9493AB64
:107E4000609143187091441880914518909146189C
:107E50000F944C49AB0161E080EB93E10E9493AB3E
:107E600060914718709148188091491890914A186C
:107E70000F944C49AB0162E08EE293E10E9493AB18
:107E800060914B1870914C1880914D1890914E183C
:107E90000F944C49AB0166E08CEA92E10E9493ABEF
:107EA000AFC089E40E94CDBE882321F00E942FBE7E
:107EB000F82E01C0F12C81ECC82E82E0D82E11E002
:107EC00000E0F60181916F010E9486BE882319F1BE
:107ED0000E941FBE603C7F4F44F00E941FBE603472
:107EE00071052CF40E941FBE03C060EC01C06FE35B
:107EF000002319F0013039F00DC021E02F1550F0AA
:107F000082E394E105C081E08F1520F080EB93E1DE
:107F10000E94B85A10E00F5F033099F6112309F45C
:107F20006FC082E394E10E94A35A682F80E00E9410
:107F3000EE8F80EB93E10E94A35A682F81E00E94AC
:107F4000EE8F5EC081E0809320021092330683E5BD
:107F50000E94CDBE882339F00E9440BE811150C0DE
:107F60000F94B83E4DC083E50E9486BEF7CF0F94B4
:107F7000C03C46C0F090E60E0E94C16CFF2029F183
:107F8000E1E6F5E584918F010F5F1F4F882321F013
:107F90000E94F1F4F801F6CF84E50E94F1F46F2D10
:107FA00070E080E090E04AE00E9444F580E20E94A8
:107FB000F1F4E6E2FBE084918F010F5F1F4F88230D
:107FC000F9F00E94F1F4F801F6CF1092F917E1E60A
:107FD000F5E584918F010F5F1F4F882321F00E94E8
:107FE000F1F4F801F6CF6091F91770E084E19BE0BD
:107FF0000E94A5808AE00E94F1F402C00F94C03C68
:1080000010923F0F332009F4DAC00F944C3ED7C0D2
:108010000E9445D60F94DD3CF3CF11110C946C32C5
:108020000C9465320E941FBEAB01BC014093A417A3
:108030005093A5176093A6177093A71783EF96E147
:108040000F94F52EDDCF61E0812F0E94CF496E2D78
:10805000812F0E940249F12CB701812F0E940B4A07
:10806000183071F6F092DE05E092DD05C9CF0E946E
:108070002FBE853620F084E680938003C1CF8093A5
:108080008003BECF4091FE175091FF1760910018FA
:10809000709101188DE998E00E94CE7F8AE00E94DD
:1080A000F1F48AE00E94F1F420E030E0A90160914F
:1080B000E5057091E6058091E7059091E8050F943C
:1080C000294A18160CF056C020E030E0A901609152
:1080D000E9057091EA058091EB059091EC050F940C
:1080E000294A18160CF046C0EBE5F8E084918F01A0
:1080F0000F5F1F4F882321F00E94F1F4F801F6CFA3
:108100004091E5055091E6056091E7057091E8051D
:1081100081E498E00E94CE7F8AE00E94F1F44091D1
:108120001702509118026091190270911A0287E2A9
:1081300098E00E94CE7F8AE00E94F1F44091E90528
:108140005091EA056091EB057091EC058DE098E0A7
:108150000E94CE7F8AE00E94F1F4E8EDF7E084917E
:108160008F010F5F1F4F882309F44ACF0E94F1F45B
:10817000F801F5CFEBE7F8E084918F010F5F1F4F17
:10818000882309F4BDCF0E94F1F4F801F5CF112343
:1081900051F069CD112351F07CCD112351F08FCDD9
:1081A000112351F0A2CDD1105ECD69CDE11071CD7A
:1081B0007CCDF11084CD8FCD011197CD21CFCF5B38
:1081C000DF4F0FB6F894DEBF0FBECDBFDF91CF916A
:1081D0001F910F91FF90EF90DF90CF90BF90AF90E5
:1081E0009F908F907F906F905F904F903F900895F9
:1081F000089580E00895CF92DF92EF92FF920F935F
:108200001F93CF93DF936C017A018B01C0E0D0E024
:10821000CE15DF0589F0D8016D918D01D601ED9164
:10822000FC910190F081E02DC6011995892B11F484
:108230007E0102C02196ECCFC701DF91CF911F9143
:108240000F91FF90EF90DF90CF900895089580E018
:1082500090E008950B96FC01849108950A96FC0124
:1082600084910895FC0184910895FCDF882321F016
:10827000823011F083E0089586E00895FC01E60F56
:10828000F11D849190E0982F88273196E4918E0F0C
:10829000911D089568E0F2CF66E0F0CFFC01A68161
:1082A000B7818281481B8581483018F0A80FB11D25
:1082B0004770382F369536953695562F577080E88B
:1082C00090E002C0959587955A95E2F7439F402D1F
:1082D0001124669566956695E62FF0E0E40FF11D92
:1082E000EA0FFB1F3081222311F0832B02C08095FF
:1082F000832380830895FB014181DC0112962C9138
:108300001297421760F013962C911397241738F0A8
:10831000608115962C91621710F42481BFCF0895C7
:10832000FC0180819281980F92832181921760F4E1
:1083300094819F5F94839381890F821710F08FEF50
:10834000820F838381E0089580E00895FC0112820A
:108350008081815083831482089581E00895089577
:1083600090E0FC013197E231F10508F04EC088271A
:10837000EE58FF4F8F4F0D94F24A809180008F7717
:1083800003C0809180008F7D80938000089580914C
:108390008000877FF9CF84B58F7702C084B58F7D49
:1083A00084BD08958091B0008F7703C08091B000A4
:1083B0008F7D8093B0000895809190008F7707C0E3
:1083C000809190008F7D03C080919000877F809383
:1083D000900008958091A0008F7707C08091A00041
:1083E0008F7D03C08091A000877F8093A0000895B7
:1083F000809120018F7707C0809120018F7D03C07D
:1084000080912001877F8093200108953FB7F894E1
:1084100080918E0390918F03A0919003B09191036E
:1084200026B5A89B05C02F3F19F00196A11DB11DCF
:108430003FBFBA2FA92F982F8827820F911DA11D0A
:10844000B11DBC01CD0142E0660F771F881F991F47
:108450004A95D1F708955A9887FD52C05B9800005D
:108460000000000000005A9A5A98282F220F86FD1B
:1084700053C05B9800000000000000005A9A5A9810
:10848000922F990F26FD46C05B9800000000000067
:1084900000005A9A5A98892F880F96FD39C05B9828
:1084A00000000000000000005A9A5A98982F990F77
:1084B00086FD2CC05B9800000000000000005A9A66
:1084C0005A98892F880F96FD1FC05B980000000006
:1084D000000000005A9A5A98982F990F86FD12C0F2
:1084E0005B9800000000000000005A9A5A9896FD20
:1084F00015C05B9800000000000000005A9A089523
:108500005B9AADCF5B9AEDCF5B9AE0CF5B9AD3CF0E
:108510005B9AC6CF5B9AB9CF5B9AACCF5B9AEACF36
:10852000FB014081518162817381FC014083518351
:108530006283738308958091E403811105C0809163
:10854000E603811101C0089590910601809199037D
:1085500092FD02C0816001C08E7F8093990390914B
:1085600006018091990397FD02C0806201C08F7D52
:1085700080939903809199031C9902C0846001C083
:108580008B7F80939903909100018091990394FFD0
:1085900002C0806401C08F7B809399038091AA0EF2
:1085A00080FF10C08091690E80FF0CC080919903FC
:1085B00080FF08C080911A18816080931A1880E0AB
:1085C0000E944E9E8091AA0E81FF10C08091690E7C
:1085D00081FD0CC08091990385FF08C080911A1815
:1085E000806280931A1881E00E944E9E8091AA0EAC
:1085F00082FF1CC08091690E82FF0CC08091E6034F
:108600008823A1F08091990382FF10C080911A18ED
:10861000846007C08091990386FF08C080911A1872
:10862000806480931A1882E00C944E9E0895CF9334
:10863000DF93E9ECFBE08491EF012196882321F0A0
:108640000E94F1F4FE01F7CFE1ECFBE08491EF0131
:108650002196882321F00E94F1F4FE01F7CF80914A
:10866000060182FF03C0C5ECD2E002C0CAECD2E032
:108670008991882319F00E94F1F4FACF8AE00E94D0
:10868000F1F4E9EBFBE08491EF012196882321F0DE
:108690000E94F1F4FE01F7CF8091060187FF03C02D
:1086A000C5ECD2E002C0CAECD2E08991882319F06F
:1086B0000E94F1F4FACF8AE00E94F1F4E1EBFBE0D2
:1086C0008491EF012196882321F00E94F1F4FE01AC
:1086D000F7CF1C9B03C0C5ECD2E002C0CAECD2E0CD
:1086E0008991882319F00E94F1F4FACF8AE00E9460
:1086F000F1F4E9EAFBE08491EF012196882321F06F
:108700000E94F1F4FE01F7CF8091000184FD03C0C7
:10871000C5ECD2E002C0CAECD2E08991882319F0FE
:108720000E94F1F4FACF8AE0DF91CF910C94F1F43A
:108730008091D203882341F040E150E063E370E090
:1087400083ED93E00D946747089581E08093D20311
:10875000E3EDF3E080E1DF011D928A95E9F7E8DFC0
:1087600066E182E390E00D9488474F925F926F92AA
:108770007F92AF92BF92CF92DF92EF92FF92CF9310
:10878000DF93EB01FC0160817181828193812CE395
:10879000C22ED12CE12CF12CA70196010F94A547F4
:1087A000B62EA72ECA01B901A70196010F94A547BD
:1087B0006B017C01CA01B90128E130E040E050E0E2
:1087C0000F94A5472B013C01C9016DE671E00F94A0
:1087D000CB4A61157105D9F0AF92BF92DF92CF926B
:1087E0005F924F929F938F937F936F9385E99BE066
:1087F0009F938F93DF93CF930F9432438DB79EB7A0
:108800000E960FB6F8949EBF0FBE8DBF61C0009745
:10881000C9F0AF92BF92DF92CF925F924F929F9337
:108820008F9385E89BE09F938F93DF93CF930F9473
:108830003243EDB7FEB73C960FB6F894FEBF0FBEBD
:10884000EDBF46C04114510461047104B9F0AF9208
:10885000BF92DF92CF925F924F9289E79BE09F9306
:108860008F93DF93CF930F9432438DB79EB70A96C1
:108870000FB6F8949EBF0FBE8DBF2AC0C114D1049D
:10888000E104F104A9F0AF92BF92DF92CF9281E7A9
:108890009BE09F938F93DF93CF930F943243EDB779
:1088A000FEB738960FB6F894FEBF0FBEEDBF10C0EE
:1088B000AF92BF928DE69BE09F938F93DF93CF9310
:1088C0000F9432430F900F900F900F900F900F90D6
:1088D000DF91CF91FF90EF90DF90CF90BF90AF905E
:1088E0007F906F905F904F900895CF92DF92FF92AC
:1088F0000F931F93CF93DF931F921F92CDB7DEB7D5
:108900006901DB0112960D911C911397423309F412
:1089100070C0B8F4453109F477C0473109F487C015
:10892000443109F09DC0D80115962C9115971696E3
:10893000ED91FC911797CF01820F911D820F911D30
:108940005CC0463409F483C0473409F484C04B3317
:1089500009F086C0F90181819381913029F093302B
:1089600031F4482F885004C048E0480F01C0482F18
:1089700021E0D80113963C91381708F420E031E04B
:10898000F8015281451708F430E051E0481708F02B
:1089900050E0822F852B382319F4252309F460C079
:1089A000D6011296FC90913051F030F0923049F09F
:1089B000933051F42FEF09C020E031E007C021E0EF
:1089C00004C020E03FEF02C020E030E0F7FE07C027
:1089D000B601C8012A8339838EDC39812A81F601E8
:1089E0008081830F80838181820F8183FF0C71F7E7
:1089F00037C0B901C8017FDC33C01192E817F9070D
:108A0000E1F7C801A3DC2CC0C8018ADC882349F146
:108A1000F80125810680F781E02DCF01820F911D9D
:108A2000820F911D1192E817F907E1F719C0D901DA
:108A30001C92F801828111968C9311978581815047
:108A400012968C931297838113968C9309C0D80148
:108A500015968C9103C0D80111968C91F6018083F4
:108A600081E00F900F90DF91CF911F910F91FF90B8
:108A7000DF90CF90089588E290E00197F1F7089594
:108A80002EE93FE0009729F0F9013197F1F70197BE
:108A9000F9CF08950F93FC010150040F84A996A902
:108AA000941718F0081728F402C0081750F004179C
:108AB00040F42150260F83A995A9961720F4281772
:108AC00020F480E007C0281720F481E0261710F07A
:108AD000F8CF81E00F910895DB01ED91FC9119949D
:108AE0002F923F925F926F927F928F929F92AF925E
:108AF000BF92CF92DF92EF92FF920F931F93CF938B
:108B0000DF931F92CDB7DEB71C01C62E142FD22ED5
:108B1000DC011496ED90FC901597C701A3DB082F9C
:108B2000F10184819581A1DB982E013019F48FE049
:108B3000A82E02C0AA24AA94D10114968D919C91CA
:108B400015978CDB082FF1018481958183DBB82E8A
:108B5000D10114968D919C9115979CDBB0E6BD15C3
:108B600030F4009721F0E80EF91E01E610C0F10183
:108B70008481958191DBF0E4FD1530F4009721F0BC
:108B8000E80EF91E01E403C021E1E20EF11CBD1460
:108B900080F4D10150961C92509753961C92539793
:108BA00054961C92549751961C92519752961C922F
:108BB000C3C0B01670F3892D90E0F70124912F3FC8
:108BC00021F4FFEFEF1AFF0A59C00D114EC0D10179
:108BD00014968D919C91159745DB97012F5F3F4F20
:108BE000F701882311F08230E1F48491D10153968A
:108BF0008C935397F901249154962C935497F70131
:108C00003396E4915096EC935097F7013496E491A3
:108C10005196EC935197F7013596E4915296EC9367
:108C200020C08491982F9F709250D10152969C93AE
:108C3000529782958F7051968C935197F901249198
:108C4000822F8F7054968C93549722952F70539641
:108C50002C935397F7013296E491E295EF7050967A
:108C6000EC93E114F10479F467C0F7013296E491D2
:108C7000EA219C012E0F311DE20EF31E0B1509F4A3
:108C800088CF0F5F9ACFF10184819581EEDAB82EFB
:108C9000D10153969C9053975496DC9054975196DB
:108CA0008C915197C80E52969C919D0D512E591A38
:108CB0000D2D292D452D6C2DC101ECDE8823C9F128
:108CC000C7018B0D911D5C0187E0890DF82EF6948C
:108CD000F694F694D50C41019CE1890E911C6F2C01
:108CE000712C5D1431F15C2D8501802F8A198F154F
:108CF000E0F4F8018491D10112966D917C91139763
:108D00005C965C935C975D965C925D975F961C9217
:108D10005F975E968C9394014BE3C1015983DCDE2F
:108D20000F5F1F4F5981585FE0CFA60CB71C5394BB
:108D3000D8CFF101808901C080E00F90DF91CF9101
:108D40001F910F91FF90EF90DF90CF90BF90AF9069
:108D50009F908F907F906F905F903F902F9008959D
:108D6000CF92DF92EF92FF920F931F93CF93DF93F7
:108D70001F92CDB7DEB76C01DC01DC961C91DC974D
:108D8000DB960C917C01B4E0EB0EF11CDC015996F2
:108D9000ED91FC915A97C70169831995482F410FAE
:108DA0002981602FC7019CDEF60123AD082E000C3F
:108DB000990B820F911D83AF81E090E00F90DF91BE
:108DC000CF911F910F91FF90EF90DF90CF9008957A
:108DD000EF92FF920F931F93CF93DF931F92CDB724
:108DE000DEB78C01DC011296ED90FC901397D196C2
:108DF000ED91FC91D29782E0199520E030E04AE0B5
:108E0000B701C80169DEF82ED801D196ED91FC9129
:108E1000D29783E01995D801D196ED91FC91D29724
:108E200080E01995FF2081F1F801628173819E0134
:108E30002F5F3F4F46E4C8014FDE8981D8018C93F4
:108E400012966D917C9113979E012F5F3F4F47E4DF
:108E5000C80142DE8981F80181836281738120E04B
:108E600030E048E4C80138DED8011B968C931B978C
:108E700098012D5C3F4F12966D917C91139747E1BD
:108E8000C8012ADE81E001C080E00F90DF91CF9120
:108E90001F910F91FF90EF900895FC0113821282B1
:108EA00088ED92E09183808313AE14AE15AE9F01DE
:108EB0002C5F3F4F1186108613861286158681E03F
:108EC000848782E28687138A128ADF019796CF0110
:108ED000C5964FEF4D93A817B907E1F791E094A31A
:108EE00049EF50E4528F418F938F148E158E80E49A
:108EF000868F178E88EF90E496AB85AB7783668379
:108F0000C90166CF1F920F920FB60F9211240BB6B4
:108F10000F922F933F934F935F936F937F938F9312
:108F20009F93AF93BF93EF93FF93E0910E02F09165
:108F30000F021995FF91EF91BF91AF919F918F9182
:108F40007F916F915F914F913F912F910F900BBE49
:108F50000F900FBE0F901F9018951F920F920FB693
:108F60000F9211240BB60F922F933F934F935F9361
:108F70006F937F938F939F93AF93BF93EF93FF93E1
:108F8000E0910C02F0910D021995FF91EF91BF91C4
:108F9000AF919F918F917F916F915F914F913F9191
:108FA0002F910F900BBE0F900FBE0F901F90189532
:108FB0001F920F920FB60F9211240BB60F922F93A0
:108FC0003F934F935F936F937F938F939F93AF9351
:108FD000BF93EF93FF93E0910202F0910302199582
:108FE000FF91EF91BF91AF919F918F917F916F9181
:108FF0005F914F913F912F910F900BBE0F900FBE3D
:109000000F901F9018951F920F920FB60F92112478
:109010000BB60F922F933F934F935F936F937F9372
:109020008F939F93AF93BF93EF93FF93E0910002D1
:10903000F09101021995FF91EF91BF91AF919F912E
:109040008F917F916F915F914F913F912F910F90F1
:109050000BBE0F900FBE0F901F9018951F920F928E
:109060000FB60F9211240BB60F922F933F934F938D
:109070005F936F937F938F939F93AF93BF93EF9380
:10908000FF93E0910A02F0910B021995FF91EF9185
:10909000BF91AF919F918F917F916F915F914F9110
:1090A0003F912F910F900BBE0F900FBE0F901F900E
:1090B00018951F920F920FB60F9211240BB60F92B4
:1090C0002F933F934F935F936F937F938F939F93D0
:1090D000AF93BF93EF93FF93E0910802F0910902E1
:1090E0001995FF91EF91BF91AF919F918F917F91D2
:1090F0006F915F914F913F912F910F900BBE0F9009
:109100000FBE0F901F9018951F920F920FB60F92DF
:1091100011240BB60F922F933F934F935F936F934E
:109120007F938F939F93AF93BF93EF93FF93E091C0
:109130000602F09107021995FF91EF91BF91AF914F
:109140009F918F917F916F915F914F913F912F915F
:109150000F900BBE0F900FBE0F901F9018951F928F
:109160000F920FB60F9211240BB60F922F933F93CD
:109170004F935F936F937F938F939F93AF93BF931F
:10918000EF93FF93E0910402F09105021995FF918E
:10919000EF91BF91AF919F918F917F916F915F916F
:1091A0004F913F912F910F900BBE0F900FBE0F90DC
:1091B0001F901895CF93DF93282F30E0F901E65FD9
:1091C000F84A8491F901E854FA4AD491F901E2503D
:1091D000FA4AC491CC2389F08111C2D8EC2FF0E077
:1091E000EE0FFF1FEE5AF44FA591B491EC91ED23D1
:1091F00081E090E021F480E002C080E090E0DF9127
:10920000CF9108951F93CF93DF93282F30E0F9017A
:10921000E65FF84A8491F901E854FA4AD491F901D9
:10922000E250FA4AC491CC23C1F0162F811198D88C
:10923000EC2FF0E0EE0FFF1FE85CF44FA591B49126
:109240008FB7F894111105C09C91ED2FE095E9239B
:1092500002C0EC91ED2BEC938FBFDF91CF911F916A
:1092600008951F920F920FB60F9211240BB60F9212
:109270002F933F934F935F936F937F938F939F931E
:10928000AF93BF93EF93FF938091950390919603D3
:10929000A0919703B0919803892B8A2B8B2B59F1BE
:1092A00080919403E0919203F09193039081892738
:1092B00080838091950390919603A0919703B0913C
:1092C0009803181619061A061B060CF055C0809153
:1092D000950390919603A0919703B09198030197FD
:1092E000A109B1098093950390939603A0939703E6
:1092F000B093980341C080911002ECE6FBE0E4914A
:109300009FEF90931002E230C9F050F4EE2399F0F1
:10931000E13081F590916F009D7F90936F002AC09E
:10932000E43019F1E0F0E53029F5909173009D7F6C
:10933000909373001FC010926E001CC0909170003B
:109340009D7F9093700091E09093B0009091B10058
:10935000987F94609093B1001092B3000BC09091ED
:1093600071009D7F9093710005C0909172009D7F68
:109370009093720060E046DFFF91EF91BF91AF9153
:109380009F918F917F916F915F914F913F912F911D
:109390000F900BBE0F900FBE0F901F901895CF939C
:1093A000DF9390E0FC01E854FA4A2491FC01E2507A
:1093B000FA4A8491882361F190E0880F991FFC019B
:1093C000E256FA4AC591D491FC01E85CF44FA591AC
:1093D000B491611109C09FB7F894888120958223C8
:1093E0008883EC912E230BC0623061F49FB7F89410
:1093F0003881822F809583238883EC912E2B2C93A8
:109400009FBF06C08FB7F894E8812E2B28838FBFAB
:10941000DF91CF9108951F93CF93DF93182FEB0126
:1094200061E0BDDF209711F460E004C0CF3FD105BB
:1094300031F461E0812FDF91CF911F91E3CEE12FD5
:10944000F0E0E65FF84AE4914E2F50E0FA013197E0
:10945000E231F10508F09DC08827EC57FF4F8F4F90
:109460000D94F24A84B5806884BDC7BD97C084B5A9
:10947000806284BDC8BD92C0809180008068809366
:109480008000D0938900C093880088C080918000BC
:10949000806280938000D0938B00C0938A007EC04E
:1094A00080918000886080938000D0938D00C0936D
:1094B0008C0074C08091B00080688093B000C0932D
:1094C000B3006CC08091B00080628093B000C09304
:1094D000B40064C080919000806880939000D09325
:1094E0009900C09398005AC0809190008062809348
:1094F0009000D0939B00C0939A0050C08091900040
:10950000886080939000D0939D00C0939C0046C0DB
:109510008091A00080688093A0008091A0008F7B44
:109520008093A000D093A900C093A80037C0809179
:10953000A00080628093A000D093AB00C093AA00EB
:109540002DC08091A00088608093A000D093AD00D2
:10955000C093AC0023C080912001806880932001DB
:10956000D0932901C093280119C080912001806205
:1095700080932001D0932B01C0932A010FC08091CA
:109580002001886080932001D0932D01C0932C018D
:1095900005C0C038D1050CF04CCF46CFDF91CF913C
:1095A0001F9108958F929F92AF92BF92CF92DF92B8
:1095B000EF92FF926B017C010E9406424B015C011D
:1095C000C114D104E104F104F1F00E940642DC016F
:1095D000CB0188199909AA09BB09883E9340A105C6
:1095E000B10570F321E0C21AD108E108F10888EE54
:1095F000880E83E0981EA11CB11CC114D104E104A3
:10960000F10419F7DDCFFF90EF90DF90CF90BF907E
:10961000AF909F908F9008952FB7F89460918A0330
:1096200070918B0380918C0390918D032FBF0895CF
:109630000F931F93CF93DF93EC01EEDF0E811F8119
:1096400028853985011511052105310581F52C8500
:109650002223F1F13A8521502C8721E0230F2A871C
:109660004D85241301C01A86FE0124E0329FE00DCF
:10967000F11D112406851785208931890A831B83F2
:109680002C833D83DC01CB01800F911FA11DB11DF7
:109690008E839F83A887B9878C819D81892BC1F098
:1096A00080910201809584708093000111C0DC01DB
:1096B000CB01801B910BA20BB30BB7FD09C08091AE
:1096C00002018470809300011E821F821886198611
:1096D000DF91CF911F910F9108950F931F93809168
:1096E000D103813011F498DF08C06091C9037091F3
:1096F000CA038091CB039091CC030091CD031091CC
:10970000CE032091CF033091D003601B710B820BED
:10971000930B28EE33E040E050E00F94A547809192
:10972000C5039091C603A091C703B091C803BC01C3
:10973000CD01620F731F841F951F1F910F91089514
:109740008091D103813071F482E08093D10364DF92
:109750006093C9037093CA038093CB039093CC03A7
:1097600081E0089580E00895CF92DF92EF92FF921A
:109770000F931F938091D1038150823010F080E0CD
:1097800059C01092D10348DF6093C9037093CA0394
:109790008093CB039093CC038091D5039091D60313
:1097A00001969093D6038093D503C090050FD09077
:1097B000060FE090070FF090080F8FDF6093050F02
:1097C0007093060F8093070F9093080F0091D703B3
:1097D0001091D8032091D9033091DA030C191D0997
:1097E0002E093F09DC01CB01800F911FA21FB31F7F
:1097F0008093D7039093D803A093D903B093DA034F
:109800006CDF0091DB031091DC032091DD033091CC
:10981000DE03061717072807390748F45EDF609351
:10982000DB037093DC038093DD039093DE030E94DF
:10983000984381E01F910F91FF90EF90DF90CF90C0
:109840000895CF93C091D103C13009F444C0C23010
:1098500051F443DF6093C5037093C6038093C7033D
:109860009093C80318C01092CD031092CE031092AB
:10987000CF031092D0031092C9031092CA03109222
:10988000CB031092CC031092C5031092C603109222
:10989000C7031092C80381E08093D103BDDE6093BB
:1098A000CD037093CE038093CF039093D003C23047
:1098B000A1F08091D3039091D40301969093D403A7
:1098C0008093D3031092050F1092060F1092070F8A
:1098D0001092080F02C080E001C081E0CF9108958E
:1098E0001F920F920FB60F9211242F933F938F93D5
:1098F0009F93AF93BF9380918A0390918B03A09124
:109900008C03B0918D033091890323E0230F2D3711
:1099100020F40196A11DB11D05C026E8230F029673
:10992000A11DB11D2093890380938A0390938B031B
:10993000A0938C03B0938D0380918E0390918F033D
:10994000A0919003B09191030196A11DB11D809348
:109950008E0390938F03A0939003B0939103BF91D4
:10996000AF919F918F913F912F910F900FBE0F90CC
:109970001F901895CF93DF9300D01F92CDB7DEB71D
:109980005C834B837A836983BE016D5F7F4FCE0119
:1099900001960E94DE730F900F900F900F90DF9151
:1099A000CF9108958091D1038230A9F09091041550
:1099B000992361F080911415811103C087E095E12E
:1099C00002C084E195E161E00C9406C0813031F081
:1099D00083EC9CE005C08DED9CE002C081ED9CE035
:1099E0006FEF0C94CCBF282F1092840F80914A12F5
:1099F00090914B12A0914C12B0914D128130904831
:109A0000A105B10540F010924A1210924B1210922B
:109A10004C1210924D128091790F882331F0809171
:109A20004A128093B811109247128091B9111816FA
:109A3000FCF4082E000C990B821B91092091B8119F
:109A4000022E000C330B2817390794F097FF02C041
:109A500080E090E08093B811092E000CAA0BBB0B9C
:109A600080934A1290934B12A0934C12B0934D12D4
:109A70008091B8116623A9F09091BA11891714F456
:109A80008093BA112091BA11022E000C330B2C5F77
:109A90003F4F482F082E000C550B241735071CF498
:109AA00084508093BA110895809148128630D8F47A
:109AB00096E0899FF0011124E656FC4F2091550253
:109AC000309156023183208340914A1250914B12BB
:109AD00060914C1270914D1242835383648375835D
:109AE0008F5F8093481208958BEF92E50D94EC1EE2
:109AF000E0914812EE2369F0E150E093481286E0CD
:109B0000E89FF0011124E656FC4F808191810D946D
:109B1000EC1EEACFCF92DF92EF92FF920F931F934A
:109B2000CF93DF9361E081E05EDFD091BA11C0E0B6
:109B300003EC1DE084EDE82E8DE0F82E9DE7C92EA4
:109B40009EE0D92ED1111FC08091B811882331F029
:109B500080915402882309F4B1C00CC080918A0F0F
:109B60008823B1F310928A0FC3DF809147128823B4
:109B700079F3ABC081E09091B811911180E024E0BD
:109B800041E85EE098C0D13029F58091B81181306C
:109B900031F080915402882309F490C011C0809163
:109BA0008A0F8823B1F310928A0FD0920406C092D4
:109BB00003060E9469BD80914712882351F385C036
:109BC00081E09091B811913009F080E020E243E704
:109BD0005EE071C0D23029F58091B811823031F049
:109BE00080915402882309F469C011C080918A0FC2
:109BF0008823B1F310928A0FF0920406E0920306D4
:109C00000E9469BD80914712882351F35EC081E0B4
:109C10009091B811923009F080E020E247EC5DE0CD
:109C20004AC0D33029F58091B811833031F080914A
:109C30005402882309F442C011C080918A0F8823FE
:109C4000B1F310928A0F10930406009303060E944A
:109C500069BD80914712882351F337C081E090910C
:109C6000B811933009F080E020E242EB5DE023C0C0
:109C7000D43021F58091B811843029F080915402BC
:109C80008823E1F00FC080918A0F8823B9F31092E6
:109C90008A0F8AED9DEF0E9415C480914712882398
:109CA00069F313C081E09091B811943009F080E01D
:109CB00023E048EA5DE06C2F0E942EBFCF5FDF5F9C
:109CC000C53009F03FCFC093B911DF91CF911F91FB
:109CD0000F91FF90EF90DF90CF900895AF92BF92D9
:109CE000CF92DF92EF92FF920F931F93CF93DF9368
:109CF00061E081E078DEC091BA11B12CAA24A3946E
:109D00000CE61DE08FEEE82E8CE0F82E9AEEC92EC0
:109D10009CE0D92EC11120C08091B811882329F070
:109D2000809154028823C1F00CC080918A0F88234F
:109D3000B9F310928A0FDCDE80914712882381F3F9
:109D40001CC281E09091B811911180E024E04CE9AF
:109D50005DE06B2D0E942EBF8091521290915312A4
:109D6000891B8F7009F0E1C1809104158111DDC15B
:109D700080910515882321F08091F6168111D5C1B7
:109D8000C13019F58091B811813031F080915402C1
:109D9000882309F465C00FC080918A0F8823B1F32E
:109DA00010928A0F8AE89DE40E9415C480914712A0
:109DB000882361F3E2C181E09091B811913009F0FC
:109DC00080E023E04EE85DE048C0C23019F58091A4
:109DD000B811823031F080915402882309F440C0D8
:109DE0000FC080918A0F8823B1F310928A0F80EA06
:109DF0009CEF0E9415C480914712882361F3BDC176
:109E000081E09091B811923009F080E023E042E8BF
:109E10005DE023C0C33021F58091B811833029F073
:109E2000809154028823E1F00FC080918A0F88232B
:109E3000B9F310928A0F86E898EB0E9415C48091BE
:109E40004712882369F399C181E09091B81193304A
:109E500009F080E023E044E75DE06B2D0E942EBF17
:109E6000D4E02091FB173091FC178091FA178111F3
:109E700007C080915C0290915D022817390734F188
:109E8000CD1349C08091B8118C1731F080915402E4
:109E9000882309F440C011C080918A0F8823B1F350
:109EA00010928A0F10930406009303060E9469BD66
:109EB00080914712882351F360C181E09091B811DD
:109EC0009C1380E020E24CE55DE022C0CD1323C06E
:109ED0008091B8118C1729F0809154028823D9F011
:109EE0000FC080918A0F8823B9F310928A0F80E007
:109EF00091E00E9415C480914712882369F33DC107
:109F000081E09091B8119C1380E023E04CE45DE087
:109F10006B2D0E942EBFDF5FCD1323C08091B8113F
:109F20008C1729F0809154028823D9F00FC08091BA
:109F30008A0F8823B9F310928A0F8AEE91EB0E9460
:109F400015C480914712882369F317C181E090916D
:109F5000B8119C1380E023E04EE35DE06B2D0E947E
:109F60002EBF81E08D0F90910515992309F4AFC0A4
:109F70009091F616992309F486C0909104159923BF
:109F800051F1C81350C08091B8118C1731F08091F5
:109F90005402882309F447C015C080918A0F882392
:109FA000B1F310928A0F10920415CADBD092040606
:109FB000C09203060E9469BDF5DC80914712882398
:109FC00031F3DBC081E09091B8119C1380E020E276
:109FD00042E35DE025C0C81326C08091B8118C17FC
:109FE00029F0809154028823F1F012C080918A0FE9
:109FF0008823B9F310928A0FF0920406E0920306C8
:10A000000E9469BDCFDC80914712882351F3B5C00F
:10A0100081E09091B8119C1380E020E245E25DE080
:10A020006B2D0E942EBFDE5FCD132BC08091B81127
:10A030008C1729F080915402882319F117C0809160
:10A040008A0F8823B9F310928A0F10920A10109287
:10A050005B02A092DF056FEF83EF9CE00E94CCBF14
:10A0600043DD80914712882329F387C081E09091D6
:10A07000B8119C1380E020E24FE05DE06B2D0E9460
:10A080002EBFDF5F4AC0C81347C08091B8118C173C
:10A0900031F080915402882309F43EC00FC08091B2
:10A0A0008A0F8823B1F310928A0F82E091E00E9418
:10A0B00015C480914712882361F35FC081E09091BD
:10A0C000B8119C1380E023E041E05DE022C0C8139A
:10A0D00023C08091B8118C1729F0809154028823F5
:10A0E000D9F00FC080918A0F8823B9F310928A0F9C
:10A0F00082E091E00E9415C480914712882369F3A1
:10A100003CC081E09091B8119C1380E023E04AE1CB
:10A110005DE06B2D0E942EBFDE5FB394CF5F85E0C4
:10A12000B812F8CDD093B91128C0C13021F5809173
:10A13000B811813029F0809154028823E1F00FC0DA
:10A1400080918A0F8823B9F310928A0F8CEF94EBD9
:10A150000E9415C480914712882369F30EC081E0E4
:10A160009091B811913009F080E023E047E95DE07B
:10A170006B2D0E942EBFD2E074CEDF91CF911F9144
:10A180000F91FF90EF90DF90CF90BF90AF90089528
:10A19000AF92BF92CF92DF92EF92FF920F931F93F5
:10A1A000CF93DF935C016B010E94C3C3EC01C60136
:10A1B0000E94D1C304E110E0081B1109DD270C1730
:10A1C0001D071CF0FF24F39402C082E0F82E80915A
:10A1D000B41790E06F2D70E06F5F7F4F0F94DF4AF0
:10A1E000E62EC6E0C60F8091E717C81750F04091E1
:10A1F000E91750E02C2F30E02B503109421753075C
:10A200009CF5D0E0C114D104C1F18AE30F94851EFE
:10A2100082E0F8120FC0CE0D8091E717C81768F1E1
:10A220002091E91730E08C2F90E00B972817390721
:10A230001CF423C0DD2309F1902F990F090F000FA3
:10A240000093EA17C093EB1780E20F94851EC601B6
:10A25000DF91CF911F910F91FF90EF90DF90CF9002
:10A26000BF90AF900D9433081092EA17C093EB178C
:10A27000C5010F94901ED1E0C5CFDF91CF911F9102
:10A280000F91FF90EF90DF90CF90BF90AF90089527
:10A290009CE0899F802D112491E0980F90930806EF
:10A2A0002CE0280F209309064091E71750E030E09A
:10A2B0002E5F3F4F24173507ECF0292F30E04091F7
:10A2C000E91750E024173507ACF4662349F091E014
:10A2D0009093D3178D5F0F94EF1D1092D31703C087
:10A2E00081E08093D317809109061092EA1780933A
:10A2F000EB1708950895CF92DF92FF920F931F936B
:10A30000CF93DF93982F862F6A01122FF32E692F98
:10A31000BFDF9091E71780910906891708F44CC0B8
:10A320009091E91780910806981708F445C000231A
:10A3300029F0812F9F2D0E94C3C304C0812F9F2D20
:10A340000E94D1C3D82FC4E1C81BF6018491882391
:10A3500039F00F940808C81BFFEFCF1ADF0AF5CFBA
:10A360008AE30F94851ECC2329F080E20F94851E8A
:10A37000C150F9CF809109069AEFD99FD02D1124B1
:10A38000D058D093EA178093EB17002351F0C12FD8
:10A39000DF2DFE018491882379F00F941F08219608
:10A3A000F8CF812F9F2DDF91CF911F910F91FF90BB
:10A3B000DF90CF900D943308DF91CF911F910F91D3
:10A3C000FF90DF90CF900895CF92DF92EF92FF92AF
:10A3D0000F93CF93DF93CDB7DEB7E989FA89C080B9
:10A3E000D180E280F38020E030E0A901C701B6010E
:10A3F0000F94994387FD05C020E030E040E05FE323
:10A4000004C020E030E040E05FEBC701B6010F94EC
:10A4100003480F944749CB010E9428EE00E09C01BD
:10A420004D855E856C858B8566DFDF91CF910F91C1
:10A43000FF90EF90DF90CF900895DF92EF92FF9220
:10A440000F931F93CF93DF931F92CDB7DEB77B019E
:10A45000622F49831DDF9091E7178091090649819A
:10A46000891708F44CC09091E91780910806981755
:10A4700008F445C0442359F10115110541F5C70100
:10A480000E94C3C326E130E0281B390B37FF02C00E
:10A490002F5F3F4F3595279536E1D32E2751822FD9
:10A4A0008D0D87FD11C080E229830F94851EDA94FB
:10A4B0002981F5CFF7018491882361F00F94080872
:10A4C000D81A8FEFE81AF80A1D14A4F303C086E126
:10A4D000D82EFACF0115110559F01D144CF4F801CE
:10A4E00081918F01882321F00F940808D81AF5CFA5
:10A4F0001D142CF480E20F94851EDA94F9CF0F908E
:10A50000DF91CF911F910F91FF90EF90DF90089511
:10A51000CF939CE0899F802D112421E0280F209368
:10A520000806980F90930906E091E717F0E0492F8D
:10A5300050E04E5F5F4F4E175F07D4F130E040911F
:10A54000E91750E0241735079CF5C62F8EE380935A
:10A55000EA179093EB1785E40F941F0881E38C0FA3
:10A560000F941F0880E20F941F086091F5177091F7
:10A57000F6178091F7179091F8170F944749CB0180
:10A580000E9428EE0F9433088FE20F941F080E9458
:10A590008BC3811104C080914512811109C0809143
:10A5A000FB179091FC170E9428EECF910D94330871
:10A5B000CF910895CF93DF931F92CDB7DEB78091EF
:10A5C000EC17811107C081E08093EC1783EB97E1D2
:10A5D0000E94E8466091B5177091B61719829E01E6
:10A5E0002F5F3F4F4FE083EB97E10E946C450F9048
:10A5F000DF91CF9108951092840F809104158823E4
:10A6000051F12091F616222321F18091A01790910B
:10A61000A117A091A217B091A3170097A105B105AA
:10A62000B9F0BC01CD016D597F4F8F4F9F4F24E68C
:10A6300030E040E050E00F94A5476091A41770917E
:10A64000A5178091A6179091A7170F94A54701C051
:10A6500020E02093800380918A0F10928A0F882334
:10A6600029F0A8DF8EE69EE40D94EC1E209167028F
:10A670003091680240914A1250914B1260914C12F5
:10A6800070914D12C901840F951F2436310524F4B1
:10A69000853691053CF416C02436310531F08436F8
:10A6A000910584F484E690E00DC0473051056105C2
:10A6B000710514F0069706C04A3F5F4F6F4F7F4FFA
:10A6C0006CF40696909368028093670210924A1287
:10A6D00010924B1210924C1210924D128091670200
:10A6E000909168028A3091053CF0883E23E0920701
:10A6F0002CF087EE93E002C08AE090E0909368022D
:10A700008093670280E00D946C0A5D9A0E943B453D
:10A7100080914E128E7F80934E120F94CF080F942B
:10A72000110986E20F94BB0880914E128460886004
:10A7300080934E125D9880914E128E7F80934E12C0
:10A7400008955D9A0E943B4580914E128E7F8093C2
:10A750004E120F94110986E20F94BB0880914E129D
:10A760008460886080934E125D9880914E128E7F37
:10A7700080934E120895CF93DF935D9A0E943B45DC
:10A7800080914E128E7F80934E120F94CF080F94BB
:10A790001109D0E06D2F80E00F94200980914E12B6
:10A7A0008370813011F00E9423BFC0E180E00F94DC
:10A7B0003E0880E00F943E08C150C1F7DF5FD03201
:10A7C00049F780914E1284FD0F94DB1E63EA7CE012
:10A7D00080E090E00F94E10863E87CE080E190E0A5
:10A7E0000F94E10863E67CE080E290E00F94E108DA
:10A7F00063E47CE080E390E00F94E10843E25CE0F6
:10A8000061E081E00F94AC0943E05CE062E081E04C
:10A810000F94AC0943EE5BE062E086E00F94AC0974
:10A8200080E00F94530A81E00F946C0A5D98809148
:10A830004E128E7F80934E12DF91CF910895CF9369
:10A84000DF93CDB7DEB7AB970FB6F894DEBF0FBE80
:10A85000CDBF789484B5826084BD84B5816084BDA9
:10A8600085B5826085BD85B5816085BD80916E00AE
:10A87000816080936E0010928100809181008260DF
:10A88000809381008091810081608093810080911C
:10A8900080008160809380008091B100846080930B
:10A8A000B1008091B00081608093B00080919100F0
:10A8B00082608093910080919100816080939100EB
:10A8C000809190008160809390008091A1008260CF
:10A8D0008093A1008091A10081608093A10080916C
:10A8E000A00081608093A00080912101826080930C
:10A8F00021018091210181608093210180912001BB
:10A9000081608093200180917A00846080937A0036
:10A9100080917A00826080937A0080917A008160D1
:10A9200080937A0080917A00806880937A001092F8
:10A93000C1003D98459A82E08093C0001092C50006
:10A9400087E08093C4008091C10080618093C10042
:10A950008091C10088608093C1008091C1008068AF
:10A960008093C1008091C1008F7D8093C1001092BF
:10A97000BE03E1E0F0E184918F010F5F1F4F882358
:10A9800021F00E94F1F4F801F6CFE1E6F5E58491BB
:10A990008F010F5F1F4F882321F00E94F1F4F8010F
:10A9A000F6CF989AA09A9A9AA29A8091070180620B
:10A9B0008093070180910801809580728093060141
:10A9C0008091070180618093070180910801809543
:10A9D00080718093060114B710FF0DC0E8EFFFE00F
:10A9E00084917F012FEFE21AF20A882321F00E945E
:10A9F000F1F4F701F5CF11FF0DC0E7EEFFE0849110
:10AA00007F013FEFE31AF30A882321F00E94F1F45B
:10AA1000F701F5CF12FF0DC0E5EDFFE084917F0156
:10AA20009FEFE91AF90A882321F00E94F1F4F70157
:10AA3000F5CF13FF0DC0E4ECFFE084917F012FEF11
:10AA4000E21AF20A882321F00E94F1F4F701F5CF0F
:10AA500015FF0CC0E3EBFFE084918F010F5F1F4FE8
:10AA6000882321F00E94F1F4F801F6CF14BEECEA3D
:10AA7000FFE084918F010F5F1F4F882321F00E9418
:10AA8000F1F4F801F6CF80E20E94F1F4E5EAFFE08C
:10AA900084918F010F5F1F4F882321F00E94F1F4F2
:10AAA000F801F6CF8AE00E94F1F4E1E6F5E5849141
:10AAB0008F010F5F1F4F882321F00E94F1F4F801EE
:10AAC000F6CFE5E9FFE084918F010F5F1F4F8823E8
:10AAD00021F00E94F1F4F801F6CFE1E8FFE0849163
:10AAE0008F010F5F1F4F882321F00E94F1F4F801BE
:10AAF000F6CFE8E4FFE084918F010F5F1F4F8823BA
:10AB000021F00E94F1F4F801F6CFE1E6F5E5849139
:10AB10008F010F5F1F4F882321F00E94F1F4F8018D
:10AB2000F6CFE1E3FFE084918F010F5F1F4F882391
:10AB300021F00E94F1F4F801F6CFE1E6F5E5849109
:10AB40008F010F5F1F4F882321F00E94F1F4F8015D
:10AB5000F6CF80914F1890915018FE0131967F01E9
:10AB6000BF01009719F0681B790B02C06555784149
:10AB700082E29FE00E94A58060E875E08BE09FE0A4
:10AB80000E94A5808AE00E94F1F481E08093F303A3
:10AB90008093F4038093F5038093F6038093F70387
:10ABA0000F94D31B8CE0E7EEF3E0ABE1B8E101904A
:10ABB0000D928A95E1F70E94C8BD6D9A9D9A809189
:10ABC000010180628093010188E00F94123C809122
:10ABD000010188608093010186E00F94123C87EDAB
:10ABE00080937A0010927E0010927D0080917E000A
:10ABF000816080937E0080917E00846080937E00DF
:10AC000080E888BD80916E00846080936E006AEF5A
:10AC100070E080E090E00E94D24A85E090E090935E
:10AC2000C4038093C30360E08091130290911402E7
:10AC30000E94EF7920E030E040EA50E40F9499431D
:10AC400087FF0AC08091130290911402409790935D
:10AC5000140280931302E7CF81E391E090931602F0
:10AC60008093150260E08091C1039091C2030E941D
:10AC7000EF7920E030E848E953E40F94294A1816A8
:10AC800054F48091C1039091C20340969093C20303
:10AC90008093C103E7CF80911102909112020E942C
:10ACA000767B20E030E040EA50E40F94994387FF40
:10ACB0000AC0809111029091120240979093120263
:10ACC00080931102E8CF8091BF039091C0030E944E
:10ACD000767B20E030E046E153E40F94294A1816D1
:10ACE00054F48091BF039091C00340969093C003A9
:10ACF0008093BF03E8CF1092D1031092CD0310923E
:10AD0000CE031092CF031092D0031092C903109279
:10AD1000CA031092CB031092CC031092C503109279
:10AD2000C6031092C7031092C80382E390E00F9409
:10AD30005F47863119F00E94A54308C040E150E00A
:10AD400063E370E083ED93E00F944F4791E09093BD
:10AD5000D203809107018B7F8093070180910801C6
:10AD6000809584708093060124982C9A8091070125
:10AD70008F77809307018091080180958078809378
:10AD80000601809101018F7E809301018091020173
:10AD900080958071809300011092E4031092E30388
:10ADA00080910A01816080930A0180910A0182608A
:10ADB00080930A0180910A01846080930A01809146
:10ADC0000A01806480930A010F9A179A0E9A169AC4
:10ADD0000D9A159A0C9A149A389A4098179A80915D
:10ADE000E5038E7F8093E503399A4198169A809106
:10ADF000E5038D7F8093E5033A9A4298159A8091F6
:10AE0000E5038B7F8093E5033B9A4398149A8091E6
:10AE100080008C7F8093800080918100877E886095
:10AE200080938100809180008F7380938000809157
:10AE30008100887F82608093810020E030E430933D
:10AE400089002093880010928500109284008091E0
:10AE50006F00826080936F009093E40378940E9467
:10AE6000E89E1092E60380910101886080930101C1
:10AE70000E94DFC30E94D24C0F94A4070091B31725
:10AE80002091B41710E06801F8E3CF1AD108D7FE7B
:10AE900004C0680137E3C31AD108D594C7942BA71F
:10AEA0000F94A61EC8014E9796958795B82E025707
:10AEB000110916950795D02E2BA5EEEE9E2E920E1B
:10AEC000FAEFAF2EA20E06E81EE023E147E06CE0A9
:10AED0008C2D0F94991D84E00F94EE0740EE52E004
:10AEE000692D8B2D0F94031E46EE52E06A2D8D2D99
:10AEF0000F94031E0F945F1D8111E5CF64EC79E080
:10AF000080E090E00E945EEE98E288E10FB6F8944F
:10AF1000A895809360000FBE90936000159828E07C
:10AF2000222E20E1322E6E0181E2C80ED11C38E2C1
:10AF3000A32E30E1B32E40E0842E40E0942E809189
:10AF4000561587FD41C08091041581113DC0809147
:10AF50000515811102C00E949C72809105158823FD
:10AF600081F180915615282F082E000C330B3F934A
:10AF70008F933F922F92DF92CF920F94324340E013
:10AF800050E0BA018BE595E10F94F52E0F900F90EC
:10AF90000F900F900F900F9080915E15823088F087
:10AFA0008091631590916415A0916515B091661517
:10AFB0008F719927AA27BB27892B8A2B8B2B09F402
:10AFC00043C12FEF209356158091DF058823D1F0E0
:10AFD0001092DF050E9451701092DC051092F80368
:10AFE0001092DB050E94A3910E94B44B0E94587BF3
:10AFF0001092DE051092DD0510925B028FE690E163
:10B000000E9431AC8091DC05853010F40E94A6E0EE
:10B010008091DC05882309F49DC080910215882366
:10B0200009F485C00091DB0530E6309F80011124D2
:10B0300005501C4F6BE670E1C8010F941843892B33
:10B04000F9F083EF96E10F94B42E83EF96E10E941E
:10B050005AF01092031510920215E8E5F0E1849180
:10B060008F010F5F1F4F882341F00E94F1F4F80118
:10B07000F6CF8091031581115AC00F944C3E59C0F0
:10B08000F80101900020E9F731973F01601A710A39
:10B090001092F3166EE470E0C8010F94364B2C0149
:10B0A000009739F481E0681A7108F801E60DF71D80
:10B0B0000EC060E270E00F94364B8C010F5F1F4FA3
:10B0C0006AE270E0C2010F94364BFC0131979DE0BB
:10B0D00091838AE082831382F80101900020E9F7CE
:10B0E0003197AF01401B510BB80183EF96E10F94EC
:10B0F0008A2F8091F316882309F4BBCFEFE2F2E1A7
:10B1000084918F010F5F1F4F882321F00E94F1F47B
:10B11000F801F6CFE1E1F0E184918F010F5F1F4F5D
:10B12000882309F4A6CF0E94F1F4F801F5CF0F941B
:10B13000DF3E8091DC05882369F081508093DC0537
:10B140008091DB058F5F853018F48093DB0502C0AA
:10B150001092DB0580911A18882309F467C090913A
:10B160001A188091FA03981709F460C0E1E6F5E532
:10B1700084918F010F5F1F4F882321F00E94F1F40B
:10B18000F801F6CFE9E4F0E184918F010F5F1F4FE2
:10B19000882321F00E94F1F4F801F6CF80911A186B
:10B1A00080FD8AC080911A1884FD86C090E2792EB5
:10B1B00080911A1881FD8CC080911A1885FD88C075
:10B1C00000E280911A1882FD8EC080911A1886FDC7
:10B1D0008AC010E28AE00E94F1F41F9280E28F930D
:10B1E0001F921F931F920F931F927F92BF92AF9255
:10B1F0001F920E9412740FB6F894DEBF0FBECDBF2F
:10B200008091F903882391F01092041583EF96E161
:10B210000F94B42E83EF96E10E945AF0109203151A
:10B22000109202150E94A3910E94587B80911A18D7
:10B230008093FA0380E00E9417AD8114910409F411
:10B240007ECE0E9400007BCE40E050E0B7018BE54F
:10B2500095E10F944C2E18160CF0B3CEF701019027
:10B260000020E9F731977E2E7E187A94FFEF7F1643
:10B2700069F08701070D111D77FC1A95F80180818F
:10B2800090E00F94FA4AF8018083EFCF8A858E37D9
:10B2900009F482CE45E050E0B601C7010F94484B57
:10B2A000892B09F079CEC6010E94827680915615CD
:10B2B0008F5F8093561588CE80E00F94EB24AB010E
:10B2C000BC0185E490E10E94CE7F88E5782E70CFA6
:10B2D00081E00F94EB24AB01BC0181E490E10E947A
:10B2E000CE7F09E56ECF82E00F94EB24AB01BC0169
:10B2F0008DE390E10E94CE7F1AE56CCF0F931F93F0
:10B30000462F50E060E070E022E0440F551F661FBA
:10B31000771F2A95D1F74470552766277727FC01B8
:10B320000789108D218D328D0B7F402B512B622B85
:10B33000732B478B508F618F728FAC01495E5F4FCB
:10B3400060E81F910F910D946A2ACF92DF92EF92DD
:10B35000FF920F931F93AC01455A5F4F062F10E0E9
:10B3600020E030E0302F2227112700270027112767
:10B3700022273F70FA01C080D180E280F380F0EF95
:10B38000FF220C291D292E293F29FA010083118350
:10B39000228333836CEE1F910F91FF90EF90DF902B
:10B3A000CF900D946A2ACF92DF92EF92FF920F9383
:10B3B0001F93AC01455A5F4F062F10E020E030E0AC
:10B3C0006FE0000F111F221F331F6A95D1F700276E
:10B3D000107821703327FA01C080D180E280F38099
:10B3E000E894D7F8E0F80C291D292E293F2900837D
:10B3F0001183228333836CEE1F910F91FF90EF90A6
:10B40000DF90CF900D946A2ACF92DF92EF92FF9255
:10B410000F931F93AC01455A5F4F062F660F110B18
:10B42000220B330B67E0000F111F221F331F6A9599
:10B43000D1F70078177022273327FA01C080D18016
:10B44000E280F380E894C7F8F8EFDF220C291D2989
:10B450002E293F29FA0100831183228333836CEE66
:10B460001F910F91FF90EF90DF90CF900D946A2A7B
:10B47000CF92DF92EF92FF920F931F93AC01455A48
:10B480005F4F062F10E020E030E064E0000F111F56
:10B49000221F331F6A95D1F7007711272227332700
:10B4A000FA01C080D180E280F380FFE8CF220C292E
:10B4B0001D292E293F29FA0100831183228333831A
:10B4C0006CEE1F910F91FF90EF90DF90CF900D9455
:10B4D0006A2A0F931F93AC01455A5F4F6F70FA01B0
:10B4E0000081118122813381007F062B008311832B
:10B4F000228333836CEE1F910F910D946A2ACF93B0
:10B50000DF93EC01C55ADF4FAE016CE60F946A2A57
:10B51000688179818A819B81DF91CF910895CF9352
:10B52000DF93EC01C559DF4F188219821A821B8202
:10B53000AE016FE60F946A2A688179818A819B81C6
:10B54000DF91CF910895FC01E15AFF4F80819181F5
:10B55000A281B38188279927AF77BB27CD01AA277E
:10B56000BB2780349105A105B10508F080580895E6
:10B57000CF92DF92EF92FF920F931F93AC01415A4B
:10B580005F4F062F660F110B220B330B980111270B
:10B590000027002711272F773327FA01C080D18099
:10B5A000E280F380F0E8EF220C291D292E293F29A3
:10B5B000FA0100831183228333836DEE1F910F9173
:10B5C000FF90EF90DF90CF900D946A2ACF92DF9298
:10B5D000EF92FF920F931F93AC01415A5F4F062FDA
:10B5E00010E020E030E0322F212F102F002700271D
:10B5F0001F7022273327FA01C080D180E280F380B8
:10B60000F0EFDF220C291D292E293F29FA010083A2
:10B610001183228333836DEE1F910F91FF90EF9082
:10B62000DF90CF900D946A2A2F923F924F925F92B3
:10B630006F927F928F929F92AF92BF92CF92DF9242
:10B64000EF92FF920F931F93CF93DF93CDB7DEB7A7
:10B65000CC57D1090FB6F894DEBF0FBECDBFE09135
:10B66000F205F091F305EF2B11F00C94AA646C969F
:10B67000DFAECEAE6C972996EFAE299779016A01BD
:10B680005B01FC012081318142815381A6962CAF60
:10B690003DAF4EAF5FAFA69720913F183091401855
:10B6A0004091411850914218A6966CAD7DAD8EAD7B
:10B6B0009FADA6970F94FE430F94344AE2966CAF69
:10B6C0007DAF8EAF9FAFE297D5018D919D910D908B
:10B6D000BC91A02DAA968CAF9DAFAEAFBFAFAA977D
:10B6E00020914318309144184091451850914618C4
:10B6F000BC01CD010F94FE430F94344AE6966CAF23
:10B700007DAF8EAF9FAFE697D6012D913D914D91C4
:10B710005C91AE962CAF3DAF4EAF5FAFAE97209130
:10B720004718309148184091491850914A18AE96E0
:10B730006CAD7DAD8EAD9FADAE970F94FE430F9473
:10B74000344AEA966CAF7DAF8EAF9FAFEA97D701D0
:10B750002D913D914D915C916A962CAF3DAF4EAFCE
:10B760005FAF6A9720914B1830914C1840914D185B
:10B7700050914E186A966CAD7DAD8EAD9FAD6A97B7
:10B780000F94FE430F94344AA0966CAF7DAF8EAFFA
:10B790009FAFA0978091FD1783FF1CC0A0962CAD92
:10B7A0003DAD4EAD5FADA0972093A8123093A91286
:10B7B0004093AA125093AB126A968CAD9DADAEAD7C
:10B7C000BFAD6A978093981290939912A0939A12A2
:10B7D000B0939B12D801BC91BBABF801F181F8AFDB
:10B7E000D8011296BC91BCAFF801F3812D96FFAF42
:10B7F0002D978091521290915312891B8F708F3028
:10B8000021F480E00E9417ADF4CF00915212EB9624
:10B810000FAFEB9780915212282E312C80919C1201
:10B8200090919D12A0919E12B0919F12E2968CACC5
:10B830009DACAEACBFACE297881A990AAA0ABB0AC3
:10B840008091A0129091A112A091A212B091A31286
:10B85000E6964CAC5DAC6EAC7FACE697481A590AE4
:10B860006A0A7B0A8091A4129091A512A091A61257
:10B87000B091A712EA962CAD3DAD4EAD5FADEA9703
:10B88000281B390B4A0B5B0B2BA33CA34DA35EA3D8
:10B890008091A8129091A912A091AA12B091AB1216
:10B8A000A0960CAD1DAD2EAD3FADA097081B190B9A
:10B8B0002A0B3B0B0FA318A729A73AA7012B022B92
:10B8C000032B09F4BDC06091F5177091F6178091B4
:10B8D000F7179091F8172091FA17211141C00F9492
:10B8E000474920915C0230915D0262177307C4F5ED
:10B8F000A0962CAD3DAD4EAD5FADA0972093A812A4
:10B900003093A9124093AA125093AB126A968CAD51
:10B910009DADAEADBFAD6A9780939812909399128A
:10B92000A0939A12B0939B12E1E6F5E584918F0102
:10B930000F5F1F4F882321F00E94F1F4F801F6CF2A
:10B94000EAEBF0E184918F010F5F1F4F882321F014
:10B950000E94F1F4F801F6CF1FA218A619A61AA6A4
:10B960006FA178A589A59AA50F949F4329960FAD3D
:10B970002997A4E00A9FF0011124E55EFD4F208184
:10B980003181428153810F94FE436B017C0120E0A1
:10B9900030E0A9010F94294A87FF04C0F7FAF09418
:10B9A000F7F8F09460914B1870914C1880914D18F5
:10B9B00090914E180F9447499B01AC01A8ECB0E060
:10B9C0000F94E3470F949F439B01AC01C701B6015D
:10B9D0000F94294A1816C4F5A0962CAD3DAD4EAD76
:10B9E0005FADA0972093A8123093A9124093AA129A
:10B9F0005093AB126A968CAD9DADAEADBFAD6A975C
:10BA00008093981290939912A0939A12B0939B12DC
:10BA1000E1E6F5E584918F010F5F1F4F882321F048
:10BA20000E94F1F4F801F6CFEBE9F0E184918F0187
:10BA30000F5F1F4F882321F00E94F1F4F801F6CF29
:10BA40001FA218A619A61AA6D501C4018827B7FDFA
:10BA500083959927AA27BB27182F77FC12602BA163
:10BA60003CA14DA15EA157FD14608FA198A5A9A589
:10BA7000BAA5B7FD18606FA178A589A59AA50F94FE
:10BA80009F4329960FAD2997A4E00A9FF001112446
:10BA9000E55EFD4F20813181428153810F94FE4349
:10BAA0006B017C0120E030E0A9010F94294A87FF57
:10BAB00004C0C701B601905802C0C701B60120E01A
:10BAC00030E040E05FE30F9403480F944C496CABC7
:10BAD0007DAB8EAB9FAB88E5829DF001839DF00D21
:10BAE0001124ED51F74F108216AB24968CAE9DAE0B
:10BAF000AEAEBFAE2497B7FE0DC022273327A901F3
:10BB0000281939094A095B0924962CAF3DAF4EAF7D
:10BB10005FAF249788E5829DF001839DF00D11248D
:10BB2000ED51F74F24968CAD9DADAEADBFAD2497D2
:10BB3000858B968BA78BB08F62964CAE5DAE6EAE4A
:10BB40007FAE629777FE0DC022273327A901241903
:10BB500035094609570962962CAF3DAF4EAF5FAF2E
:10BB6000629788E5829DF001839DF00D1124ED51CF
:10BB7000F74F62968CAD9DADAEADBFAD6297818F34
:10BB8000928FA38FB48F2BA13CA14DA15EA12896CB
:10BB90002CAF3DAF4EAF5FAF289757FF0DC050950C
:10BBA0004095309521953F4F4F4F5F4F28962CAFD2
:10BBB0003DAF4EAF5FAF289788E5829DF001839D32
:10BBC000F00D1124ED51F74F28968CAD9DADAEAD23
:10BBD000BFAD2897858F968FA78FB0A3C501B401FD
:10BBE0000F949F432091CF083091D0084091D10805
:10BBF0005091D2080F94FE436BA77CA78DA79EA7F8
:10BC0000698B7A8B8B8B9C8BC301B2010F949F4302
:10BC10002091D3083091D4084091D5085091D6088E
:10BC20000F94FE436FA778AB89AB9AAB6D8B7E8B7D
:10BC30008F8B988F2091D7083091D8084091D908E0
:10BC40005091DA0866962CAF3DAF4EAF5FAF669766
:10BC50006BA17CA18DA19EA10F949F4366962CADF4
:10BC60003DAD4EAD5FAD66970F94FE434B015C0159
:10BC7000698F7A8F8B8F9C8F2091DB083091DC0845
:10BC80004091DD085091DE08C701B6010F94FE43D4
:10BC90006B017C016D8F7E8F8F8F98A324968CAD66
:10BCA0009DADAEADBFAD24970697A105B1057CF55E
:10BCB00062962CAD3DAD4EAD5FAD6297263031053D
:10BCC0004105510524F528968CAD9DADAEADBFADB7
:10BCD00028970697A105B105D4F420E030E0A9012A
:10BCE000C701B6010F94294A87FF04C0F7FAF09400
:10BCF000F7F8F09488E5829DF001839DF00D112402
:10BD0000ED51F74FC586D686E786F08AA1C16C96BD
:10BD1000AEADBFAD6C97CD90DD90ED90FC9020E086
:10BD200030E0A901C701B6010F949943882369F057
:10BD300088E5829DF001839DF00D1124ED51F74FB0
:10BD4000C586D686E786F08A34C02BA53CA54DA5CE
:10BD50005EA5CA01B9010F94FE436B017C012FA5BA
:10BD600038A949A95AA9CA01B9010F94FE439B01F8
:10BD7000AC01C701B6010F9403486B017C01A5011A
:10BD80009401C501B4010F94FE439B01AC01C701AE
:10BD9000B6010F9403480F946E4A28E5229DF001E6
:10BDA000239DF00D1124ED51F74F65877687878726
:10BDB000908B8091EC11882309F44AC1C090E90569
:10BDC000D090EA05E090EB05F090EC0520E030E043
:10BDD000A901C701B6010F949943882309F438C11A
:10BDE0008090E5059090E605A090E705B090E80505
:10BDF00020E030E0A901C501B4010F9499438823E4
:10BE000009F426C12BA13CA14DA15EA1211531054C
:10BE10004105510509F41CC157FD0BC080E090E0BD
:10BE2000A0E8BFE324968CAF9DAFAEAFBFAF249721
:10BE30000AC020E030E040E85FEB24962CAF3DAF35
:10BE40004EAF5FAF249712FB112710F98091E405E4
:10BE50008117B1F11093E4056091E0057091E1055F
:10BE60008091E2059091E3050F949F432B013C01E3
:10BE7000A501940124966CAD7DAD8EAD9FAD249748
:10BE80000F94FE43A70196010F94FE43209147189B
:10BE9000309148184091491850914A180F94FE4328
:10BEA0009B01AC01C301B2010F9403480F944749B1
:10BEB0006093E0057093E1058093E2059093E305BC
:10BEC0004090E0055090E1056090E2057090E30538
:10BED0008BA19CA1ADA1BEA1181619061A061B06BE
:10BEE00034F414141504160417041CF0B1C077FEC2
:10BEF000AFC0C301B2010F949F434B015C0188E5C1
:10BF0000829DF001839DF00D1124ED51F74F20919A
:10BF10001702309118024091190250911A0265855A
:10BF20007685878590890F94DF486B017C0120E03E
:10BF300030E040E85FE30F94294A181634F4C12C2E
:10BF4000D12C30E8E32E3FE3F32EA7019601C50183
:10BF5000B4010F94FE430F9447496B017C01DC014F
:10BF6000CB01F7FE07C088279927DC018C199D09B2
:10BF7000AE09BF0928960CAD1DAD2EAD3FAD28977B
:10BF8000080F191F2A1F3B1FC901B80128E5229D70
:10BF90008001239D100D11240D51174FD8015D967E
:10BFA0006D937D938D939C9390974C185D086E08CC
:10BFB0007F084092E0055092E1056092E2057092A0
:10BFC000E3050F949D439B01AC0124966CAD7DADC0
:10BFD0008EAD9FAD24970F94FE4366962CAD3DAD7C
:10BFE0004EAD5FAD66970F94FE436B017C01698F88
:10BFF0007A8F8B8F9C8F2BA53CA54DA55EA5CA0182
:10C00000B9010F94FE434B015C012FA538A949A942
:10C010005AA9CA01B9010F94FE439B01AC01C501A5
:10C02000B4010F9403484B015C01A7019601C701BD
:10C03000B6010F94FE439B01AC01C501B4010F94FE
:10C0400003480F946E4AF801658776878787908B3F
:10C0500088E5829DF001839DF00D1124ED51F74F8D
:10C060000CA91DA92EA93FA901A312A323A334A3A0
:10C07000458956896789708D058D168D278D30A16C
:10C08000818D928DA38DB48D80179107A207B30780
:10C0900010F4D901C80184179507A607B70710F453
:10C0A000DB01CA010CA91DA92EA93FA98017910780
:10C0B000A207B30710F4D901C80128E5229DF001B9
:10C0C000239DF00D1124ED51F74F85A396A3A7A34F
:10C0D000B0A70697A105B10508F435C4DF01AE5A33
:10C0E000BF4F8091DD059091DE058D939C9329963D
:10C0F0001FAD299711A7452B462B472B09F0179801
:10C1000088E5829DF001839DF00D1124ED51F74FDC
:10C11000818D928DA38DB48D892B8A2B8B2B09F069
:10C12000169888E5829DF001839DF00D1124ED5154
:10C13000F74F858D968DA78DB0A1892B8A2B8B2BE0
:10C1400009F015982CA93DA94EA95FA9232B242BF2
:10C15000252B09F401C48091F105882319F0815041
:10C160008093F10529960FAD2997011104C0149809
:10C1700080E28093F105E0900112F09002120091AC
:10C180000312109104129701A8016BA978AD8CAD30
:10C190002D969FAD2D970F94994387FF06C0EBAA6C
:10C1A000F8AE0CAF2D961FAF2D9788E5829DF0015C
:10C1B000839DF00D1124ED51F74F25853685478578
:10C1C000508960E070E080E89FE30F94DF48249698
:10C1D0006CAF7DAF8EAF9FAF24979B01AC016BA975
:10C1E00078AD8CAD2D969FAD2D970F94FE434B01EE
:10C1F0005C018091521290915012891B8F7025968C
:10C200008FAF2597A501940160E074E284E799E47B
:10C210000F94DF480F94344A6B017C0125968FAD53
:10C2200025978250863008F4A0C380916F0081FB6F
:10C23000222720F981FF05C080916F008D7F8093B8
:10C240006F008091DF089091E008A091E108B09123
:10C25000E208C80ED91EEA1EFB1EC092DF08D0926B
:10C26000E008E092E108F092E208222329F08091B0
:10C270006F00826080936F0088E5829D8001839DBE
:10C28000100D11240D51174FD8011D962D913D9180
:10C290004D915C915097C501B4010F94FE439B01F1
:10C2A000AC010F94FE4362966CAF7DAF8EAF9FAF33
:10C2B0006297F801618372838383948325A136A1F9
:10C2C00047A150A528AF39AF4AAF5BAFCA01B9014A
:10C2D0000F949D436CAF7DAF8EAF9FAFA5019401CE
:10C2E0000F94FE430F94C9480F944C4966966CAF67
:10C2F0007DAF8EAF9FAF6697F801EE5BFF4F608317
:10C300007183828393838E010F5E1F4F2A961FAF26
:10C310000EAF2A97005111092E961FAF0EAF2E9720
:10C3200005E212E1A2961FAF0EAFA2978E010F5D3C
:10C330001F4F1AA309A32E960EAD1FAD2E976C9614
:10C340001FAF0EAF6C971BA21BA610E81FA70FE331
:10C350000BAB2A96AEADBFAD2A976D917D918D91B5
:10C360009D912A96BFAFAEAF2A97A50194010F9475
:10C37000FE436B017C016C96EEADFFAD6C97619353
:10C380007193819391936C96FFAFEEAF6C9720E021
:10C3900030E0A9010F94294A87FF04C0F7FAF0940E
:10C3A000F7F8F094A296AEADBFADA2974D905D9018
:10C3B0006D907D90A296BFAFAEAFA297A301920100
:10C3C000C701B6010F94294A18160CF40AC32A961D
:10C3D0000EAD1FAD2A9729A13AA10217130709F044
:10C3E000B8CF20E030E040E85FE36BA17BA58FA5EC
:10C3F0009BA90F94994387FF57C07E0131E1E30E5B
:10C40000F11C2E960EAD1FAD2E972BA13BA54FA56F
:10C410005BA9D8016D917D918D919C910F94FE4304
:10C42000F80161937193819391938F01EE15FF054C
:10C4300061F728E5229DC001239D900D11248C01F8
:10C440000D51174F78010E5B1F4F66966CAD7DAD99
:10C450008EAD9FAD66970F949D432BA13BA54FA535
:10C460005BA90F94FE430F944C49D8016D937D93C3
:10C470008D939C9313972BA13BA54FA55BA96BA113
:10C480007BA58FA59BA90F94FE439B01AC016296EF
:10C490006CAD7DAD8EAD9FAD62970F94FE43F701FD
:10C4A000618372838383948324962CAD3DAD4EAD1E
:10C4B0005FAD24976CAD7DAD8EAD9FAD0F94FE4307
:10C4C0006BA37CA38DA39EA388E5829D8001839DA1
:10C4D000100D11240D51174FD80155968D909D9038
:10C4E000AD90BC90589781149104A104B10409F057
:10C4F00090C259968D919D910D90BC91A02D892B44
:10C500008A2B8B2B09F085C2F801858D968DA78D1E
:10C51000B0A1892B8A2B8B2B09F07BC220910D12A5
:10C5200030910E1240910F12509110126BA17CA10C
:10C530008DA19EA10F94FE430F94C9480F944C49BE
:10C540002B013C01D801D7961C9288E5829D800181
:10C55000839D100D11240D51174FF801E25BFF4F21
:10C560004082518262827382C301B2010F949D4363
:10C570006B017C012BA13CA14DA15EA10F94DF4872
:10C580002C966CAF7DAF8EAF9FAF2C97D801519694
:10C590006D937D938D939C9354972DEB37E346E0F9
:10C5A00051E4C701B6010F94FE430F944C49F801C2
:10C5B00062AB73AB84AB95AB87A9882381F1FE9600
:10C5C00020813181428153816091C4117091C511E4
:10C5D0008091C6119091C7110F94FE432C962CADFB
:10C5E0003DAD4EAD5FAD2C970F94FE4320914B189F
:10C5F00030914C1840914D1850914E180F94FE43B5
:10C600009B01AC0160E074E284EF99E40F94DF4891
:10C610000F944C49D801D9967C936E93D89788E5AE
:10C62000829DF001839DF00D1124ED51F74F0181A2
:10C6300012812381348124960CAF1DAF2EAF3FAF02
:10C640002497C901B8010F946E4A162F072F8BA3A8
:10C650009FA32DEE31E160963FAF2EAF60973E0174
:10C6600031E1630E711C4DEE51E15DAF4CAF2E9682
:10C670004EAC5FAC2E976BA77FA78BAB9CAB18AE75
:10C68000D201CD90DD90ED90FD902D0120E030E0C5
:10C69000A901C701B6010F94294A87FF04C0F7FA20
:10C6A000F094F7F8F094ECADFDAD81909190A190ED
:10C6B000B190FDAFECAFA5019401C701B6010F9495
:10C6C000294A18160CF4B2C446145704C9F65BA5DF
:10C6D0006B965FAF6B978FA5A1968FAFA1979BA924
:10C6E000EC969FAFEC97ACA9ED96AFAFED97259682
:10C6F000BFAD2597B111DAC46B968FAD6B97A1963C
:10C700009FADA197EC96AFADEC97ED96BFADED97D1
:10C710008093ED059093EE05A093EF05B093F0059F
:10C7200088E5829D8001839D100D11240D51174FC6
:10C730002BA53FA54BA95CA96BA57FA58BA99CA99F
:10C740000F94FE43D80119966D937D938D939C931E
:10C750001C972C966CAD7DAD8EAD9FAD2C979058EF
:10C760009B01AC010F940348F80125853685478568
:10C7700050890F94FE439B01AC016BE077ED83E29F
:10C780009BE30F9402489B01AC018BE097EDA3E281
:10C79000BBE3F80185839683A783B0871081249635
:10C7A0006CAD7DAD8EAD9FAD24970F949943181657
:10C7B0000CF0BCC581E0182B88E5829DF001839DBB
:10C7C000F00D1124ED51F74F108380E1FE013196F9
:10C7D000ACE7B2E101900D928A95E1F724960CAD99
:10C7E0001DAD2EAD3FAD24970093781210937912B2
:10C7F00020937A1230937B12E2962CAD3DAD4EAD74
:10C800005FADE29720939C1230939D1240939E124D
:10C8100050939F12E6968CAD9DADAEADBFADE69741
:10C820008093A0129093A112A093A212B093A3128E
:10C83000EA960CAD1DAD2EAD3FADEA970093A41264
:10C840001093A5122093A6123093A712A0962CAD98
:10C850003DAD4EAD5FADA0972093A8123093A912C5
:10C860004093AA125093AB12A6968CAD9DADAEAD7F
:10C87000BFADA69780938C1290938D12A0938E12C9
:10C88000B0938F12AA960CAD1DAD2EAD3FADAA97F9
:10C89000009390121093911220939212309393125E
:10C8A000AE962CAD3DAD4EAD5FADAE9720939412DC
:10C8B0003093951240939612509397126A968CADCE
:10C8C0009DADAEADBFAD6A978093981290939912CB
:10C8D000A0939A12B0939B1290915212809153128E
:10C8E000981303C084E680934F12EB968FADEB97BD
:10C8F0008F5F8F70809352128091521290915112DB
:10C9000081508F70891314C5009153120BA310919D
:10C9100052121FA398E50FA11BA1011392C5812CF0
:10C92000912CA12CB12C1BA61FA61BAA1CAA212C42
:10C93000312C00E010E0FBA12FA1F2138FC52114D0
:10C94000310409F040C680916F00826080936F00CF
:10C9500081E09EC780E09CC7E090FD11F090FE1141
:10C960000091FF11109100120ECC80910512909150
:10C970000612A0910712B0910812C816D906EA064D
:10C98000FB0608F052CC8C199D09AE09BF09BC0109
:10C99000CD01660F771F881F991F25964FAD2597EC
:10C9A000042F10E020E030E0A90198010F94A54782
:10C9B000CA01B9010F949D430F94344AC60ED71E85
:10C9C000E81EF91EC701B6010F949D439B01AC01FF
:10C9D00060E074E284E799E40F94DF484B015C0166
:10C9E00024CCA7019601C301B2010F94DF487B015B
:10C9F0008C019B01AC016BA17BA58FA59BA90F941A
:10CA0000294A18160CF0E3CCEBA2FBA60FA71BAB30
:10CA1000DECC0CA91DA92EA93FA9012B022B032BAB
:10CA200049F060911112709112128091131290913D
:10CA3000141208C06091091270910A1280910B12B1
:10CA400090910C122BA13CA14DA15EA10F94FE432D
:10CA50000F94C9480F944C492B013C012CA93DA9C6
:10CA60004EA95FA9232B242B252BC9F020E030E011
:10CA7000A9016091C4117091C5118091C611909166
:10CA8000C7110F949943882351F081E00FA118A595
:10CA900029A53AA510161106120613060CF080E01F
:10CAA00098E5929D8001939D100D11240D51174F13
:10CAB000D801D7968C93882309F4BAC020918C12A0
:10CAC00030918D1240918E1250918F12A6966CADBE
:10CAD0007DAD8EAD9FADA6970F9402486FA378A74A
:10CAE00089A79AA7209190123091911240919212A9
:10CAF00050919312AA966CAD7DAD8EAD9FADAA9765
:10CB00000F9402486BA77CA78DA79EA72091941233
:10CB1000309195124091961250919712AE966CAD4D
:10CB20007DAD8EAD9FADAE970F9402486B017C0139
:10CB30002FA138A549A55AA5CA01B9010F94FE43F2
:10CB40006FA378A789A79AA72BA53CA54DA55EA59D
:10CB5000CA01B9010F94FE439B01AC016FA178A5F6
:10CB600089A59AA50F9403486FA378A789A79AA7C8
:10CB7000A7019601C701B6010F94FE439B01AC01CA
:10CB80006FA178A589A59AA50F9403480F946E4AC2
:10CB90006B017C01209198123091991240919A1268
:10CBA00050919B126A966CAD7DAD8EAD9FAD6A972C
:10CBB0000F940248A70196010F94DF486B017C0196
:10CBC000F801FE96608371838283938320E030E0D6
:10CBD00040E450E40F94294A18161CF4F80117AAEF
:10CBE00027C02091C4113091C5114091C6115091B8
:10CBF000C711C701B6010F94FE439B01AC016091C0
:10CC0000F9117091FA118091FB119091FC110F9420
:10CC1000DF482BA13CA14DA15EA10F94FE430F94D0
:10CC20004C49641575058605970510F42B013C01E8
:10CC30008091BB089091BC08A091BD08B091BE083E
:10CC400008AD19AD2AAD3BAD80179107A207B30718
:10CC500008F4DCC081149104A104B10441F12091D5
:10CC6000BF083091C0084091C1085091C2082415F6
:10CC7000350546055705D8F468AD79AD8AAD9BAD4D
:10CC80000F9496476B017C01A3019201C501B40189
:10CC90000F949647C616D706E806F90640F4C70172
:10CCA000B601A50194010F94A54729013A0188E531
:10CCB000829DF001839DF00D1124ED51F74FC18C41
:10CCC000D28CE38CF48CC114D104E104F10441F161
:10CCD0002091C3083091C4084091C5085091C608FE
:10CCE0002415350546055705D8F468AD79AD8AADEC
:10CCF0009BAD0F9496474B015C01A3019201C701C4
:10CD0000B6010F94964786169706A806B90640F412
:10CD1000C501B401A70196010F94A54729013A0165
:10CD200088E5829DF001839DF00D1124ED51F74FB0
:10CD3000C58CD68CE78CF0A0C114D104E104F104B9
:10CD400041F12091C7083091C8084091C90850911D
:10CD5000CA082415350546055705D8F468AD79ADE0
:10CD60008AAD9BAD0F9496474B015C01A3019201E4
:10CD7000C701B6010F94964786169706A806B9060E
:10CD800040F4C501B401A70196010F94A5472901FC
:10CD90003A0188E5829DF001839DF00D1124ED514B
:10CDA000F74FC1A0D2A0E3A0F4A0C114D104E104C4
:10CDB000F10409F4CACB2091CB083091CC08409102
:10CDC000CD085091CE08241535054605570508F0C5
:10CDD000BCCB68AD79AD8AAD9BAD0F9496474B0146
:10CDE0005C01A3019201C701B6010F949647861614
:10CDF0009706A806B90608F0A8CBC501B401A7019B
:10CE000096010F94A54729013A019FCB8114910403
:10CE1000A104B104A9F16091BF087091C00880918C
:10CE2000C1089091C208641575058605970540F5FF
:10CE30000F949D432CAD3DAD4EAD5FAD0F94FE43C1
:10CE40006B017C01C501B4010F949D434B015C0152
:10CE5000C301B2010F949D43A50194010F94FE43B9
:10CE6000A70196010F94294A181654F4A5019401BC
:10CE7000C701B6010F94DF480F944C492B013C01C8
:10CE800088E5829DF001839DF00D1124ED51F74F4F
:10CE9000818C928CA38CB48C81149104A104B10474
:10CEA000A9F16091C3087091C4088091C508909160
:10CEB000C608641575058605970540F50F949D43D2
:10CEC0002CAD3DAD4EAD5FAD0F94FE436B017C01CB
:10CED000C501B4010F949D434B015C01C301B20134
:10CEE0000F949D43A50194010F94FE43A701960161
:10CEF0000F94294A181654F4A5019401C701B601EC
:10CF00000F94DF480F944C492B013C0188E5829D2A
:10CF1000F001839DF00D1124ED51F74F858C968C17
:10CF2000A78CB0A081149104A104B104A9F160916F
:10CF3000C7087091C8088091C9089091CA08641503
:10CF400075058605970540F50F949D432CAD3DADC5
:10CF50004EAD5FAD0F94FE436B017C01C501B40182
:10CF60000F949D434B015C01C301B2010F949D439B
:10CF7000A50194010F94FE43A70196010F94294A3D
:10CF8000181654F4A5019401C701B6010F94DF48A7
:10CF90000F944C492B013C0188E5829DF001839D53
:10CFA000F00D1124ED51F74FC1A0D2A0E3A0F4A0E1
:10CFB000C114D104E104F10409F4C7CA6091CB089B
:10CFC0007091CC088091CD089091CE0864157505BC
:10CFD0008605970508F0B9CA0F949D432CAD3DAD69
:10CFE0004EAD5FAD0F94FE434B015C01C701B6012E
:10CFF0000F949D436B017C01C301B2010F949D43CB
:10D00000A70196010F94FE43A50194010F94294AAC
:10D0100018160CF09ACAA7019601C501B4010F9425
:10D02000DF480F944C492B013C018FCAF8ADFF2318
:10D0300029F1A5019401612F702F8BA19FA10F945D
:10D04000FE434B015C012BA53FA54BA95CA9C70181
:10D05000B6010F94FE43A50194010F94294A1816B6
:10D0600014F5A7019601C501B4010F94DF486BA721
:10D070007FA78BAB9CAB21E028AF26CBA701960105
:10D08000C501B4010F94DF489B01AC016BA57FA5DE
:10D090008BA99CA90F94FE436BA77FA78BAB9CAB7E
:10D0A00031E038AF11CB41E048AF0ECBC0907812E1
:10D0B000D0907912E0907A12F0907B122DEB37E34A
:10D0C00046E855E3C701B6010F94994387FD14CB99
:10D0D000C701B6010F946E4A6B017C019B01AC0144
:10D0E000612F702F8BA19FA10F94994387FD04C0DE
:10D0F0001C2D0D2DEBA2FFA29601A701612F702F11
:10D100008BA19FA10F94DF4866966CAF7DAF8EAF69
:10D110009FAF6697ECE7F2E12696FFAFEEAF26975A
:10D1200020E030E040E85FE328AF39AF4AAF5BAFC3
:10D130001CAE2696AEADBFAD26976D917D918D91BB
:10D140009D912696BFAFAEAF269766962CAD3DADAE
:10D150004EAD5FAD66970F94FE436B017C012E963A
:10D16000EEADFFAD2E9781909190A190B1902E964B
:10D17000FFAFEEAF2E97FCADFF2391F028AD39AD98
:10D180004AAD5BAD0F94FE436B017C0128AD39AD18
:10D190004AAD5BADC501B4010F94FE434B015C0188
:10D1A000A5019401C701B6010F94294A20E030E09F
:10D1B000A90118162CF5C501B4010F94294A1816B7
:10D1C0004CF020E030E0A901C701B6010F9499436B
:10D1D00087FF05C0A5019401C701B60124C0240141
:10D1E000350177FA709477F87094A3019201C70122
:10D1F000B6010F94294A18165CF52601370128C09C
:10D20000C501B4010F94994387FD09C020E030E0C7
:10D21000A901C701B6010F94294A18164CF4A701B9
:10D220009601C501B4010F9402482B013C0110C0C6
:10D230002601370177FA709477F87094A50194016C
:10D24000C301B2010F94294A181614F024013501C4
:10D250006096AEADBFAD6097CD90DD90ED90FD9046
:10D260006096BFAFAEAF6097A7019601C301B20150
:10D270000F94294A1816ACF4A3019201C701B60114
:10D280000F94DF489B01AC0168AD79AD8AAD9BADD1
:10D290000F94FE4368AF79AF8AAF9BAFBCADBF5F61
:10D2A000BCAF2696EEADFFAD2697EC58F24109F0E3
:10D2B00040CF3CAD332371F028AD39AD4AAD5BAD05
:10D2C000612F702F8BA19FA10F94FE43162F072F64
:10D2D0008BA39FA324EA30E74DE75FE3612F702F14
:10D2E0008BA19FA10F94FE436B017C019B01AC01BC
:10D2F0006091ED057091EE058091EF059091F0053C
:10D300000F94294A18165CF4A70196016BA57FA516
:10D310008BA99CA90F94294A18160CF4EDC91BA7D8
:10D320000FA70BA10BAB1FA11CABE6C983E043CA3F
:10D33000F09052128FEF8F0D8F708BA3B09051121F
:10D3400080915212B81206C0009151120BA3C12C49
:10D35000D12C69C0C12CD12C1BA11B15A9F31BA179
:10D36000812E912C28E5289D8001299D100D1124E6
:10D370000D51174FD8018C9183FD27C00BAB1CAB0F
:10D380000115110521F11996BC91BFA3F801F28591
:10D39000FBA7D8011B96BC91BFA7F801A4844580C8
:10D3A0005680678070842FA13BA54B2F5A2DC30157
:10D3B000B2010F94994381117FC1C114D10439F096
:10D3C000D6018C9180FD78C102C0CBAADCAA8BA1CA
:10D3D00081508F708BA380915112B81649F00BA128
:10D3E0000B1509F4B1CF81E08B0D8F70B82EF3CF00
:10D3F000CBA8DCA8B1CF0BA1802E912C28E5289DCD
:10D400008001299D100D11240D51174FD8018C91C9
:10D4100083FD15C05801C114D10459F48BA18F5F4D
:10D420008F708BA36501809152121BA11813E3CF5B
:10D430006BCAC6010E94959E8111F0CFB3C15601FF
:10D44000EDCF8FA181508F70989FF0011124ED5185
:10D45000F74F208123FF63CA8FA35DCA28E53BA154
:10D46000239FC0011124AC014D51574F1A01DA011D
:10D470008C9183FD19C015966D917D918D919C9134
:10D4800018970F946E4AF62EE72ED82EC92E011546
:10D49000110509F48AC0F801808180FD0AC0D1011C
:10D4A0008C9180FD06C081C0FBA4EFA4DBA8CCA8B2
:10D4B00081C0F801808181608083C8010E94959EAF
:10D4C00081116FC0F80161817281838194810F9411
:10D4D0006E4A2B013C019B01AC0160E070E080E8EA
:10D4E0009FE30F94DF484B015C019B01AC016F2D62
:10D4F0007E2D8D2D9C2D0F94FE4369837A838B8323
:10D500009C83A50194016BA57FA58BA99CA90F9471
:10D51000FE43698B7A8B8B8B9C8BAE014F5F5F4F89
:10D52000BE016F5E7F4FC8010F942127D801D796A7
:10D530008C918823B1F12091C4113091C511409193
:10D54000C6115091C711F801FE96608171818281E8
:10D5500093810F94FE4320914B1830914C184091C9
:10D560004D1850914E180F94FE434B015C019B01E6
:10D57000AC01C301B2010F94FE430F944C49F80172
:10D5800073AF62AFA50194016F2D7E2D8D2D9C2D63
:10D590000F94FE430F944C49D801DD967C936E9313
:10D5A000DC97F80180818E7F80838F2C9E2CAD2CA0
:10D5B000BC2C81018BA18F5F8F708BA3FBA6EFA684
:10D5C000DBAACCAAB8C9D1018C9181608C93C80127
:10D5D0000E94959E81116BC0F101618172818381EE
:10D5E00094810F946E4A6B017C019B01AC0160E059
:10D5F00070E080E89FE30F94DF482B013C012DECA5
:10D600003CEC4CE45DE30F94FE4369837A838B83A7
:10D610009C83A3019201B401C5010F94FE43698B61
:10D620007A8B8B8B9C8BAE014F5F5F4FBE016F5E21
:10D630007F4FC1010F942127D101D7968C91882368
:10D64000B1F12091C4113091C5114091C611509192
:10D65000C711F101FE9660817181828193810F94DF
:10D66000FE4320914B1830914C1840914D18509129
:10D670004E180F94FE434B015C019B01AC01C701A6
:10D68000B6010F94FE430F944C49F10173AF62AFA2
:10D690002DEC3CEC4CE45DE3C501B4010F94FE437A
:10D6A0000F944C49D101DD967C936E93DC97F10188
:10D6B00080818E7F808347C928E5289DF001299DC0
:10D6C000F00D1124ED51F74F808181FD3FC0C11451
:10D6D000D10431F0F601C580D680E780F08408C01F
:10D6E0008BE0C82E87EDD82E83E2E82E8BE3F82E50
:10D6F00028E5289DF001299DF00D1124ED51F74FEB
:10D7000081899289A389B489BC01CD0190589B017C
:10D71000AC010F940348D8011D962D913D914D9178
:10D720005C9150970F94FE439B01AC01C701B60179
:10D730000F9402481B016C019B01AC016FA17BA5FA
:10D740008FA59A2D0F94994387FF04C02FA03BA467
:10D75000CFA4DA2C9101A601C301B2010F94994321
:10D76000882309F434CEB8E5B89DC001B99D900D69
:10D770001124FC01ED51F74F4F01808181608083BE
:10D78000C8010E94959E882329F0D4018C918E7F38
:10D790008C931DCEC101D601F40185839683A783A6
:10D7A000B08715CED6018C9181FD50C0D60115965B
:10D7B0002D913D914D915C9118972FA338A749A7C2
:10D7C0005AA71501B5E02B0E311CF8014580568093
:10D7D00067807084A30192016FA178A589A59AA59D
:10D7E0000F94994387FF32C0F60181899289A389FA
:10D7F000B489BC01CD0190589B01AC010F94034842
:10D80000D6011D962D913D914D915C9150970F94AD
:10D81000FE439B01AC016FA178A589A59AA50F9441
:10D8200002486B017C01A30192010F94994387FF89
:10D830000DC0D8018C9181608C93C5010E94959E8A
:10D840008823E1F0F80180818E7F808318E5189DA0
:10D85000F001199DF00D1124ED51F74F218532850E
:10D860004385548565817681878190850F9499439E
:10D870008111D4CD0BA100935112D0CDD101CD9205
:10D88000DD92ED92FC9213970BA100935112DECF23
:10D89000C458DF4F0FB6F894DEBF0FBECDBFDF9187
:10D8A000CF911F910F91FF90EF90DF90CF90BF909D
:10D8B000AF909F908F907F906F905F904F903F9030
:10D8C0002F9008958091521290915312891B8F705E
:10D8D0008F3021F480E00E9417ADF4CF8091521276
:10D8E0008F5F8F70E091521298E59E9FF001112496
:10D8F000ED51F74FDF011D929A95E9F798E090837B
:10D9000040919C1250919D1260919E1270919F12B5
:10D91000458B568B678B708F4091A0125091A1124E
:10D920006091A2127091A312418F528F638F748FF6
:10D930004091A4125091A5126091A6127091A71265
:10D94000458F568F678F70A34091A8125091A912EE
:10D950006091AA127091AB1241A352A363A374A366
:10D960002091521290915312291303C094E6909380
:10D970004F128093521280916F00826080936F00EB
:10D9800008959091521280915312981721F080E0DF
:10D990000E9417ADF6CF8091F2059091F305892B87
:10D9A000B1F708958F929F92AF92BF92EF92FF923C
:10D9B0000F931F93CF93DF937B018A01E901FC0151
:10D9C00080809180A280B38020913F1830914018D0
:10D9D0004091411850914218C501B4010F94FE4383
:10D9E0000F94344A60939C1270939D1280939E1200
:10D9F00090939F12209143183091441840914518FC
:10DA000050914618F70160817181828193810F9452
:10DA1000FE430F94344A6093A0127093A112809336
:10DA2000A2129093A3122091471830914818409168
:10DA3000491850914A18F80160817181828193815F
:10DA40000F94FE430F94344A6093A4127093A5126E
:10DA50008093A6129093A71220914B1830914C18E6
:10DA600040914D1850914E18688179818A819B812F
:10DA70000F94FE430F94344A6093A8127093A91236
:10DA80008093AA129093AB1280928C1290928D1276
:10DA9000A0928E12B0928F12F70180819181A281A3
:10DAA000B3818093901290939112A0939212B093AD
:10DAB0009312F80180819181A281B38180939412A5
:10DAC00090939512A0939612B093971288819981A2
:10DAD000AA81BB818093981290939912A0939A1275
:10DAE000B0939B129091521280915312981759F053
:10DAF000DF91CF911F910F91FF90EF90BF90AF906A
:10DB00009F908F90DFCE3DDF80916F0081FB992742
:10DB100090F981FF05C080916F008D7F80936F0029
:10DB200040919C1250919D1260919E1270919F1293
:10DB300040932F1850933018609331187093321817
:10DB40004091A0125091A1126091A2127091A31263
:10DB500040933318509334186093351870933618E7
:10DB60004091A4125091A5126091A6127091A71233
:10DB700040933718509338186093391870933A18B7
:10DB80004091A8125091A9126091AA127091AB1203
:10DB900040933B1850933C1860933D1870933E1887
:10DBA000992329F080916F00826080936F00DF914C
:10DBB000CF911F910F91FF90EF90BF90AF909F90EA
:10DBC0008F9008959091521280915312981721F0DE
:10DBD00080E00E9417ADF6CF8091F2059091F30599
:10DBE000892BB1F70C9496AC4F925F926F927F9213
:10DBF0008F929F92AF92BF92FF920F931F93CF93FA
:10DC0000DF93182F8CEC96E190933E0880933D08AB
:10DC10001092E81682E090E0A0E0B0E08093D11688
:10DC20009093D216A093D316B093D41610923C08BA
:10DC3000109238081092390810923A0810923B0856
:10DC40008FEF9FEFDC018093340890933508A09309
:10DC50003608B0933708112379F1153008F0F9C070
:10DC600040E060E070E0CB010F949D2C882309F424
:10DC7000F0C020E1129FC00111248C5D994FFC017E
:10DC8000E254FE4F20812F7709F0E3C03C9640819B
:10DC9000518162817381443651056105710508F433
:10DCA000D8C0349780809180A280B3808114910481
:10DCB000A104B10421F4CDC0812C912C540140E089
:10DCC000C501B4010F949D2CF82E882309F4C1C01E
:10DCD00080913F06909140068115924009F0B9C0AD
:10DCE000A0914406AA2309F4B4C060914206709141
:10DCF00043066115710509F4ACC020914106222349
:10DD000009F4A7C0A093E3162093D51680E030E075
:10DD1000E1E0F0E0C82FAF01082E02C0440F551F0C
:10DD20000A94E2F72417350741F0982F8F5F983057
:10DD300089F789E08093DE168CC08093DE162091EF
:10DD40004A0630914B062115310519F040E050E0AC
:10DD500008C0209158063091590640915A065091BA
:10DD60005B062093D6163093D7164093D81650935F
:10DD7000D91624013501460E571E611C711C4092B4
:10DD8000E4165092E5166092E6167092E716E0915E
:10DD90004506F0914606F093EA16E093E916B0E0E6
:10DDA0000F94E347460E571E681E791E4092EB16ED
:10DDB0005092EC166092ED167092EE1685E0EE0F22
:10DDC000FF1F8A95E1F7E150FE4FEF2FFF27E69501
:10DDD0004E0E5F1E611C711C4092DF165092E016C1
:10DDE0006092E1167092E216209147063091480643
:10DDF0002115310521F0890120E030E008C00091B3
:10DE00005406109155062091560630915706B501DB
:10DE1000A4014419550966097709400F511F621F73
:10DE2000731F04C07695679557954795CA95D2F7A5
:10DE30004093DA165093DB166093DC167093DD1670
:10DE4000453F2FE052076105710528F48CE080936F
:10DE5000E816F12C1AC0453F5F4F6105710510F4BB
:10DE600080E111C08091600690916106A0916206E8
:10DE7000B09163068093EB169093EC16A093ED1689
:10DE8000B093EE1680E28093E8168F2DDF91CF914C
:10DE90001F910F91FF90BF90AF909F908F907F90B8
:10DEA0006F905F904F9008950F931F93CF93DF93E0
:10DEB000CDB7DEB76F970FB6F894DEBF0FBECDBFFC
:10DEC0008B0122E02093A81790933B1280933A1283
:10DED00040E050E0BA018AE795E10F94F52E8BE11E
:10DEE000EAE7F5E1DE01159601900D928A95E1F7DA
:10DEF00080917815909179159C838B8382E693E0CD
:10DF00009A838983A801BE016F5F7F4F80E090E014
:10DF10000F949020CE0101960E948BAB6F960FB6A6
:10DF2000F894DEBF0FBECDBFDF91CF911F910F914F
:10DF300008952F923F924F925F926F927F928F92AD
:10DF40009F92AF92BF92CF92DF92EF92FF920F9388
:10DF50001F93CF93DF93CDB7DEB76F970FB6F894CB
:10DF6000DEBF0FBECDBF6C012DB63EB61D8218863A
:10DF70001C821B8282E693E09A838983FB01808165
:10DF80009E012F5F3F4F39018F3239F086E795E1CF
:10DF9000F601918380838B0162C087E595E1F601EC
:10DFA000918380838B010F5F1F4F0115110509F4C9
:10DFB00056C04DB65EB66FE270E0C8010F94364BA6
:10DFC0004C010817190708F04AC07C01E01AF10A51
:10DFD000FF24C70101962DB73EB7281B390B0FB69A
:10DFE000F8943EBF0FBE2DBF8DB79EB701965C0162
:10DFF000A701B8010F94564BF501EE0DFF1D1082DD
:10E00000F601608171816115710511F06C5F7F4FC0
:10E0100021E0A501CE0105960E946DF3811113C088
:10E02000B50186E392E10E94BE808EE20E94F1F487
:10E030008AE00E94F1F40FB6F8945EBE0FBE4DBEAA
:10E0400000E010E00CC0F6017182608284010F5F75
:10E050001F4F0FB6F8945EBE0FBE4DBEA6CFC301D4
:10E060000E948BABC8010FB6F8943EBE0FBE2DBE0A
:10E070006F960FB6F894DEBF0FBECDBFDF91CF9184
:10E080001F910F91FF90EF90DF90CF90BF90AF90D6
:10E090009F908F907F906F905F904F903F902F90C8
:10E0A000089510924508109204158091F616882361
:10E0B00021F083EF96E10C945AF00895DF92EF92ED
:10E0C000FF920F931F93CF93DF9300D01F921F9265
:10E0D000CDB7DEB720910515222309F491C1D62EC4
:10E0E0007C018091F616882309F4A5C0442309F425
:10E0F0005AC180910E17882329F1EFE2F2E1849151
:10E100008F010F5F1F4F882321F00E94F1F4F80167
:10E11000F6CFECEEF1E184918F010F5F1F4F882362
:10E1200021F00E94F1F4F801F6CF61E070E080E0A8
:10E1300090E00E94AAF58AE00E94F1F483EE91E15A
:10E140000E94AAAC84E197E19A8389838FE280934D
:10E15000131781E08B8310E00FE18091CB16181725
:10E1600078F4019FC0011124AE014D5F5F4FBE01E5
:10E170006F5F7F4F8B569A4E0E9460821F5FEDCF7C
:10E180008B8187FD0FC0AE014D5F5F4FBE016F5F9A
:10E190007F4F8FEE96E10E94608289819A8101977C
:10E1A0009A838983E981FA811082E0910E1784E0D5
:10E1B000E89FF0011124E15FF84E8091A41790913F
:10E1C000A517A091A617B091A71780839183A2836A
:10E1D000B383E1E6F5E584918F010F5F1F4F88233C
:10E1E00021F00E94F1F4F801F6CFB7018AEC91E139
:10E1F0000E94BE8060910E179DE8699FB0011124B6
:10E200006D5E784E8FEB91E10E94BE804091A41725
:10E210005091A5176091A6177091A71789EB91E10E
:10E220000E94B17F8AE00E94F1F480910E178F5F07
:10E2300080930E1726C04423C1F0E1E6F5E58491F2
:10E240008F010F5F1F4F882321F00E94F1F4F80126
:10E25000F6CFE9EAF1E184918F010F5F1F4F882328
:10E2600081F00E94F1F4F801F6CF10920E1792E0BF
:10E270009BC0B70180E991E10E94BE808AE00E94C4
:10E28000F1F40FDFB701CE01039653DE8C01892B29
:10E2900009F4B6C09B818C81692F782FDD2009F4A9
:10E2A00059C06115710511F06C5F7F4F21E0A80125
:10E2B00083EF96E10E946DF3882309F447C08091B3
:10E2C000041790910517A0910617B0910717809336
:10E2D000A0179093A117A093A217B093A317109221
:10E2E000A4171092A5171092A6171092A717B8019D
:10E2F00082E891E10E94BE804091A0175091A11741
:10E300006091A2177091A3178AE791E10E94B17FF3
:10E310008AE00E94F1F4EBE6F1E184917F019FEF46
:10E32000E91AF90A882321F00E94F1F4F701F5CFE8
:10E33000B80180E090E0B8DD80911415882319F0D1
:10E3400084E195E101C0C80160E02AC0B80187E519
:10E3500091E110C06115710511F06C5F7F4F26E5EA
:10E36000A80183EF96E10E946DF381110CC0B80102
:10E3700083E491E10E94BE808EE20E94F1F48AE083
:10E380000E94F1F43DC081E080930215B70181E362
:10E3900091E10E94BE808AE00E94F1F460E0C80131
:10E3A0000E9406C02DC091E09D83E1E6F5E58491D1
:10E3B0008F010F5F1F4F882321F00E94F1F4F801B5
:10E3C000F6CFE4EAF1E184918F010F5F1F4F8823BC
:10E3D00021F00E94F1F4F801F6CF9D81913019F0FF
:10E3E000EEE9F1E102C0E8E9F1E184918F010F5F0C
:10E3F0001F4F882309F43DCF0E94F1F4F801F5CFB7
:10E400000F900F900F900F900F90DF91CF911F9171
:10E410000F91FF90EF90DF900895EF92FF921F937E
:10E42000CF93DF931F92CDB7DEB7182FEFE2F2E163
:10E4300084917F012FEFE21AF20A882331F0998349
:10E440000E94F1F4F7019981F3CFE12FF92F849124
:10E450007F019FEFE91AF90A882321F00E94F1F465
:10E46000F701F5CF6091410870914208809143080F
:10E47000909144080E94AAF58AE00E94F1F40F945A
:10E48000B83E1092400810923F080F90DF91CF9154
:10E490001F91FF90EF900895CF92DF92EF92FF923D
:10E4A000CF93DF93EB01FC016081718182819381C5
:10E4B0002CE3C22ED12CE12CF12CA70196010F9454
:10E4C000A547CA01B901A70196010F94A5472436B3
:10E4D0003105B0F47F936F933F932F9387E291E1DF
:10E4E0009F938F93DF93CF930F9432438DB79EB753
:10E4F00008960FB6F8949EBF0FBE8DBF85E015C07D
:10E500007F936F933F932F938FE191E19F938F932D
:10E51000DF93CF930F943243EDB7FEB738960FB623
:10E52000F894FEBF0FBEEDBF86E0DF91CF91FF9064
:10E53000EF90DF90CF900895CF92DF92EF92FF920D
:10E540001F93CF93DF931092051580915E1588235A
:10E5500021F08BE595E10E945AF01092D0161092AE
:10E56000CD1685E38093CC160E940C4BEB01A89549
:10E5700061E08091CC160E94CF498CEC96E10E941C
:10E5800013EA2398229A219A209A289A85E0809368
:10E59000CE1682E58CBD1DBC1AE08FEF0E9418EAF2
:10E5A0001150D9F720E030E0A90160E08CEC96E151
:10E5B0000E943EEA182F8093CF16813049F00E94C6
:10E5C0000C4B6C1B7D0B613D774060F381E054C0C8
:10E5D0002AEA31E040E050E068E08CEC96E10E94ED
:10E5E0003EEA82FF03C01093D0160EC014E00E94D2
:10E5F0001DEA8093CF161150D1F78A3A11F082E0CC
:10E600003BC082E08093D0168091D016823021F0FA
:10E61000C12CD12C760105C0C12CD12CE12C80E479
:10E62000F82E20E030E0A90167E38CEC96E10E942F
:10E630003EEAA701960169E28CEC96E10E943EEA6F
:10E640008093CF16882349F00E940C4B6C1B7D0BE6
:10E65000613D774030F38AE00FC08091D016823060
:10E6600011F520E030E0A9016AE38CEC96E10E940C
:10E670003EEA882351F088E08093CD168CEC96E139
:10E680000E9413EAE1E6F5E519C00E941DEA807CCC
:10E69000803C19F483E08093D0160E941DEA0E940A
:10E6A0001DEA0E941DEA8CEC96E10E9413EA10928A
:10E6B000CE1681E099DA811131C015C08491EF0145
:10E6C0002196882321F00E94F1F4FE01F7CFE1E1C9
:10E6D000F1E18491EF012196882309F456C00E944C
:10E6E000F1F4FE01F6CF80E07FDA811117C0EFE28E
:10E6F000F2E18491EF012196882321F00E94F1F448
:10E70000FE01F7CFEDEFF0E18491EF012196882330
:10E7100009F43BC00E94F1F4FE01F6CF61ED76E111
:10E720008BE595E10E94B7EF811116C0EFE2F2E1AF
:10E730008491EF012196882321F00E94F1F4FE01DB
:10E74000F7CFECEEF0E18491EF0121968823E9F018
:10E750000E94F1F4FE01F7CF81E080930515E1E618
:10E76000F5E58491EF012196882321F00E94F1F4D0
:10E77000FE01F7CFE0EEF0E18491EF0121968823CE
:10E7800021F00E94F1F4FE01F7CF8BE1EBE5F5E11A
:10E79000AAE7B5E101900D928A95E1F780915915AC
:10E7A00090915A159093791580937815DF91CF91B8
:10E7B0001F91FF90EF90DF90CF9008950F931F93DC
:10E7C000CF93DF938C01EB019091C0142091C11481
:10E7D000921307C084EB94E10E94184B0E942C7E98
:10E7E000F3CFF801A081B181488159818091BF1494
:10E7F00034E0839FF0011124E854FB4EB387A287D5
:10E80000558744879F5F9093C0148F5F821719F0DC
:10E810008093BF1402C01092BF14DF91CF911F915B
:10E820000F910895CF93DF93CDB7DEB78091330674
:10E8300081110EC09E01275F3F4F4F81588566E1D1
:10E8400070E08CE196E00F94614383E08093540282
:10E85000DF91CF91089510921B0660931A0690E005
:10E860008A30910550F5FC018827EA56FF4F8F4FFB
:10E870000D94F24A8CE091E019C088E091E016C056
:10E8800082E391E013C086E091E010C086E291E05F
:10E890000DC08AE091E00AC082E291E007C01092C8
:10E8A000190688E291E002C088E191E0009729F022
:10E8B00021E0209349120D94EC1E0C94744DAF92FC
:10E8C000BF92CF92DF92EF92FF920F931F93CF935D
:10E8D000DF937C01EB015A0169010E94544D23E052
:10E8E00020935402F0921506E0921406D09313067A
:10E8F000C0931206A501BB0C660B770B40930E0666
:10E9000050930F066093100670931106C601DD0C3C
:10E91000AA0BBB0B841B950BA60BB70B80930A06A7
:10E9200090930B06A0930C06B0930D0688819981F5
:10E93000092E000CAA0BBB0B841B950BA60BB70B67
:10E9400080934A1290934B12A0934C12B0934D12A5
:10E950008AE291E090935602809355021093180634
:10E960000093170610921606DF91CF911F910F9119
:10E97000FF90EF90DF90CF90BF90AF9008952F92CF
:10E980003F924F925F926F927F928F929F92AF923F
:10E99000BF92CF92DF92EF92FF920F931F93CF938C
:10E9A000DF9300D01F92CDB7DEB75C011B01298336
:10E9B0003A834B835C830E94544D83E080935402DE
:10E9C000B0921506A09214063092130620921206F9
:10E9D00029813A814B815C81CA01B9010F94474971
:10E9E00060930E0670930F068093100690931106A5
:10E9F0000F949F434B015C019B01AC01C801B7011F
:10EA00000F9402480F94474960930A0670930B06CF
:10EA100080930C0690930D06A5019401F10160818D
:10EA20007181828193810F9402480F944C496093C5
:10EA30004A1270934B1280934C1290934D128EE2B7
:10EA400091E09093560280935502D0921806C0929E
:10EA50001706109216060F900F900F900F90DF91EF
:10EA6000CF911F910F91FF90EF90DF90CF90BF90CB
:10EA7000AF909F908F907F906F905F904F903F905E
:10EA80002F9008950F931F93CF93DF938C01EB0189
:10EA90000E94544D83E08093540210931506009316
:10EAA0001406D0931306C093120684EF91E0A0E001
:10EAB000B0E080930E0690930F06A0931006B093DB
:10EAC000110688EE9FE3AFE0B0E080930A069093D2
:10EAD0000B06A0930C06B0930D0620E030E048EC46
:10EAE00052E4688179818A819B810F94FE4320E002
:10EAF00030E04AEF53E40F9402480F944C4960937E
:10EB00004A1270934B1280934C1290934D128EEADE
:10EB10009BEB90935602809355028EE99CEF909365
:10EB200018068093170610921606DF91CF911F9159
:10EB30000F910895CF92DF92EF92FF920F931F9360
:10EB4000CF93DF9300D01F92CDB7DEB77C018B014E
:10EB500029833A834B835C830E94544D83E08093E6
:10EB60005402F0921506E0921406109313060093D7
:10EB7000120629813A814B815C81CA01B9010F9447
:10EB80009D432AE037ED43E25CE30F94FE430F948C
:10EB9000474960930E0670930F068093100690937A
:10EBA00011060F949F436B017C019B01AC0160E057
:10EBB00070E887E794E40F9402480F944749609304
:10EBC0000A0670930B0680930C0690930D06F801CD
:10EBD00060817181828193810F949D432AE037ED9A
:10EBE00043E25CE30F94FE43A70196010F940248B1
:10EBF0000F944C4960934A1270934B1280934C12BD
:10EC000090934D1286EE9AEB9093560280935502A4
:10EC100082E297EF909318068093170610921606DB
:10EC20000F900F900F900F90DF91CF911F910F9148
:10EC3000FF90EF90DF90CF9008951F93CF93DF93D5
:10EC4000D82FC62F142F682F8C2F0E9448519091D7
:10EC5000E71780910906891708F450C09091E917C9
:10EC600080910806981708F449C080911415811105
:10EC700020C0C7E0D5E109C08091070686132BC0EC
:10EC8000C0910506D0E0CC5EDA4E112319F082E087
:10EC90000F941F0815E18991882321F00F9408082B
:10ECA000181BC9F7112351F1115080E20F94851EF2
:10ECB000F9CFD11103C0C4E1D5E1E7CF6C2F8DE0CE
:10ECC0008150D0F2660F611DE82FF0E0EE5FFA4E42
:10ECD00095816927F5CF6093070684E195E10E944D
:10ECE000D1C3459797FF02C080E090E0809306066D
:10ECF0001092050688E080931F02C2CFDF91CF916A
:10ED00001F910895CF92DF92EF92FF920F931F937E
:10ED1000CF93DF93CDB7DEB7EDB6FEB6DC010D9035
:10ED20000020E9F79D01281B390B2C5F3F4F4DB7A1
:10ED30005EB7421B530B0FB6F8945EBF0FBE4DBFBC
:10ED40000DB71EB70F5F1F4F9F938F9389ED90E113
:10ED50009F938F931F930F930F943243680154E056
:10ED6000C50ED11C0F900F900F900F900F900F9029
:10ED7000F6018081882339F090E00F94FA4AF60179
:10ED800081936F01F5CFC8010E941CE385ED90E1EE
:10ED900090930406809303060E9469BD0FB6F89411
:10EDA000FEBE0FBEEDBEDF91CF911F910F91FF9080
:10EDB000EF90DF90CF900895FC01DB018C912081D2
:10EDC0003181382798E0A901440F551F37FD06C04F
:10EDD0009A019150C1F73183208308959A01B1E2DD
:10EDE0002B27B0E13B27F5CF0CB405FC0DC01EBCB2
:10EDF00000000DB407FEFDCF9EB51EBC00000DB493
:10EE000007FEFDCF8EB508951EBC00000DB407FEB1
:10EE1000FDCF8EB51EBC00000DB407FEFDCF9EB524
:10EE20000895CF92DF92EF92FF920F931F93CF93AB
:10EE3000DF9307E010E0D12CE82EF12CC02EC701A3
:10EE4000002E02C0959587950A94E2F780FF02C0D4
:10EE500061E001C060E08091F4050E94024961E038
:10EE60008091F8050E9402498091F6050E94DA48D7
:10EE7000C1E0D0E0892B11F4C0E0D0E001C0CC0F9C
:10EE8000CA94EAF7CD29DC2E60E08091F8050E9453
:10EE900002490150110990F68C2FDF91CF911F91FB
:10EEA0000F91FF90EF90DF90CF9008954F925F9277
:10EEB0006F927F928F929F92AF92BF92CF92DF928A
:10EEC000EF92FF92CF93DF93CDB7DEB72C970FB6BB
:10EED000F894DEBF0FBECDBF8091B0089091B1080D
:10EEE000A091B208B091B30889839A83AB83BC83A5
:10EEF0006091B4087091B508072E000C880B990B2F
:10EF00000F949F4329813A814B815C810F94024881
:10EF10006B017C0160937408709375088093760888
:10EF2000909377082091D0113091D1114091D21156
:10EF30005091D3110F94FE436D837E838F83988706
:10EF400060937008709371088093720890937308AF
:10EF500020916C0830916D0840916E0850916F08B7
:10EF6000C701B6010F9403484B015C0160936C0824
:10EF700070936D0880936E0890936F082091CC1168
:10EF80003091CD114091CE115091CF110F94FE438D
:10EF900069877A878B879C87609368087093690874
:10EFA00080936A0890936B0820ED3CEC4CE45DE3A1
:10EFB0006091C8117091C9118091CA119091CB11C3
:10EFC0000F94FE432B013C012091640830916508A9
:10EFD000409166085091670869817A818B819C8194
:10EFE0000F9402489B01AC01C301B2010F94FE4390
:10EFF0002B013C0123E333E343E75FE360916008C7
:10F000007091610880916208909163080F94FE43AB
:10F010009B01AC01C301B2010F9403482B013C01D9
:10F02000609360087093610880936208909363080E
:10F0300089819A81AB81BC81809364089093650833
:10F04000A0936608B093670829853A854B855C854F
:10F050006D817E818F8198850F940348A301920171
:10F060000F9402482B013C0120E030E04FE753E4CD
:10F070000F94294A20E030E0A9011816ACF4C7012A
:10F08000B6010F94294A18166CF5A7019601C5011F
:10F09000B4010F94024860936C0870936D088093DC
:10F0A0006E0890936F081EC0C301B2010F9499437C
:10F0B00087FF22C020E030E0A901C701B6010F940C
:10F0C000994387FF16C0A7019601C501B4010F94AB
:10F0D000024860936C0870936D0880936E0890935B
:10F0E0006F0807C0412C512C8FE7682E83E4782EDF
:10F0F00003C0412C512C3201C301B2012C960FB632
:10F10000F894DEBF0FBECDBFDF91CF91FF90EF909F
:10F11000DF90CF90BF90AF909F908F907F906F9037
:10F120005F904F9008952F923F924F925F926F920F
:10F130007F928F929F92AF92BF92CF92DF92EF9287
:10F14000FF92CF93DF9300D01F92CDB7DEB76090D0
:10F15000FB177090FC178090F5179090F617A09011
:10F16000F717B090F817B301072C000C880B990B18
:10F170000F949F43A50194010F9402486B017C01F9
:10F1800060935C0870935D0880935E0890935F08BD
:10F1900020ED3CEC4CE45DE36091D4117091D5110D
:10F1A0008091D6119091D7110F94FE431B012C0131
:10F1B000209158083091590840915A0850915B08A5
:10F1C000C501B4010F9402489B01AC01C201B10119
:10F1D0000F94FE431B012C0123E333E343E75FE37A
:10F1E0006091540870915508809156089091570885
:10F1F0000F94FE439B01AC01C201B1010F9403487F
:10F2000069837A838B839C83609354087093550839
:10F210008093560890935708809258089092590806
:10F22000A0925A08B0925B0880914512882321F081
:10F2300081E080935308B9C020E030E040E251E41F
:10F24000C701B6010F94294A181624F481E080936F
:10F250005308A4C020E030E040E251ECC701B60101
:10F260000F94994387FDE4CF672811F380915308E9
:10F27000882351F010924F081092500810925108B4
:10F2800010925208109253082091DC113091DD1138
:10F290004091DE115091DF11C701B6010F94FE437A
:10F2A0002B013C0160934B0870934C0880934D08F0
:10F2B00090934E0820914F0830915008409151088A
:10F2C00050915208C701B6010F9403484B015C01ED
:10F2D00060934F08709350088093510890935208A0
:10F2E0002091D8113091D9114091DA115091DB1150
:10F2F0000F94FE439B01AC0160934708709348084C
:10F300008093490890934A08C301B2010F940348BF
:10F3100029813A814B815C810F9402482B013C0189
:10F3200020E030E04FE753E40F94294A20E030E03A
:10F33000A9011816ACF4C701B6010F94294A181692
:10F340006CF5A7019601C501B4010F9402486093C2
:10F350004F087093500880935108909352081EC034
:10F36000C301B2010F94994387FF22C020E030E02F
:10F37000A901C701B6010F94994387FF16C0A701E1
:10F380009601C501B4010F94024860934F08709331
:10F390005008809351089093520807C0412C512C7B
:10F3A0008FE7682E83E4782E03C0412C512C320164
:10F3B000C301B2010F900F900F900F90DF91CF918A
:10F3C000FF90EF90DF90CF90BF90AF909F908F9085
:10F3D0007F906F905F904F903F902F9008954F9245
:10F3E0005F926F927F928F929F92AF92BF92CF92D5
:10F3F000DF92EF92FF920F931F93CF93DF933C0125
:10F40000B0E2A0E06A2F70E0AB014B0F511D5595A3
:10F4100047954A1711F04B130BC0E8ECF2E16591E8
:10F420007491072E000C880B990B0F949F4362C0B8
:10F43000CA010197880F991F880F991FFC01E65B8D
:10F44000FD4E059114919A01220F331F220F331F95
:10F45000F901E65BFD4EC591D4916016710614F476
:10F46000B42FD2CFA42FC615D7050CF4CBCF845B15
:10F470009D4EFC01E590F490F901E45BFD4EC590D2
:10F48000D490B7010F2C000C880B990B0F949F435D
:10F490004B015C01B301601B710B072E000C880B44
:10F4A000990B0F949F432B013C01B6016E197F0904
:10F4B000072E000C880B990B0F949F439B01AC0106
:10F4C000C301B2010F94FE436B017C01C01BD10B41
:10F4D000BE01DD0F880B990B0F949F439B01AC017C
:10F4E000C701B6010F94DF489B01AC01C501B4010F
:10F4F0000F940348DF91CF911F910F91FF90EF90F0
:10F50000DF90CF90BF90AF909F908F907F906F9043
:10F510005F904F9008950F930FB70F9300916E0077
:10F520000B7F00936E0078940F930BB70F930CB77B
:10F530000F921F922F933F934F935F936F937F93FD
:10F540008F939F93AF93BF93EF93FF93112409D2AF
:10F55000FF91EF91BF91AF919F918F917F916F91AB
:10F560005F914F913F912F911F900F900CBF0F9182
:10F570000BBF0F910460F89400936E000F910FBFC2
:10F580000F911895CF92DF92EF92FF92C090B00842
:10F59000D090B108E090B208F090B3088091B40820
:10F5A0009091B5080897BC01990F880B990B0F949F
:10F5B0009F439B01AC01C701B6010F94994387FF9C
:10F5C0001FC020E030E040E050E4C701B6010F94D6
:10F5D00003480F944C4970939108609390080E94DF
:10F5E0000C4BDC01CB01805A9541AF4FBF4F80934C
:10F5F0008C0890938D08A0938E08B0938F0808C054
:10F6000010928C0810928D0810928E0810928F081C
:10F61000FF90EF90DF90CF900895CF92DF92EF921E
:10F62000FF92C090F517D090F617E090F717F09082
:10F63000F8178091FB179091FC170D97BC01990F5B
:10F64000880B990B0F949F439B01AC01C701B60136
:10F650000F94994387FF1FC020E030E040E050E462
:10F66000C701B6010F9403480F944C4970938B085F
:10F6700060938A080E940C4BDC01CB01805E914BA9
:10F68000AF4FBF4F8093860890938708A093880858
:10F69000B093890808C010928608109287081092CB
:10F6A000880810928908FF90EF90DF90CF9008951E
:10F6B0001092FC171092FB1780E0AFDF1092B50894
:10F6C0001092B4085FDF0E94B44B1092FC171092A6
:10F6D000FB1780E0A2DF1092AD0875981092B50874
:10F6E0001092B4081092AE08A59808954F925F92B8
:10F6F0006F927F928F929F92AF92BF92CF92DF9242
:10F70000EF92FF920F931F93CF93DF933C01BAE3E5
:10F71000A0E06A2F70E0AB014B0F511D5595479546
:10F720004A1711F04B130BC0EFE1F4E165917491AE
:10F73000072E000C880B990B0F949F4362C0CA01DF
:10F740000197880F991F880F991FFC01E75CFC4EF9
:10F75000059114919A01220F331F220F331FF901D3
:10F76000E75CFC4EC591D4916016710614F4B42F79
:10F77000D2CFA42FC615D7050CF4CBCF855C9C4EF9
:10F78000FC01E590F490F901E55CFC4EC590D49045
:10F79000B7010F2C000C880B990B0F949F434B0162
:10F7A0005C01B301601B710B072E000C880B990BD9
:10F7B0000F949F432B013C01B6016E197F09072E60
:10F7C000000C880B990B0F949F439B01AC01C30164
:10F7D000B2010F94FE436B017C01C01BD10BBE0133
:10F7E000DD0F880B990B0F949F439B01AC01C70160
:10F7F000B6010F94DF489B01AC01C501B4010F9421
:10F800000348DF91CF911F910F91FF90EF90DF9010
:10F81000CF90BF90AF909F908F907F906F905F90B0
:10F820004F90089560E08091940890919508D7DDFD
:10F830006093F5177093F6178093F7179093F81766
:10F84000809192089091930851DF6093B008709373
:10F85000B1088093B2089093B308A89510929608C7
:10F860000895CF92DF92FF920F931F93CF93DF9370
:10F870001F921F92CDB7DEB7F82E8A018091200229
:10F88000882309F444C0EFE2F2E184916F019FEF15
:10F89000C91AD90A882341F069837A830E94F1F456
:10F8A000F60169817A81F1CFFB0184916F019FEFAD
:10F8B000C91AD90A882321F00E94F1F4F601F5CF84
:10F8C000EFECF2E184916F019FEFC91AD90A882306
:10F8D00021F00E94F1F4F601F5CFF7FC0BC06F2D7B
:10F8E000FF0C770B880B990B0E94AAF58AE00E9407
:10F8F000F1F40DC0EAECF2E184916F019FEFC91AB7
:10F90000D90A882321F00E94F1F4F601F5CF809105
:10F910004608811108C01092200281E080934608B9
:10F92000C8010E94AAAC0F900F90DF91CF911F9158
:10F930000F91FF90DF90CF90BBCE8F3F19F044E541
:10F9400054E102C044E654E165E774E18ACF8F3F99
:10F9500019F041E254E102C041E354E162E474E190
:10F9600080CF0F931F93CF93DF93809125028F3722
:10F9700090F08F579091AD089093AC08992311F0B7
:10F98000759A01C075989091AE089093AB08992331
:10F9900059F0A59A0AC09091AC08891708F075989B
:10F9A0009091AB08891708F0A5988F5F8093250286
:10F9B0009091AA0881E089278093AA0881110E946A
:10F9C00073BF80912402853018F4C1E0C80F01C0D4
:10F9D000C0E0823009F4ACC048F48823F9F08130EB
:10F9E00009F0DAC010927B0080E4B8C0843009F4DA
:10F9F000BDC008F4B0C0853009F0CEC09091A90810
:10FA0000911102C08093A9088091A9088150809328
:10FA1000A908882309F4C0C0C5E0BEC080912302B4
:10FA20008F5F80311CF480932302B6C010922302B2
:10FA300080919608811113C080919F089091A00831
:10FA4000909395088093940880919D0890919E08CA
:10FA5000909393088093920881E0809396088AE0BF
:10FA6000EFE9F8E0DF011D928A95E9F710929E0810
:10FA700010929D0800919408109195081195019598
:10FA80001109D1E08091AD08811101C0D0E08091D1
:10FA9000C1039091C20391958195910980179107B7
:10FAA00044F4DD2331F041E254E162E474E180E0AA
:10FAB000D8DE80911302909114029195819591095D
:10FAC0000817190744F4DD2331F044E554E165E7F4
:10FAD00074E180E0C6DE11E08091AE08811101C0C2
:10FAE00010E020919208309193088091BF0390918B
:10FAF000C0038217930744F0112331F041E354E12E
:10FB000062E474E18FEFADDE2091110230911202B8
:10FB1000809192089091930882179307ECF111233A
:10FB2000D9F144E654E165E774E18FEF9ADE34C021
:10FB300080917A0086FD2DC08091780090917900A7
:10FB400020919F083091A008820F931F9093A008E6
:10FB500080939F0821C010927B0082E480937C00F8
:10FB600080917A00806480937A0016C080917A0038
:10FB700086FD11C0809178009091790020919D08B8
:10FB800030919E08820F931F90939E0880939D084A
:10FB900003C0C2E001C0C4E0C093240220E030E012
:10FBA000A1E0B0E1C901880F991FFC01E956F74FA8
:10FBB000608171816115710509F436C0F8942230B5
:10FBC00001F5509109015470159840910B011616DA
:10FBD00017060CF4409544704093090100000000A2
:10FBE0004A2F4A950000E9F7429A4B2F4A950000A8
:10FBF000E9F7429840910B015111409544704093B0
:10FC000009017894FC01E956F74F161617063CF4E3
:10FC100040815181415051095183408305C0808109
:10FC200091810196918380832F5F3F4F233031056F
:10FC300009F0B8CF0E949B428091F2059091F305A4
:10FC4000009729F001979093F3058093F205DF91D7
:10FC5000CF911F910F9108958F929F92AF92BF9273
:10FC6000CF92DF92EF92FF920F93CF93DF9300D06A
:10FC70001F92CDB7DEB78091091081111CC1809110
:10FC80009608811110C00F900F900F900F90DF9188
:10FC9000CF910F91FF90EF90DF90CF90BF90AF90FA
:10FCA0009F908F900895BEDD0E940C4B4B015C012C
:10FCB0008091210290912202181619060CF01BC1A6
:10FCC0000197909322028093210280914512811125
:10FCD00017C08091820890918308A0918408B09108
:10FCE00085080097A105B10559F0A5019401281BCD
:10FCF000390B4A0B5B0B57FD03C081E08093451223
:10FD00006091FB177091FC17072E000C880B990B64
:10FD10000F949F4369837A838B839C833EE1E32E18
:10FD2000F12C00E09E012F5F3F4F45EF57E16EE75A
:10FD300078E08DE798E00F940F1FC090F517D090F2
:10FD4000F617E090F717F090F8178091C3039091A1
:10FD5000C403BC01990F880B990B0F949F439B011F
:10FD6000AC01C701B6010F94294A18160CF4A7C0BC
:10FD700060E06093AD088091860890918708A0911B
:10FD80008808B09189080097A105B10521F1A50166
:10FD90009401281B390B4A0B5B0B57FD1CC060916B
:10FDA0008A0870918B0880E090E00F949D439B013E
:10FDB000AC016091F5177091F6178091F71790914B
:10FDC000F8170F94994387FFBEC04FE053E161E2FB
:10FDD00073E180E046DD80918C0890918D08A091C0
:10FDE0008E08B0918F080097A105B10511F1881A0E
:10FDF000990AAA0ABB0AB7FC1CC0609190087091CE
:10FE0000910880E090E00F949D439B01AC016091CC
:10FE1000B0087091B1088091B2089091B3080F9426
:10FE2000994387FF87C04DEE52E160E073E18FEFA9
:10FE300018DD6091B4087091B508072E000C880B8E
:10FE4000990B0F949F4369837A838B839C839AE0F9
:10FE5000E92EF12C0FEF9E012F5F3F4F40EB58E052
:10FE600068E778E08CE798E00F940F1F80914412C8
:10FE700081113EC0C090B008D090B108E090B208A7
:10FE8000F090B30820E030E040EA50E4C701B6014A
:10FE90000F94294A87FD0BC020E030E046E153E48F
:10FEA000C701B6010F94994318160CF045C060E0E5
:10FEB0006093AE08E8CE80E393E10E94AAAC609123
:10FEC000150270911602072E000C880B990B0F94E7
:10FED0009F439B01AC01C701B6010F94994387FF73
:10FEE00047CF80E020D90F9447497595679541CF5A
:10FEF0001092AE08C8CEC090F517D090F617E090DB
:10FF0000F717F090F81720E030E848E953E4C7010C
:10FF1000B6010F94294A1816CCF020E030E040EAF0
:10FF200050E4C701B6010F94994387FFCECE80E01D
:10FF300004DDCBCE27DB7DCF0E9456770F94474957
:10FF400075956795B5CF80E068DB45CF80E0FFDC35
:10FF5000C090F517D090F617E090F717F090F817CB
:10FF6000DCCFCF92DF92EF92FF92CF93DF936A01C3
:10FF70007B01FC018491EF012196882321F00E94EE
:10FF8000F1F4FE01F7CF4AE0C701B601DF91CF914E
:10FF9000FF90EF90DF90CF900C9444F5CF92DF92DA
:10FFA000EF92FF92CF93DF936A017B01FC01849172
:10FFB000EF012196882321F00E94F1F4FE01F7CF92
:10FFC00042E0C701B601DF91CF91FF90EF90DF9043
:10FFD000CF900C94C4F5EF92FF920F931F93CF93A1
:10FFE000DF931F92CDB7DEB78C017B0180E249839E
:10FFF0000E94F1F449814F3F11F084E501C082E491
:020000021000EC
:100000000E94F1F48AE30E94F1F4F80160817181A9
:100010008281938142E00E94C4F5F70140815181C1
:100020006281738187E894E1B9DF62E070E080E08B
:1000300090E00F90DF91CF911F910F91FF90EF9083
:100040000C94D24A0F931F93CF93DF93CDB7DEB7B3
:1000500028970FB6F894DEBF0FBECDBF6091FB1797
:100060007091FC17072E000C880B990B0F949F437F
:100070006D837E838F8398878091F5179091F61713
:10008000A091F717B091F81789839A83AB83BC834B
:100090004DEFBE016B5F7F4FCE0101969CDF6091FB
:1000A000B4087091B508072E000C880B990B0F94BB
:1000B0009F436D837E838F8398878091B008909152
:1000C000B108A091B208B091B30889839A83AB8339
:1000D000BC834FEFBE016B5F7F4FCE0101967BDF8C
:1000E000EFE8F4E184918F010F5F1F4F882321F027
:1000F0000E94F1F4F801F6CFE091AF08F0E0E3558B
:10010000F74F608170E080E090E00E94AAF5EAE895
:10011000F4E184918F010F5F1F4F882321F00E942B
:10012000F1F4F801F6CF6091AE0870E080E090E065
:100130000E94AAF528960FB6F894DEBF0FBECDBF79
:10014000DF91CF911F910F9108950F931F93CF933C
:10015000DF938B01FC018491EF012196882321F02C
:100160000E94F1F4FE01F7CFB801110F880B990B33
:10017000DF91CF911F910F910C94AAF50F931F93CC
:10018000CF93DF931F921F92CDB7DEB7FC0184910E
:100190008F010F5F1F4F811102C08B0108C069835F
:1001A0007A830E94F1F4F80169817A81F0CFF80135
:1001B00081918F01882319F00E94F1F4F8CF0F90FC
:1001C0000F90DF91CF911F910F9108954F925F9201
:1001D0006F927F928F929F92AF92BF92CF92DF9257
:1001E000EF92FF92CF93DF93CDB7DEB728970FB68C
:1001F000F894DEBF0FBECDBF2496AEADBFAD249741
:100200008D919D910D90BC91A02D89839A83AB8394
:10021000BC832296EEADFFAD2297C080D180E280F4
:10022000F380AEADBFAD8D909D90AD90BC902E8D06
:100230003F8D48A159A1C501B4010F94FE432B0184
:100240003C012AA53BA54CA55DA5C701B6010F94AD
:10025000FE439B01AC01C301B2010F9403482B0183
:100260003C012EA93FA948AD59AD69817A818B81A6
:100270009C810F94FE439B01AC01C301B2010F941A
:1002800003486D837E838F8398872AA13BA14CA16D
:100290005DA1C501B4010F94FE432B013C012EA5C5
:1002A0003FA548A959A9C701B6010F94FE439B0178
:1002B000AC01C301B2010F9403482B013C012AADEC
:1002C0003BAD4CAD5DAD69817A818B819C810F9492
:1002D000FE439B01AC01C301B2010F9403482B0103
:1002E0003C012A8D3B8D4C8D5D8DC501B4010F9471
:1002F000FE434B015C012EA13FA148A559A5C701B2
:10030000B6010F94FE439B01AC01C501B4010F94EB
:1003100003486B017C012AA93BA94CA95DA969810D
:100320007A818B819C810F94FE439B01AC01C701B4
:10033000B6010F940348EEADFFAD608371838283F5
:1003400093838D819E81AF81B8852296EEADFFADFE
:10035000229780839183A283B3832496AEADBFADF1
:1003600024974D925D926D927C92139728960FB6CA
:10037000F894DEBF0FBECDBFDF91CF91FF90EF901D
:10038000DF90CF90BF90AF909F908F907F906F90B5
:100390005F904F9008954F925F926F927F928F92ED
:1003A0009F92AF92BF92CF92DF92EF92FF920F9304
:1003B0001F93CF93DF9300D01F92CDB7DEB78C0190
:1003C000DC014D905D906D907C90139714968D900C
:1003D0009D90AD90BC90179718968D919D910D9022
:1003E000BC91A02D89839A83AB83BC83A301920126
:1003F000C301B2010F94FE436B017C01A50194017E
:10040000C501B4010F94FE439B01AC01C701B601C5
:100410000F9403486B017C0129813A814B815C81F7
:10042000CA01B9010F94FE439B01AC01C701B6019B
:100430000F9403480F946E4A9B01AC0160E070E09A
:1004400080E89FE30F94DF486B017C019B01AC01C6
:10045000C301B2010F94FE43F8016083718382836C
:100460009383A7019601C501B4010F94FE43D801FF
:1004700014966D937D938D939C931797A701960186
:1004800069817A818B819C810F94FE43F80160879A
:100490007187828793870F900F900F900F90DF9155
:1004A000CF911F910F91FF90EF90DF90CF90BF9071
:1004B000AF909F908F907F906F905F904F90089536
:1004C0000F931F93CF93DF938B01EA01DB016D91B3
:1004D0007C9104960E940AF0D801ED91FC919081E4
:1004E000888191110EC08D38B0F48FE28083F801BD
:1004F0008081918101969183808388818F5F888339
:100500000AC08D3880F73196D801ED93FC9388812D
:100510008F5F8883E1CFDF91CF911F910F91089575
:10052000FC0120E03EE2DB014C91403241F02830FA
:1005300011F430833196DB014C91408331962F5F6B
:100540006F5F7F4F2B3079F710820895EF92FF9203
:100550000F931F93CF93DF931F92CDB7DEB7082F72
:10056000162FE7EAF5E184917F012FEFE21AF20AF4
:10057000882331F099830E94F1F4F7019981F3CF38
:10058000E02FF92F84917F019FEFE91AF90A882360
:1005900021F00E94F1F4F701F5CFE5EAF5E184914D
:1005A0007F012FEFE21AF20A882321F00E94F1F472
:1005B000F701F5CF612F70E080E090E00E94AAF58E
:1005C0008AE00F90DF91CF911F910F91FF90EF90F4
:1005D0000C94F1F44F925F926F927F928F929F9260
:1005E000AF92BF92CF92DF92EF92FF92CF93DF93C1
:1005F000E2EAF5E18491EF012196882321F00E943F
:10060000F1F4FE01F7CF20910218309103184091C8
:1006100004185091051860911B1870911C18809156
:100620001D1890911E180F94034842E00E94C4F5D3
:10063000EEE9F5E18491EF012196882321F00E94F3
:10064000F1F4FE01F7CF2091061830910718409180
:1006500008185091091860911F1870912018809106
:100660002118909122180F94034842E00E94C4F58B
:10067000EAE9F5E18491EF012196882321F00E94B7
:10068000F1F4FE01F7CF20910A1830910B18409138
:100690000C1850910D1860912318709124188091B6
:1006A0002518909126180F94034842E00E94C4F543
:1006B000E6E9F5E18491EF012196882321F00E947B
:1006C000F1F4FE01F7CF60912718709128188091FE
:1006D000291890912A1842E00E94C4F580916F0079
:1006E00081FB992790F981FF05C080916F008D7F74
:1006F00080936F0040902F18509030186090311800
:10070000709032188090331890903418A09035185B
:10071000B0903618C0903718D0903818E09039183B
:10072000F0903A18992329F080916F0082608093AD
:100730006F00ECE8F5E18491EF012196882321F028
:100740000E94F1F4FE01F7CFC301B2010E94AAF5A5
:10075000E8E8F5E18491EF012196882321F00E94D9
:10076000F1F4FE01F7CFC501B4010E94AAF5E4E857
:10077000F5E18491EF012196882321F00E94F1F4A4
:10078000FE01F7CFC701B6010E94AAF58AE0DF910A
:10079000CF91FF90EF90DF90CF90BF90AF909F9060
:1007A0008F907F906F905F904F900C94F1F44F92E8
:1007B0005F926F927F92AF92BF92CF92DF92EF9251
:1007C000FF920F931F93CF9381ECA82E82E0B82E57
:1007D0000FE318E1C0E0F50181915F010E9486BE40
:1007E000882309F46DC0C33009F063C00E944FBE76
:1007F0006B017C0120E030E040EA51E40F94994322
:1008000087FF4EC0A701960160914B1870914C185C
:1008100080914D1890914E180F94DF482B013C01A8
:100820009B01AC016091F9117091FA118091FB115B
:100830009091FC110F94FE436093F9117093FA119B
:100840008093FB119093FC11A301920160913112EE
:100850007091321280913312909134120F94FE43B2
:10086000609331127093321280933312909334124A
:100870006091CB087091CC088091CD089091CE0802
:100880000F949D43A30192010F94FE430F944C4992
:100890006093CB087093CC088093CD089093CE08DA
:1008A000C0924B18D0924C18E0924D18F0924E180E
:1008B00007C00E944FBEF8016083718382839383D7
:1008C000CF5F0C5F1F4FC43009F085CFCF911F91D0
:1008D0000F91FF90EF90DF90CF90BF90AF907F90FF
:1008E0006F905F904F900C94C4A783E50E9486BEE2
:1008F000882391F00E944FBE20E030E04AE754E4A4
:100900000F94FE430F944C496093010F7093020FB4
:100910008093030F9093040F089583E50E94CDBE4A
:10092000882399F00E944FBE20E030E04AE754E46B
:100930000F94FE430F944C49609334027093350238
:100940008093360290933702089588E50E9486BE10
:10095000811111C089E50E9486BE81110CC08AE513
:100960000E9486BE811107C085E40E9486BE811167
:1009700002C00C94E26D0E94C16C88E50E9486BEA4
:10098000882331F0179A8091E5038E7F8093E503E9
:1009900089E50E9486BE882331F0169A8091E5038E
:1009A0008D7F8093E5038AE50E9486BE882331F01F
:1009B000159A8091E5038B7F8093E50385E40E947F
:1009C00086BE882311F0149A089508950E94587BDA
:1009D0000E94E26D1092DE051092DD0568EE73E074
:1009E00080E090E00E945EEE60E08EE695E10C947F
:1009F000CCBFCF93DF9383E50E94CDBE882321F047
:100A00000E941FBEEB0102C0C0E0D0E0DD27C23073
:100A1000D105BCF0EFE2F2E18491EF012196882349
:100A200021F00E94F1F4FE01F7CFECE4F5E18491AE
:100A3000EF012196882309F450C00E94F1F4FE01D1
:100A4000F6CF88E40E94CDBE8823A9F00E941FBE85
:100A5000683771053CF0633281E078072CF062E280
:100A600071E002C068E770E0FE01EE0FFF1FE85181
:100A7000FE4E7183608386E40E94CDBE8823A9F078
:100A80000E941FBEFE01EE0FFF1FE052FE4E71835B
:100A900060836F3F710519F014F06FEF70E077FF1E
:100AA00002C060E070E07183608382E40E94CDBE8A
:100AB000882399F00E941FBE6530710534F06838B4
:100AC00071052CF067E870E002C065E070E0CC0FC3
:100AD000DD1FCC51DE4E79836883DF91CF9108957D
:100AE000CF93DF9383E50E94CDBE882351F00E940F
:100AF0002FBE8D3308F08CE380933302DF91CF91CA
:100B00000895E1E6F5E58491EF012196882321F02F
:100B10000E94F1F4FE01F7CF4091330250E060E013
:100B200070E085E495E11DDA8AE0DF91CF910C94C5
:100B3000F1F4DF92EF92FF920F931F93CF93DF9325
:100B400083E50E9486BE882359F083E50E94CDBECE
:100B5000882319F00E942FBE01C080E08093FD170A
:100B6000E1E6F5E58491EF012196882321F00E94CA
:100B7000F1F4FE01F7CFEEE3F5E18491EF01219668
:100B8000882321F00E94F1F4FE01F7CF8091FD1738
:100B9000882389F180E3E82E85E1F82E00E010E05B
:100BA00020E08091FD1790E0002E02C0959587957A
:100BB0000A94E2F780FF16C0DD24D394D20E2223DC
:100BC00019F08CE20E94F1F4F70125913491F901BA
:100BD0008491E9012196882321F00E94F1F49E017D
:100BE000F6CF2D2D0F5F1F4FF2E0EF0EF11C0530F9
:100BF0001105B9F60BC0EAE3F5E18491EF01219606
:100C0000882321F00E94F1F4FE01F7CF8AE0DF9102
:100C1000CF911F910F91FF90EF90DF900C94F1F422
:100C20008EE40E94CDBE882351F00E941FBE6093C7
:100C300041087093420880934308909344080895B4
:100C40002F923F924F925F926F927F928F929F92DC
:100C5000AF92BF92CF92DF92EF92FF920F931F93CA
:100C6000CF93DF93CDB7DEB762970FB6F894DEBFB0
:100C70000FBECDBF8091FD1783FD87C183E50E9424
:100C8000CDBE8C87811106C082E50E94CDBE88232F
:100C900009F47BC10E944FBE0F9447496639710524
:100CA0000CF070C17093B5086093B4080E94C27ACA
:100CB0006091B4087091B508072E000C880B990B51
:100CC0000F949F432091B0083091B1084091B20831
:100CD0005091B3080F94294A18161CF082E195E14F
:100CE00002C081E295E160E00E94CCBF81E0809388
:100CF0005B028091F9178093AF081A821B821C82D5
:100D00001D82188619861A861B8619821D862CE379
:100D10002E873CE13F8746E4488BE12CF12C00E82C
:100D20001FEB812C912C54016091B4087091B5088F
:100D3000072E000C880B990B0F949F43698B7A8BBD
:100D4000782E692E9B01482F592FB701C8010F94A7
:100D500099438823B1F12091B0083091B1084091B6
:100D6000B2085091B30869897A89872D962D0F941E
:100D70009943881F8827881F89835C85552329F11B
:100D8000882319F180915B02882309F4FEC06296E2
:100D90000FB6F894DEBF0FBECDBFDF91CF911F918C
:100DA0000F91FF90EF90DF90CF90BF90AF909F900A
:100DB0008F907F906F905F904F903F902F900C940A
:100DC000D24CE98AFA8A702E612E0E940C4B6B017C
:100DD0007C01DC01CB01288539854A855B85821B36
:100DE000930BA40BB50BB7FD39C0D701C6018851D1
:100DF0009C4FAF4FBF4F88879987AA87BB8722D95F
:100E0000EEE0F5E184918F010F5F1F4F882321F001
:100E10000E94F1F4F801F6CF81149104A104B10409
:100E2000B9F0D501C40188519C4FAF4FBF4FBC01F1
:100E3000CD016C197D098E099F0928EE33E040E051
:100E400050E00F94A547CA01B9010E94AAF503C05A
:100E50008FE30E94F1F48AE00E94F1F480E00E94A6
:100E600017AD0E940C4B6093FD0E7093FE0E8093A5
:100E7000FF0E9093000F9091B0089E83A091B1084F
:100E8000AF830091B2081091B308292F3A2FA8011F
:100E900069897A89872D962D0F9402481B012C01B0
:100EA00020E030E0A9010F94294A87FF04C057FAD7
:100EB000509457F8509420E030E040EA50E4C201EA
:100EC000B10181149104A104B10429F40F94994350
:100ED00087FF07C004C00F94294A181614F446016E
:100EE0005701B981BB2391F12A813B814C815D81FE
:100EF000211531054105510541F0D701C601821B7D
:100F0000930BA40BB50BB7FD21C02E813F81A80127
:100F10006D857E858F8598890F94024820E030E0AA
:100F200040EC5FE30F94994387FD2CCFD701C601B6
:100F3000805A9541AF4FBF4F8A839B83AC83BD835B
:100F40009E819D87AF81AE870F87188B80915B0252
:100F5000882309F417CF81149104A104B10429F462
:100F6000E988FA88072D162DDFCEB8EECB1AB3E04C
:100F7000DB0AE108F108C818D908EA08FB08F7FEFF
:100F800001CFEECF66E970E08DCE62960FB6F89491
:100F9000DEBF0FBECDBFDF91CF911F910F91FF90AC
:100FA000EF90DF90CF90BF90AF909F908F907F9009
:100FB0006F905F904F903F902F9008952F923F92A7
:100FC0004F925F926F927F928F929F92AF92BF9259
:100FD000CF92DF92EF92FF920F931F93CF93DF9305
:100FE000CDB7DEB762970FB6F894DEBF0FBECDBFA8
:100FF0008DE690E00E9464E0811186C18091FD172A
:1010000083FD82C183E50E94CDBE8E83811106C01F
:1010100082E50E94CDBE882309F476C10E944FBEAE
:101020000F9447497093FC176093FB1780E00E9470
:101030000D7B6091FB177091FC17072E000C880B3D
:10104000990B0F949F432091F5173091F61740911B
:10105000F7175091F8170F94294A181634F02E817B
:10106000211108C086EE94E102C08AEF94E160E0AD
:101070000E94CCBF81E080935B021A821B821C829B
:101080001D8219861A861B861C8619821D863CE3E2
:101090003E874CE14F8756E4588BE12CF12C00E859
:1010A0001FEB812C912C54016091FB177091FC1760
:1010B000072E000C880B990B0F949F43698B7A8B3A
:1010C000782E692E9B01482F592FB701C8010F9424
:1010D00099438823B9F12091F5173091F617409183
:1010E000F7175091F81769897A89872D962D0F94F3
:1010F0009943881F8827881F89838E81882331F12F
:101100009981992319F180915B02882309F4FCC02D
:1011100062960FB6F894DEBF0FBECDBFDF91CF91C0
:101120001F910F91FF90EF90DF90CF90BF90AF9005
:101130009F908F907F906F905F904F903F902F90F7
:101140000C94D24CE98AFA8A702E612E0E940C4BC4
:101150006B017C01DC01CB0129853A854B855C85DF
:10116000821B930BA40BB50BB7FD3AC0D701C60188
:1011700088519C4FAF4FBF4F89879A87AB87BC87F9
:101180000E942280E2EEF4E184918F010F5F1F4FF5
:10119000882321F00E94F1F4F801F6CF8114910424
:1011A000A104B104B9F0D501C40188519C4FAF4FDF
:1011B000BF4FBC01CD016C197D098E099F0928EE36
:1011C00033E040E050E00F94A547CA01B9010E9406
:1011D000AAF503C08FE30E94F1F48AE00E94F1F4C3
:1011E00080E00E9417AD0E940C4B6093FD0E70933F
:1011F000FE0E8093FF0E9093000F9091F5179F8342
:10120000A091F617A8870091F7171091F817292FCA
:101210003A2FA80169897A89872D962D0F94024863
:101220001B012C0120E030E0A9010F94294A87FF1F
:1012300004C057FA509457F8509420E030E040E250
:1012400051E4C201B10181149104A104B10429F453
:101250000F94994387FF07C004C00F94294A1816BA
:1012600014F446015701B981BB2391F12A813B81D6
:101270004C815D81211531054105510541F0D701B2
:10128000C601821B930BA40BB50BB7FD21C02F81A8
:101290003885A8016D857E858F8598890F940248D1
:1012A00020E030E040EC5FE30F94994387FD2BCFC3
:1012B000D701C601805A9541AF4FBF4F8A839B83A8
:1012C000AC83BD839F819D87A885AE870F87188BD0
:1012D00080915B02882309F416CF81149104A10444
:1012E000B10429F4E988FA88072D162DDDCEB8EE71
:1012F000CB1AB3E0DB0AE108F108C818D908EA08FC
:10130000FB08F7FE00CFEECF62960FB6F894DEBF73
:101310000FBECDBFDF91CF911F910F91FF90EF9046
:10132000DF90CF90BF90AF909F908F907F906F9005
:101330005F904F903F902F90089580E50E94CDBE22
:10134000811105C01092DE051092DD0508950E94FE
:101350001FBE672BB9F3089580E50E94CDBE8111B1
:1013600006C083E50E94CDBE882359F005C00E94C7
:101370002FBE81110CC0F5CF0E941FBE6F3F7105BB
:1013800010F06FEF70E07093DE056093DD05089557
:10139000CF92DF92EF92FF92CF9383E50E94CDBE72
:1013A0008823F1F00E942FBEC82F8D3308F0CCE3C4
:1013B000C093250F0E940C4B6B017C012C2F30E059
:1013C000A8EEB3E00F94F347C60ED71EE81EF91E31
:1013D000C092210FD092220FE092230FF092240F9F
:1013E000CF91FF90EF90DF90CF900895CF93DF9350
:1013F00089E690E00E9464E0811112C0EFEDF4E113
:101400008491EF012196882321F00E94F1F4FE01DE
:10141000F7CF0E9422808AE0DF91CF910C94F1F403
:10142000DF91CF91089588E690E00E9464E08111F9
:1014300014C08091FD1783FD10C083E50E94CDBECE
:10144000882359F00E944FBE0F9447497093FC17B0
:101450006093FB1780E00C940D7B08958091E40E5F
:101460009091E50E21E02093031540E060E00C949C
:101470005E70CF938091041581110E94C16C8091A0
:1014800005158823A9F180E50E94CDBE882319F0B7
:101490000E9440BE03C080E50E9486BEC82F482F30
:1014A00061E08091E40E9091E50E0E945E7083E50C
:1014B0000E94CDBE882381F00E941FBEAB01BC01FB
:1014C0004093A4175093A5176093A6177093A7177E
:1014D00083EF96E10F94F52E80910515882319F07E
:1014E00081E080930415C11103C0CF910C94214C6D
:1014F000CF910895EF92FF920F931F93CF93DF93B5
:10150000CDB7DEB76D970FB6F894DEBF0FBECDBF77
:1015100080910515882309F490C083EF96E10F941C
:10152000B42E83EF96E10E945AF0109203151092A8
:1015300002150091E40E1091E50E809105158823A7
:1015400009F47BC00E945170B801CE014C960E94F4
:10155000996F8C01892B09F470C06C8D7D8D61159C
:10156000710511F06C5F7F4F19821C8222E0A80187
:10157000CE0101960E946DF3811102C0F12C1EC0B4
:10158000CE0101960F94FE1F8823C1F36D857E85E1
:101590008F85988941E00F949D2C882379F3E98900
:1015A00080E2E89FF0011124EC5CF94F309731F3B1
:1015B00085EE80831C820F945D2CF82ECE0101965F
:1015C0000E94D9BEFF2009F1E9EBF4E184917F018B
:1015D0009FEFE91AF90A882321F00E94F1F4F7013C
:1015E000F5CFF80181918F01882319F00E94F1F461
:1015F000F8CF8AE00E94F1F41092A4171092A51778
:101600001092A6171092A71718C0E7ECF4E1849186
:101610007F019FEFE91AF90A882321F00E94F1F473
:10162000F701F5CFF80181918F01882319F00E940D
:10163000F1F4F8CF8EE20E94F1F46D960FB6F894B3
:10164000DEBF0FBECDBFDF91CF911F910F91FF90F5
:10165000EF90089540E060E08091E40E9091E50EF7
:101660000C945E70CF93DF93CDB7DEB72C970FB697
:10167000F894DEBF0FBECDBF19861A861B861C8666
:101680001D821E821F82188619821A821B821C826A
:1016900080914508882359F020E0AE01475F5F4FF5
:1016A000BE016B5F7F4FCE0101960E941DB08091FD
:1016B0000515882319F081E0809304150E94214CC0
:1016C0002C960FB6F894DEBF0FBECDBFDF91CF9141
:1016D00008958F929F92AF92BF92CF92DF92EF9236
:1016E000FF920F931F93CF93DF9300D01F92CDB73C
:1016F000DEB7F82E662351F01092BA081092B608A1
:101700001092B7081092B8081092B9080E940C4BBA
:101710008090B6089090B708A090B808B090B9082B
:101720009B01AC01281939094A095B0957FD4CC0D6
:101730002091BA08F7FC16C04F2D0F2C000C550B4A
:101740004C5F5F4FE22F022E000CFF0B4E175F071E
:10175000DCF12F153CF044EFC42EDD24D394E12CB2
:10176000F12C06C038EEC32E33E0D32EE12CF12C41
:10177000DC01CB018C0D9D1DAE1DBF1D8093B608F5
:101780009093B708A093B808B093B908022F0170DE
:1017900010E024E2209FC001219F900D901B112496
:1017A00080599C4F9C838B8382E390E09A8389834A
:1017B000BE016D5F7F4FCE0101960E94DE73809166
:1017C000BA088F5F8093BA080F900F900F900F9018
:1017D000DF91CF911F910F91FF90EF90DF90CF900D
:1017E000BF90AF909F908F900895CF93DF93EC01BF
:1017F000662331F161E00E947E5940E050E0BA0179
:10180000CE010F94952B60E0CE010F94802B60E009
:10181000CE010E94E65A60E0CE010E947E594FEF51
:101820005FEF6FE070E0CE010F94952B61E0CE0189
:101830000F94802B63E0CE010E94E65A81E013C032
:1018400060E00E947E594FEF5FEF6FE070E0CE01E5
:101850000F94952B61E0CE010F94802B63E0CE01B5
:101860000E94E65A80E090E0A0E0B0E0BA2FA92FF5
:10187000982F88274F89588D698D7A8D5E7F842BAC
:10188000952BA62BB72B8F8B988FA98FBA8FAE0174
:10189000495E5F4F60E8CE01DF91CF910D946A2AD7
:1018A000CF93DF93E82FF0E0EE0FFF1FE653FA4EE1
:1018B00025913491F9018491E9012196882321F041
:1018C0000E94F1F49E01F6CFDF91CF910895CF925F
:1018D000DF92EF92FF920F931F93CF93DF931F92AC
:1018E000CDB7DEB77C01162F89E049830E94F1F461
:1018F0004981842F90E08D30910508F0B3C0FC0140
:101900008827E056FF4F8F4F0D94F24A812F0F909A
:10191000DF91CF911F910F91FF90EF90DF90CF90CB
:10192000BFCFC7010E948F5A97FFBFC088E58FC005
:10193000C7010E948F5A96FFB8C0F8CFC7010E9416
:101940008F5A95FFB2C0F2CFC7010E948F5A94FF01
:10195000ACC0ECCFC7010E948F5A93FFA6C0E6CF60
:10196000C7010E948F5A92FFA0C0E0CFC7010E941A
:101970008F5A91FF9AC0DACFC7010E948F5ADC01BB
:10198000CB0188279927AF71BB27BD0188279927ED
:101990007BC0C7010E948F5A6B017C01812F80DFC1
:1019A000E0E9F6E184918F010F5F1F4F882321F05A
:1019B0000E94F1F4F801F6CF08E110E0C8010496A6
:1019C000A701960104C056954795379527958A95A6
:1019D000D2F7CA01B9016F7077278827992740E1AC
:1019E0000E9444F5D701C601002E04C0B695A79504
:1019F000979587950A94D2F7BC01CD016F70772730
:101A00008827992740E10E9444F58AE30E94F1F477
:101A10000850110999F6D701C60124E0B695A7959B
:101A2000979587952A95D1F7BC01CD016F707727DF
:101A30008827992740E10E9444F5C701B6016F70DD
:101A400077278827992740E10E9444F58AE00F9084
:101A5000DF91CF911F910F91FF90EF90DF90CF908A
:101A60000C94F1F44A30E1F04B3041F04830E9F4A5
:101A7000C7010E948F5A90FF18C058CFC7010E941B
:101A80008F5A737080E090E04AE00F90DF91CF9121
:101A90001F910F91FF90EF90DF90CF900C9444F541
:101AA000C7010E948F5A77FD41CF0F90DF91CF91F0
:101AB0001F910F91FF90EF90DF90CF900895CF93FB
:101AC000C82F482F60E082E394E101DF4C2F61E0F2
:101AD00080EB93E1FCDE4C2F62E08EE293E1F7DED7
:101AE0008AE0CF910C94F1F44F925F926F927F92C3
:101AF0008F929F92AF92BF92CF92DF92EF92FF921E
:101B00000F931F93CF93DF931F921F92CDB7DEB732
:101B10005C012801390189E04A8369830E94F1F45C
:101B20004A81C42ED12C698185E1C816D10408F000
:101B30009EC1F6018827E355FF4F8F4F0D94F24A5F
:101B4000862F0F900F90DF91CF911F910F91FF90F3
:101B5000EF90DF90CF90BF90AF909F908F907F904D
:101B60006F905F904F909CCEF50187850E94DA4878
:101B7000892B09F0EDC1C5010E947F5A6F7009F4ED
:101B8000E7C1E5E8F6E184917F019FEFE91AF90AE0
:101B9000882309F4E0C10E94F1F4F701F4CFF501C4
:101BA000E158FF4F6081718104C0C5010F940C2A78
:101BB000BC0180E090E04AE00F900F90DF91CF9160
:101BC0001F910F91FF90EF90DF90CF90BF90AF905B
:101BD0009F908F907F906F905F904F900C9444F502
:101BE000C5010F940C2ABC0180E090E00F949D4346
:101BF00021EE3AE744EB5FE30F94FE4340E09BC0E5
:101C0000F501838D948DA58DB68D88279F71AA27A8
